{
	"backend/contracts/lottery.sol": {
		"Lottery": {
			"abi": [
				{
					"inputs": [
						{
							"internalType": "uint256",
							"name": "_ticketPrice",
							"type": "uint256"
						},
						{
							"internalType": "uint256",
							"name": "_minimumPlayers",
							"type": "uint256"
						},
						{
							"internalType": "uint256",
							"name": "_timeoutToStart",
							"type": "uint256"
						}
					],
					"stateMutability": "nonpayable",
					"type": "constructor"
				},
				{
					"anonymous": false,
					"inputs": [
						{
							"indexed": false,
							"internalType": "enum Lottery.LotteryState",
							"name": "status",
							"type": "uint8"
						}
					],
					"name": "CurrentStatus",
					"type": "event"
				},
				{
					"anonymous": false,
					"inputs": [],
					"name": "LotteryClosed",
					"type": "event"
				},
				{
					"anonymous": false,
					"inputs": [
						{
							"indexed": true,
							"internalType": "address",
							"name": "player",
							"type": "address"
						}
					],
					"name": "NewPlayerEntered",
					"type": "event"
				},
				{
					"anonymous": false,
					"inputs": [
						{
							"indexed": false,
							"internalType": "uint256",
							"name": "time",
							"type": "uint256"
						}
					],
					"name": "TimeLeft",
					"type": "event"
				},
				{
					"anonymous": false,
					"inputs": [
						{
							"indexed": true,
							"internalType": "address",
							"name": "winner",
							"type": "address"
						}
					],
					"name": "WinnerPicked",
					"type": "event"
				},
				{
					"inputs": [],
					"name": "checkIfWinner",
					"outputs": [
						{
							"components": [
								{
									"internalType": "address",
									"name": "id",
									"type": "address"
								},
								{
									"internalType": "bool",
									"name": "isWinner",
									"type": "bool"
								}
							],
							"internalType": "struct Lottery.LastWinners",
							"name": "myPlayer",
							"type": "tuple"
						}
					],
					"stateMutability": "view",
					"type": "function"
				},
				{
					"inputs": [
						{
							"internalType": "uint256",
							"name": "_ticketPrice",
							"type": "uint256"
						}
					],
					"name": "enter",
					"outputs": [],
					"stateMutability": "payable",
					"type": "function"
				},
				{
					"inputs": [],
					"name": "getCurrentState",
					"outputs": [
						{
							"internalType": "enum Lottery.LotteryState",
							"name": "",
							"type": "uint8"
						}
					],
					"stateMutability": "view",
					"type": "function"
				},
				{
					"inputs": [],
					"name": "getPlayers",
					"outputs": [
						{
							"internalType": "address payable[]",
							"name": "",
							"type": "address[]"
						}
					],
					"stateMutability": "view",
					"type": "function"
				},
				{
					"inputs": [
						{
							"internalType": "address",
							"name": "player",
							"type": "address"
						}
					],
					"name": "hasPlayerEntered",
					"outputs": [
						{
							"internalType": "bool",
							"name": "",
							"type": "bool"
						}
					],
					"stateMutability": "view",
					"type": "function"
				},
				{
					"inputs": [],
					"name": "minimumPlayers",
					"outputs": [
						{
							"internalType": "uint256",
							"name": "",
							"type": "uint256"
						}
					],
					"stateMutability": "view",
					"type": "function"
				},
				{
					"inputs": [],
					"name": "pickWinner",
					"outputs": [],
					"stateMutability": "nonpayable",
					"type": "function"
				},
				{
					"inputs": [],
					"name": "ticketCount",
					"outputs": [
						{
							"internalType": "uint256",
							"name": "",
							"type": "uint256"
						}
					],
					"stateMutability": "view",
					"type": "function"
				},
				{
					"inputs": [],
					"name": "ticketPrice",
					"outputs": [
						{
							"internalType": "uint256",
							"name": "",
							"type": "uint256"
						}
					],
					"stateMutability": "view",
					"type": "function"
				}
			],
			"devdoc": {
				"kind": "dev",
				"methods": {},
				"version": 1
			},
			"evm": {
				"assembly": "    /* \"backend/contracts/lottery.sol\":69:4867  contract Lottery {... */\n  mstore(0x40, 0x80)\n    /* \"backend/contracts/lottery.sol\":858:1223  constructor(... */\n  callvalue\n  dup1\n  iszero\n  tag_1\n  jumpi\n  0x00\n  dup1\n  revert\ntag_1:\n  pop\n  mload(0x40)\n  sub(codesize, bytecodeSize)\n  dup1\n  bytecodeSize\n  dup4\n  codecopy\n  dup2\n  dup2\n  add\n  0x40\n  mstore\n  dup2\n  add\n  swap1\n  tag_2\n  swap2\n  swap1\n  tag_3\n  jump\t// in\ntag_2:\n    /* \"backend/contracts/lottery.sol\":992:1002  msg.sender */\n  caller\n    /* \"backend/contracts/lottery.sol\":982:989  manager */\n  0x00\n  dup1\n    /* \"backend/contracts/lottery.sol\":982:1002  manager = msg.sender */\n  0x0100\n  exp\n  dup2\n  sload\n  dup2\n  0xffffffffffffffffffffffffffffffffffffffff\n  mul\n  not\n  and\n  swap1\n  dup4\n  0xffffffffffffffffffffffffffffffffffffffff\n  and\n  mul\n  or\n  swap1\n  sstore\n  pop\n    /* \"backend/contracts/lottery.sol\":1026:1038  _ticketPrice */\n  dup3\n    /* \"backend/contracts/lottery.sol\":1012:1023  ticketPrice */\n  0x03\n    /* \"backend/contracts/lottery.sol\":1012:1038  ticketPrice = _ticketPrice */\n  dup2\n  swap1\n  sstore\n  pop\n    /* \"backend/contracts/lottery.sol\":1065:1080  _minimumPlayers */\n  dup2\n    /* \"backend/contracts/lottery.sol\":1048:1062  minimumPlayers */\n  0x04\n    /* \"backend/contracts/lottery.sol\":1048:1080  minimumPlayers = _minimumPlayers */\n  dup2\n  swap1\n  sstore\n  pop\n    /* \"backend/contracts/lottery.sol\":1109:1124  _timeoutToStart */\n  dup1\n    /* \"backend/contracts/lottery.sol\":1090:1106  timeoutToRestart */\n  0x07\n    /* \"backend/contracts/lottery.sol\":1090:1124  timeoutToRestart = _timeoutToStart */\n  dup2\n  swap1\n  sstore\n  pop\n    /* \"backend/contracts/lottery.sol\":1149:1166  LotteryState.Open */\n  0x00\n    /* \"backend/contracts/lottery.sol\":1134:1146  currentState */\n  0x09\n  0x00\n    /* \"backend/contracts/lottery.sol\":1134:1166  currentState = LotteryState.Open */\n  0x0100\n  exp\n  dup2\n  sload\n  dup2\n  0xff\n  mul\n  not\n  and\n  swap1\n  dup4\n  0x03\n  dup2\n  gt\n  iszero\n  tag_6\n  jumpi\n  tag_7\n  tag_8\n  jump\t// in\ntag_7:\ntag_6:\n  mul\n  or\n  swap1\n  sstore\n  pop\n    /* \"backend/contracts/lottery.sol\":1190:1191  0 */\n  0x00\n    /* \"backend/contracts/lottery.sol\":1176:1187  ticketCount */\n  0x05\n    /* \"backend/contracts/lottery.sol\":1176:1191  ticketCount = 0 */\n  dup2\n  swap1\n  sstore\n  pop\n    /* \"backend/contracts/lottery.sol\":1215:1216  0 */\n  0x00\n    /* \"backend/contracts/lottery.sol\":1201:1212  ticketIndex */\n  0x06\n    /* \"backend/contracts/lottery.sol\":1201:1216  ticketIndex = 0 */\n  dup2\n  swap1\n  sstore\n  pop\n    /* \"backend/contracts/lottery.sol\":858:1223  constructor(... */\n  pop\n  pop\n  pop\n    /* \"backend/contracts/lottery.sol\":69:4867  contract Lottery {... */\n  jump(tag_9)\n    /* \"#utility.yul\":88:205   */\ntag_11:\n    /* \"#utility.yul\":197:198   */\n  0x00\n    /* \"#utility.yul\":194:195   */\n  dup1\n    /* \"#utility.yul\":187:199   */\n  revert\n    /* \"#utility.yul\":334:411   */\ntag_13:\n    /* \"#utility.yul\":371:378   */\n  0x00\n    /* \"#utility.yul\":400:405   */\n  dup2\n    /* \"#utility.yul\":389:405   */\n  swap1\n  pop\n    /* \"#utility.yul\":334:411   */\n  swap2\n  swap1\n  pop\n  jump\t// out\n    /* \"#utility.yul\":417:539   */\ntag_14:\n    /* \"#utility.yul\":490:514   */\n  tag_22\n    /* \"#utility.yul\":508:513   */\n  dup2\n    /* \"#utility.yul\":490:514   */\n  tag_13\n  jump\t// in\ntag_22:\n    /* \"#utility.yul\":483:488   */\n  dup2\n    /* \"#utility.yul\":480:515   */\n  eq\n    /* \"#utility.yul\":470:533   */\n  tag_23\n  jumpi\n    /* \"#utility.yul\":529:530   */\n  0x00\n    /* \"#utility.yul\":526:527   */\n  dup1\n    /* \"#utility.yul\":519:531   */\n  revert\n    /* \"#utility.yul\":470:533   */\ntag_23:\n    /* \"#utility.yul\":417:539   */\n  pop\n  jump\t// out\n    /* \"#utility.yul\":545:688   */\ntag_15:\n    /* \"#utility.yul\":602:607   */\n  0x00\n    /* \"#utility.yul\":633:639   */\n  dup2\n    /* \"#utility.yul\":627:640   */\n  mload\n    /* \"#utility.yul\":618:640   */\n  swap1\n  pop\n    /* \"#utility.yul\":649:682   */\n  tag_25\n    /* \"#utility.yul\":676:681   */\n  dup2\n    /* \"#utility.yul\":649:682   */\n  tag_14\n  jump\t// in\ntag_25:\n    /* \"#utility.yul\":545:688   */\n  swap3\n  swap2\n  pop\n  pop\n  jump\t// out\n    /* \"#utility.yul\":694:1357   */\ntag_3:\n    /* \"#utility.yul\":782:788   */\n  0x00\n    /* \"#utility.yul\":790:796   */\n  dup1\n    /* \"#utility.yul\":798:804   */\n  0x00\n    /* \"#utility.yul\":847:849   */\n  0x60\n    /* \"#utility.yul\":835:844   */\n  dup5\n    /* \"#utility.yul\":826:833   */\n  dup7\n    /* \"#utility.yul\":822:845   */\n  sub\n    /* \"#utility.yul\":818:850   */\n  slt\n    /* \"#utility.yul\":815:934   */\n  iszero\n  tag_27\n  jumpi\n    /* \"#utility.yul\":853:932   */\n  tag_28\n  tag_11\n  jump\t// in\ntag_28:\n    /* \"#utility.yul\":815:934   */\ntag_27:\n    /* \"#utility.yul\":973:974   */\n  0x00\n    /* \"#utility.yul\":998:1062   */\n  tag_29\n    /* \"#utility.yul\":1054:1061   */\n  dup7\n    /* \"#utility.yul\":1045:1051   */\n  dup3\n    /* \"#utility.yul\":1034:1043   */\n  dup8\n    /* \"#utility.yul\":1030:1052   */\n  add\n    /* \"#utility.yul\":998:1062   */\n  tag_15\n  jump\t// in\ntag_29:\n    /* \"#utility.yul\":988:1062   */\n  swap4\n  pop\n    /* \"#utility.yul\":944:1072   */\n  pop\n    /* \"#utility.yul\":1111:1113   */\n  0x20\n    /* \"#utility.yul\":1137:1201   */\n  tag_30\n    /* \"#utility.yul\":1193:1200   */\n  dup7\n    /* \"#utility.yul\":1184:1190   */\n  dup3\n    /* \"#utility.yul\":1173:1182   */\n  dup8\n    /* \"#utility.yul\":1169:1191   */\n  add\n    /* \"#utility.yul\":1137:1201   */\n  tag_15\n  jump\t// in\ntag_30:\n    /* \"#utility.yul\":1127:1201   */\n  swap3\n  pop\n    /* \"#utility.yul\":1082:1211   */\n  pop\n    /* \"#utility.yul\":1250:1252   */\n  0x40\n    /* \"#utility.yul\":1276:1340   */\n  tag_31\n    /* \"#utility.yul\":1332:1339   */\n  dup7\n    /* \"#utility.yul\":1323:1329   */\n  dup3\n    /* \"#utility.yul\":1312:1321   */\n  dup8\n    /* \"#utility.yul\":1308:1330   */\n  add\n    /* \"#utility.yul\":1276:1340   */\n  tag_15\n  jump\t// in\ntag_31:\n    /* \"#utility.yul\":1266:1340   */\n  swap2\n  pop\n    /* \"#utility.yul\":1221:1350   */\n  pop\n    /* \"#utility.yul\":694:1357   */\n  swap3\n  pop\n  swap3\n  pop\n  swap3\n  jump\t// out\n    /* \"#utility.yul\":1363:1543   */\ntag_8:\n    /* \"#utility.yul\":1411:1488   */\n  0x4e487b7100000000000000000000000000000000000000000000000000000000\n    /* \"#utility.yul\":1408:1409   */\n  0x00\n    /* \"#utility.yul\":1401:1489   */\n  mstore\n    /* \"#utility.yul\":1508:1512   */\n  0x21\n    /* \"#utility.yul\":1505:1506   */\n  0x04\n    /* \"#utility.yul\":1498:1513   */\n  mstore\n    /* \"#utility.yul\":1532:1536   */\n  0x24\n    /* \"#utility.yul\":1529:1530   */\n  0x00\n    /* \"#utility.yul\":1522:1537   */\n  revert\n    /* \"backend/contracts/lottery.sol\":69:4867  contract Lottery {... */\ntag_9:\n  dataSize(sub_0)\n  dup1\n  dataOffset(sub_0)\n  0x00\n  codecopy\n  0x00\n  return\nstop\n\nsub_0: assembly {\n        /* \"backend/contracts/lottery.sol\":69:4867  contract Lottery {... */\n      mstore(0x40, 0x80)\n      jumpi(tag_1, lt(calldatasize, 0x04))\n      shr(0xe0, calldataload(0x00))\n      dup1\n      0x8b5b9ccc\n      gt\n      tag_11\n      jumpi\n      dup1\n      0x8b5b9ccc\n      eq\n      tag_6\n      jumpi\n      dup1\n      0xa59f3e0c\n      eq\n      tag_7\n      jumpi\n      dup1\n      0xb844007c\n      eq\n      tag_8\n      jumpi\n      dup1\n      0xcfbd900f\n      eq\n      tag_9\n      jumpi\n      dup1\n      0xe0764487\n      eq\n      tag_10\n      jumpi\n      jump(tag_1)\n    tag_11:\n      dup1\n      0x1209b1f6\n      eq\n      tag_2\n      jumpi\n      dup1\n      0x378aa701\n      eq\n      tag_3\n      jumpi\n      dup1\n      0x5d495aea\n      eq\n      tag_4\n      jumpi\n      dup1\n      0x680719bb\n      eq\n      tag_5\n      jumpi\n    tag_1:\n      0x00\n      dup1\n      revert\n        /* \"backend/contracts/lottery.sol\":196:222  uint256 public ticketPrice */\n    tag_2:\n      callvalue\n      dup1\n      iszero\n      tag_12\n      jumpi\n      0x00\n      dup1\n      revert\n    tag_12:\n      pop\n      tag_13\n      tag_14\n      jump\t// in\n    tag_13:\n      mload(0x40)\n      tag_15\n      swap2\n      swap1\n      tag_16\n      jump\t// in\n    tag_15:\n      mload(0x40)\n      dup1\n      swap2\n      sub\n      swap1\n      return\n        /* \"backend/contracts/lottery.sol\":4069:4167  function getCurrentState() public view returns (LotteryState) {... */\n    tag_3:\n      callvalue\n      dup1\n      iszero\n      tag_17\n      jumpi\n      0x00\n      dup1\n      revert\n    tag_17:\n      pop\n      tag_18\n      tag_19\n      jump\t// in\n    tag_18:\n      mload(0x40)\n      tag_20\n      swap2\n      swap1\n      tag_21\n      jump\t// in\n    tag_20:\n      mload(0x40)\n      dup1\n      swap2\n      sub\n      swap1\n      return\n        /* \"backend/contracts/lottery.sol\":2493:3372  function pickWinner() public restricted {... */\n    tag_4:\n      callvalue\n      dup1\n      iszero\n      tag_22\n      jumpi\n      0x00\n      dup1\n      revert\n    tag_22:\n      pop\n      tag_23\n      tag_24\n      jump\t// in\n    tag_23:\n      stop\n        /* \"backend/contracts/lottery.sol\":4173:4487  function hasPlayerEntered(address player) public view returns (bool) {... */\n    tag_5:\n      callvalue\n      dup1\n      iszero\n      tag_25\n      jumpi\n      0x00\n      dup1\n      revert\n    tag_25:\n      pop\n      tag_26\n      0x04\n      dup1\n      calldatasize\n      sub\n      dup2\n      add\n      swap1\n      tag_27\n      swap2\n      swap1\n      tag_28\n      jump\t// in\n    tag_27:\n      tag_29\n      jump\t// in\n    tag_26:\n      mload(0x40)\n      tag_30\n      swap2\n      swap1\n      tag_31\n      jump\t// in\n    tag_30:\n      mload(0x40)\n      dup1\n      swap2\n      sub\n      swap1\n      return\n        /* \"backend/contracts/lottery.sol\":3963:4063  function getPlayers() public view returns (address payable[] memory) {... */\n    tag_6:\n      callvalue\n      dup1\n      iszero\n      tag_32\n      jumpi\n      0x00\n      dup1\n      revert\n    tag_32:\n      pop\n      tag_33\n      tag_34\n      jump\t// in\n    tag_33:\n      mload(0x40)\n      tag_35\n      swap2\n      swap1\n      tag_36\n      jump\t// in\n    tag_35:\n      mload(0x40)\n      dup1\n      swap2\n      sub\n      swap1\n      return\n        /* \"backend/contracts/lottery.sol\":1393:2487  function enter(uint256 _ticketPrice) public payable {... */\n    tag_7:\n      tag_37\n      0x04\n      dup1\n      calldatasize\n      sub\n      dup2\n      add\n      swap1\n      tag_38\n      swap2\n      swap1\n      tag_39\n      jump\t// in\n    tag_38:\n      tag_40\n      jump\t// in\n    tag_37:\n      stop\n        /* \"backend/contracts/lottery.sol\":4493:4865  function checkIfWinner() public view returns (LastWinners memory myPlayer) {... */\n    tag_8:\n      callvalue\n      dup1\n      iszero\n      tag_41\n      jumpi\n      0x00\n      dup1\n      revert\n    tag_41:\n      pop\n      tag_42\n      tag_43\n      jump\t// in\n    tag_42:\n      mload(0x40)\n      tag_44\n      swap2\n      swap1\n      tag_45\n      jump\t// in\n    tag_44:\n      mload(0x40)\n      dup1\n      swap2\n      sub\n      swap1\n      return\n        /* \"backend/contracts/lottery.sol\":263:289  uint256 public ticketCount */\n    tag_9:\n      callvalue\n      dup1\n      iszero\n      tag_46\n      jumpi\n      0x00\n      dup1\n      revert\n    tag_46:\n      pop\n      tag_47\n      tag_48\n      jump\t// in\n    tag_47:\n      mload(0x40)\n      tag_49\n      swap2\n      swap1\n      tag_16\n      jump\t// in\n    tag_49:\n      mload(0x40)\n      dup1\n      swap2\n      sub\n      swap1\n      return\n        /* \"backend/contracts/lottery.sol\":228:257  uint256 public minimumPlayers */\n    tag_10:\n      callvalue\n      dup1\n      iszero\n      tag_50\n      jumpi\n      0x00\n      dup1\n      revert\n    tag_50:\n      pop\n      tag_51\n      tag_52\n      jump\t// in\n    tag_51:\n      mload(0x40)\n      tag_53\n      swap2\n      swap1\n      tag_16\n      jump\t// in\n    tag_53:\n      mload(0x40)\n      dup1\n      swap2\n      sub\n      swap1\n      return\n        /* \"backend/contracts/lottery.sol\":196:222  uint256 public ticketPrice */\n    tag_14:\n      sload(0x03)\n      dup2\n      jump\t// out\n        /* \"backend/contracts/lottery.sol\":4069:4167  function getCurrentState() public view returns (LotteryState) {... */\n    tag_19:\n        /* \"backend/contracts/lottery.sol\":4117:4129  LotteryState */\n      0x00\n        /* \"backend/contracts/lottery.sol\":4148:4160  currentState */\n      0x09\n      0x00\n      swap1\n      sload\n      swap1\n      0x0100\n      exp\n      swap1\n      div\n      0xff\n      and\n        /* \"backend/contracts/lottery.sol\":4141:4160  return currentState */\n      swap1\n      pop\n        /* \"backend/contracts/lottery.sol\":4069:4167  function getCurrentState() public view returns (LotteryState) {... */\n      swap1\n      jump\t// out\n        /* \"backend/contracts/lottery.sol\":2493:3372  function pickWinner() public restricted {... */\n    tag_24:\n        /* \"backend/contracts/lottery.sol\":1296:1303  manager */\n      0x00\n      dup1\n      sload\n      swap1\n      0x0100\n      exp\n      swap1\n      div\n      0xffffffffffffffffffffffffffffffffffffffff\n      and\n        /* \"backend/contracts/lottery.sol\":1282:1303  msg.sender == manager */\n      0xffffffffffffffffffffffffffffffffffffffff\n      and\n        /* \"backend/contracts/lottery.sol\":1282:1292  msg.sender */\n      caller\n        /* \"backend/contracts/lottery.sol\":1282:1303  msg.sender == manager */\n      0xffffffffffffffffffffffffffffffffffffffff\n      and\n      eq\n        /* \"backend/contracts/lottery.sol\":1261:1369  require(... */\n      tag_56\n      jumpi\n      mload(0x40)\n      0x08c379a000000000000000000000000000000000000000000000000000000000\n      dup2\n      mstore\n      0x04\n      add\n      tag_57\n      swap1\n      tag_58\n      jump\t// in\n    tag_57:\n      mload(0x40)\n      dup1\n      swap2\n      sub\n      swap1\n      revert\n    tag_56:\n        /* \"backend/contracts/lottery.sol\":2580:2599  LotteryState.Closed */\n      0x01\n        /* \"backend/contracts/lottery.sol\":2564:2599  currentState == LotteryState.Closed */\n      0x03\n      dup2\n      gt\n      iszero\n      tag_60\n      jumpi\n      tag_61\n      tag_62\n      jump\t// in\n    tag_61:\n    tag_60:\n        /* \"backend/contracts/lottery.sol\":2564:2576  currentState */\n      0x09\n      0x00\n      swap1\n      sload\n      swap1\n      0x0100\n      exp\n      swap1\n      div\n      0xff\n      and\n        /* \"backend/contracts/lottery.sol\":2564:2599  currentState == LotteryState.Closed */\n      0x03\n      dup2\n      gt\n      iszero\n      tag_63\n      jumpi\n      tag_64\n      tag_62\n      jump\t// in\n    tag_64:\n    tag_63:\n      eq\n        /* \"backend/contracts/lottery.sol\":2543:2672  require(... */\n      tag_65\n      jumpi\n      mload(0x40)\n      0x08c379a000000000000000000000000000000000000000000000000000000000\n      dup2\n      mstore\n      0x04\n      add\n      tag_66\n      swap1\n      tag_67\n      jump\t// in\n    tag_66:\n      mload(0x40)\n      dup1\n      swap2\n      sub\n      swap1\n      revert\n    tag_65:\n        /* \"backend/contracts/lottery.sol\":2717:2728  ticketCount */\n      sload(0x05)\n        /* \"backend/contracts/lottery.sol\":2703:2714  ticketIndex */\n      sload(0x06)\n        /* \"backend/contracts/lottery.sol\":2703:2728  ticketIndex < ticketCount */\n      lt\n        /* \"backend/contracts/lottery.sol\":2682:2792  require(... */\n      tag_68\n      jumpi\n      mload(0x40)\n      0x08c379a000000000000000000000000000000000000000000000000000000000\n      dup2\n      mstore\n      0x04\n      add\n      tag_69\n      swap1\n      tag_70\n      jump\t// in\n    tag_69:\n      mload(0x40)\n      dup1\n      swap2\n      sub\n      swap1\n      revert\n    tag_68:\n        /* \"backend/contracts/lottery.sol\":2803:2822  uint256 randomIndex */\n      0x00\n        /* \"backend/contracts/lottery.sol\":2851:2862  ticketIndex */\n      sload(0x06)\n        /* \"backend/contracts/lottery.sol\":2837:2848  ticketCount */\n      sload(0x05)\n        /* \"backend/contracts/lottery.sol\":2837:2862  ticketCount - ticketIndex */\n      tag_71\n      swap2\n      swap1\n      tag_72\n      jump\t// in\n    tag_71:\n        /* \"backend/contracts/lottery.sol\":2825:2833  random() */\n      tag_73\n        /* \"backend/contracts/lottery.sol\":2825:2831  random */\n      tag_74\n        /* \"backend/contracts/lottery.sol\":2825:2833  random() */\n      jump\t// in\n    tag_73:\n        /* \"backend/contracts/lottery.sol\":2825:2863  random() % (ticketCount - ticketIndex) */\n      tag_75\n      swap2\n      swap1\n      tag_76\n      jump\t// in\n    tag_75:\n        /* \"backend/contracts/lottery.sol\":2803:2863  uint256 randomIndex = random() % (ticketCount - ticketIndex) */\n      swap1\n      pop\n        /* \"backend/contracts/lottery.sol\":2882:2889  players */\n      0x01\n        /* \"backend/contracts/lottery.sol\":2904:2915  ticketIndex */\n      sload(0x06)\n        /* \"backend/contracts/lottery.sol\":2890:2901  randomIndex */\n      dup3\n        /* \"backend/contracts/lottery.sol\":2890:2915  randomIndex + ticketIndex */\n      tag_77\n      swap2\n      swap1\n      tag_78\n      jump\t// in\n    tag_77:\n        /* \"backend/contracts/lottery.sol\":2882:2916  players[randomIndex + ticketIndex] */\n      dup2\n      sload\n      dup2\n      lt\n      tag_79\n      jumpi\n      tag_80\n      tag_81\n      jump\t// in\n    tag_80:\n    tag_79:\n      swap1\n      0x00\n      mstore\n      keccak256(0x00, 0x20)\n      add\n      0x00\n      swap1\n      sload\n      swap1\n      0x0100\n      exp\n      swap1\n      div\n      0xffffffffffffffffffffffffffffffffffffffff\n      and\n        /* \"backend/contracts/lottery.sol\":2873:2879  winner */\n      0x02\n      0x00\n        /* \"backend/contracts/lottery.sol\":2873:2916  winner = players[randomIndex + ticketIndex] */\n      0x0100\n      exp\n      dup2\n      sload\n      dup2\n      0xffffffffffffffffffffffffffffffffffffffff\n      mul\n      not\n      and\n      swap1\n      dup4\n      0xffffffffffffffffffffffffffffffffffffffff\n      and\n      mul\n      or\n      swap1\n      sstore\n      pop\n        /* \"backend/contracts/lottery.sol\":2926:2937  ticketIndex */\n      0x06\n      0x00\n        /* \"backend/contracts/lottery.sol\":2926:2939  ticketIndex++ */\n      dup2\n      sload\n      dup1\n      swap3\n      swap2\n      swap1\n      tag_83\n      swap1\n      tag_84\n      jump\t// in\n    tag_83:\n      swap2\n      swap1\n      pop\n      sstore\n      pop\n        /* \"backend/contracts/lottery.sol\":2965:2986  LotteryState.Finished */\n      0x03\n        /* \"backend/contracts/lottery.sol\":2950:2962  currentState */\n      0x09\n      0x00\n        /* \"backend/contracts/lottery.sol\":2950:2986  currentState = LotteryState.Finished */\n      0x0100\n      exp\n      dup2\n      sload\n      dup2\n      0xff\n      mul\n      not\n      and\n      swap1\n      dup4\n      0x03\n      dup2\n      gt\n      iszero\n      tag_85\n      jumpi\n      tag_86\n      tag_62\n      jump\t// in\n    tag_86:\n    tag_85:\n      mul\n      or\n      swap1\n      sstore\n      pop\n        /* \"backend/contracts/lottery.sol\":3001:3010  uint256 i */\n      0x00\n        /* \"backend/contracts/lottery.sol\":2996:3250  for (uint256 i = 0; i < players.length; i++) {... */\n    tag_87:\n        /* \"backend/contracts/lottery.sol\":3020:3027  players */\n      0x01\n        /* \"backend/contracts/lottery.sol\":3020:3034  players.length */\n      dup1\n      sload\n      swap1\n      pop\n        /* \"backend/contracts/lottery.sol\":3016:3017  i */\n      dup2\n        /* \"backend/contracts/lottery.sol\":3016:3034  i < players.length */\n      lt\n        /* \"backend/contracts/lottery.sol\":2996:3250  for (uint256 i = 0; i < players.length; i++) {... */\n      iszero\n      tag_88\n      jumpi\n        /* \"backend/contracts/lottery.sol\":3073:3079  winner */\n      0x02\n      0x00\n      swap1\n      sload\n      swap1\n      0x0100\n      exp\n      swap1\n      div\n      0xffffffffffffffffffffffffffffffffffffffff\n      and\n        /* \"backend/contracts/lottery.sol\":3059:3079  players[i] == winner */\n      0xffffffffffffffffffffffffffffffffffffffff\n      and\n        /* \"backend/contracts/lottery.sol\":3059:3066  players */\n      0x01\n        /* \"backend/contracts/lottery.sol\":3067:3068  i */\n      dup3\n        /* \"backend/contracts/lottery.sol\":3059:3069  players[i] */\n      dup2\n      sload\n      dup2\n      lt\n      tag_90\n      jumpi\n      tag_91\n      tag_81\n      jump\t// in\n    tag_91:\n    tag_90:\n      swap1\n      0x00\n      mstore\n      keccak256(0x00, 0x20)\n      add\n      0x00\n      swap1\n      sload\n      swap1\n      0x0100\n      exp\n      swap1\n      div\n      0xffffffffffffffffffffffffffffffffffffffff\n      and\n        /* \"backend/contracts/lottery.sol\":3059:3079  players[i] == winner */\n      0xffffffffffffffffffffffffffffffffffffffff\n      and\n      sub\n        /* \"backend/contracts/lottery.sol\":3055:3240  if (players[i] == winner) {... */\n      tag_93\n      jumpi\n        /* \"backend/contracts/lottery.sol\":3099:3110  lastWinners */\n      0x0a\n        /* \"backend/contracts/lottery.sol\":3116:3141  LastWinners(winner, true) */\n      mload(0x40)\n      dup1\n      0x40\n      add\n      0x40\n      mstore\n      dup1\n        /* \"backend/contracts/lottery.sol\":3128:3134  winner */\n      0x02\n      0x00\n      swap1\n      sload\n      swap1\n      0x0100\n      exp\n      swap1\n      div\n      0xffffffffffffffffffffffffffffffffffffffff\n      and\n        /* \"backend/contracts/lottery.sol\":3116:3141  LastWinners(winner, true) */\n      0xffffffffffffffffffffffffffffffffffffffff\n      and\n      dup2\n      mstore\n      0x20\n      add\n        /* \"backend/contracts/lottery.sol\":3136:3140  true */\n      0x01\n        /* \"backend/contracts/lottery.sol\":3116:3141  LastWinners(winner, true) */\n      iszero\n      iszero\n      dup2\n      mstore\n      pop\n        /* \"backend/contracts/lottery.sol\":3099:3142  lastWinners.push(LastWinners(winner, true)) */\n      swap1\n      dup1\n      0x01\n      dup2\n      sload\n      add\n      dup1\n      dup3\n      sstore\n      dup1\n      swap2\n      pop\n      pop\n      0x01\n      swap1\n      sub\n      swap1\n      0x00\n      mstore\n      keccak256(0x00, 0x20)\n      add\n      0x00\n      swap1\n      swap2\n      swap1\n      swap2\n      swap1\n      swap2\n      pop\n      0x00\n      dup3\n      add\n      mload\n      dup2\n      0x00\n      add\n      exp(0x0100, 0x00)\n      dup2\n      sload\n      dup2\n      0xffffffffffffffffffffffffffffffffffffffff\n      mul\n      not\n      and\n      swap1\n      dup4\n      0xffffffffffffffffffffffffffffffffffffffff\n      and\n      mul\n      or\n      swap1\n      sstore\n      pop\n      0x20\n      dup3\n      add\n      mload\n      dup2\n      0x00\n      add\n      exp(0x0100, 0x14)\n      dup2\n      sload\n      dup2\n      0xff\n      mul\n      not\n      and\n      swap1\n      dup4\n      iszero\n      iszero\n      mul\n      or\n      swap1\n      sstore\n      pop\n      pop\n      pop\n        /* \"backend/contracts/lottery.sol\":3055:3240  if (players[i] == winner) {... */\n      jump(tag_95)\n    tag_93:\n        /* \"backend/contracts/lottery.sol\":3181:3192  lastWinners */\n      0x0a\n        /* \"backend/contracts/lottery.sol\":3198:3224  LastWinners(winner, false) */\n      mload(0x40)\n      dup1\n      0x40\n      add\n      0x40\n      mstore\n      dup1\n        /* \"backend/contracts/lottery.sol\":3210:3216  winner */\n      0x02\n      0x00\n      swap1\n      sload\n      swap1\n      0x0100\n      exp\n      swap1\n      div\n      0xffffffffffffffffffffffffffffffffffffffff\n      and\n        /* \"backend/contracts/lottery.sol\":3198:3224  LastWinners(winner, false) */\n      0xffffffffffffffffffffffffffffffffffffffff\n      and\n      dup2\n      mstore\n      0x20\n      add\n        /* \"backend/contracts/lottery.sol\":3218:3223  false */\n      0x00\n        /* \"backend/contracts/lottery.sol\":3198:3224  LastWinners(winner, false) */\n      iszero\n      iszero\n      dup2\n      mstore\n      pop\n        /* \"backend/contracts/lottery.sol\":3181:3225  lastWinners.push(LastWinners(winner, false)) */\n      swap1\n      dup1\n      0x01\n      dup2\n      sload\n      add\n      dup1\n      dup3\n      sstore\n      dup1\n      swap2\n      pop\n      pop\n      0x01\n      swap1\n      sub\n      swap1\n      0x00\n      mstore\n      keccak256(0x00, 0x20)\n      add\n      0x00\n      swap1\n      swap2\n      swap1\n      swap2\n      swap1\n      swap2\n      pop\n      0x00\n      dup3\n      add\n      mload\n      dup2\n      0x00\n      add\n      exp(0x0100, 0x00)\n      dup2\n      sload\n      dup2\n      0xffffffffffffffffffffffffffffffffffffffff\n      mul\n      not\n      and\n      swap1\n      dup4\n      0xffffffffffffffffffffffffffffffffffffffff\n      and\n      mul\n      or\n      swap1\n      sstore\n      pop\n      0x20\n      dup3\n      add\n      mload\n      dup2\n      0x00\n      add\n      exp(0x0100, 0x14)\n      dup2\n      sload\n      dup2\n      0xff\n      mul\n      not\n      and\n      swap1\n      dup4\n      iszero\n      iszero\n      mul\n      or\n      swap1\n      sstore\n      pop\n      pop\n      pop\n        /* \"backend/contracts/lottery.sol\":3055:3240  if (players[i] == winner) {... */\n    tag_95:\n        /* \"backend/contracts/lottery.sol\":3036:3039  i++ */\n      dup1\n      dup1\n      tag_97\n      swap1\n      tag_84\n      jump\t// in\n    tag_97:\n      swap2\n      pop\n      pop\n        /* \"backend/contracts/lottery.sol\":2996:3250  for (uint256 i = 0; i < players.length; i++) {... */\n      jump(tag_87)\n    tag_88:\n      pop\n        /* \"backend/contracts/lottery.sol\":3277:3283  winner */\n      0x02\n      0x00\n      swap1\n      sload\n      swap1\n      0x0100\n      exp\n      swap1\n      div\n      0xffffffffffffffffffffffffffffffffffffffff\n      and\n        /* \"backend/contracts/lottery.sol\":3264:3284  WinnerPicked(winner) */\n      0xffffffffffffffffffffffffffffffffffffffff\n      and\n      0x5b690ec4a06fe979403046eaeea5b3ce38524683c3001f662c8b5a829632f7df\n      mload(0x40)\n      mload(0x40)\n      dup1\n      swap2\n      sub\n      swap1\n      log2\n        /* \"backend/contracts/lottery.sol\":3302:3308  winner */\n      0x02\n      0x00\n      swap1\n      sload\n      swap1\n      0x0100\n      exp\n      swap1\n      div\n      0xffffffffffffffffffffffffffffffffffffffff\n      and\n        /* \"backend/contracts/lottery.sol\":3294:3318  payable(winner).transfer */\n      0xffffffffffffffffffffffffffffffffffffffff\n      and\n        /* \"backend/contracts/lottery.sol\":3294:3341  payable(winner).transfer(address(this).balance) */\n      0x08fc\n        /* \"backend/contracts/lottery.sol\":3319:3340  address(this).balance */\n      selfbalance\n        /* \"backend/contracts/lottery.sol\":3294:3341  payable(winner).transfer(address(this).balance) */\n      swap1\n      dup2\n      iszero\n      mul\n      swap1\n      mload(0x40)\n      0x00\n      mload(0x40)\n      dup1\n      dup4\n      sub\n      dup2\n      dup6\n      dup9\n      dup9\n      call\n      swap4\n      pop\n      pop\n      pop\n      pop\n      iszero\n      dup1\n      iszero\n      tag_99\n      jumpi\n      returndatasize\n      0x00\n      dup1\n      returndatacopy\n      revert(0x00, returndatasize)\n    tag_99:\n      pop\n        /* \"backend/contracts/lottery.sol\":3358:3365  players */\n      0x01\n      0x00\n        /* \"backend/contracts/lottery.sol\":3351:3365  delete players */\n      tag_100\n      swap2\n      swap1\n      tag_101\n      jump\t// in\n    tag_100:\n        /* \"backend/contracts/lottery.sol\":2533:3372  {... */\n      pop\n        /* \"backend/contracts/lottery.sol\":2493:3372  function pickWinner() public restricted {... */\n      jump\t// out\n        /* \"backend/contracts/lottery.sol\":4173:4487  function hasPlayerEntered(address player) public view returns (bool) {... */\n    tag_29:\n        /* \"backend/contracts/lottery.sol\":4236:4240  bool */\n      0x00\n        /* \"backend/contracts/lottery.sol\":4257:4266  uint256 i */\n      dup1\n        /* \"backend/contracts/lottery.sol\":4269:4270  0 */\n      0x00\n        /* \"backend/contracts/lottery.sol\":4257:4270  uint256 i = 0 */\n      swap1\n      pop\n        /* \"backend/contracts/lottery.sol\":4252:4423  for (uint256 i = 0; i < players.length; i++) {... */\n    tag_103:\n        /* \"backend/contracts/lottery.sol\":4276:4283  players */\n      0x01\n        /* \"backend/contracts/lottery.sol\":4276:4290  players.length */\n      dup1\n      sload\n      swap1\n      pop\n        /* \"backend/contracts/lottery.sol\":4272:4273  i */\n      dup2\n        /* \"backend/contracts/lottery.sol\":4272:4290  i < players.length */\n      lt\n        /* \"backend/contracts/lottery.sol\":4252:4423  for (uint256 i = 0; i < players.length; i++) {... */\n      iszero\n      tag_104\n      jumpi\n        /* \"backend/contracts/lottery.sol\":4329:4335  player */\n      dup3\n        /* \"backend/contracts/lottery.sol\":4315:4335  players[i] == player */\n      0xffffffffffffffffffffffffffffffffffffffff\n      and\n        /* \"backend/contracts/lottery.sol\":4315:4322  players */\n      0x01\n        /* \"backend/contracts/lottery.sol\":4323:4324  i */\n      dup3\n        /* \"backend/contracts/lottery.sol\":4315:4325  players[i] */\n      dup2\n      sload\n      dup2\n      lt\n      tag_106\n      jumpi\n      tag_107\n      tag_81\n      jump\t// in\n    tag_107:\n    tag_106:\n      swap1\n      0x00\n      mstore\n      keccak256(0x00, 0x20)\n      add\n      0x00\n      swap1\n      sload\n      swap1\n      0x0100\n      exp\n      swap1\n      div\n      0xffffffffffffffffffffffffffffffffffffffff\n      and\n        /* \"backend/contracts/lottery.sol\":4315:4335  players[i] == player */\n      0xffffffffffffffffffffffffffffffffffffffff\n      and\n      sub\n        /* \"backend/contracts/lottery.sol\":4311:4413  if (players[i] == player) {... */\n      tag_109\n      jumpi\n        /* \"backend/contracts/lottery.sol\":4362:4366  true */\n      0x01\n        /* \"backend/contracts/lottery.sol\":4355:4366  return true */\n      swap2\n      pop\n      pop\n      jump(tag_102)\n        /* \"backend/contracts/lottery.sol\":4311:4413  if (players[i] == player) {... */\n    tag_109:\n        /* \"backend/contracts/lottery.sol\":4292:4295  i++ */\n      dup1\n      dup1\n      tag_110\n      swap1\n      tag_84\n      jump\t// in\n    tag_110:\n      swap2\n      pop\n      pop\n        /* \"backend/contracts/lottery.sol\":4252:4423  for (uint256 i = 0; i < players.length; i++) {... */\n      jump(tag_103)\n    tag_104:\n      pop\n        /* \"backend/contracts/lottery.sol\":4439:4444  false */\n      0x00\n        /* \"backend/contracts/lottery.sol\":4432:4444  return false */\n      swap1\n      pop\n        /* \"backend/contracts/lottery.sol\":4173:4487  function hasPlayerEntered(address player) public view returns (bool) {... */\n    tag_102:\n      swap2\n      swap1\n      pop\n      jump\t// out\n        /* \"backend/contracts/lottery.sol\":3963:4063  function getPlayers() public view returns (address payable[] memory) {... */\n    tag_34:\n        /* \"backend/contracts/lottery.sol\":4006:4030  address payable[] memory */\n      0x60\n        /* \"backend/contracts/lottery.sol\":4049:4056  players */\n      0x01\n        /* \"backend/contracts/lottery.sol\":4042:4056  return players */\n      dup1\n      sload\n      dup1\n      0x20\n      mul\n      0x20\n      add\n      mload(0x40)\n      swap1\n      dup2\n      add\n      0x40\n      mstore\n      dup1\n      swap3\n      swap2\n      swap1\n      dup2\n      dup2\n      mstore\n      0x20\n      add\n      dup3\n      dup1\n      sload\n      dup1\n      iszero\n      tag_112\n      jumpi\n      0x20\n      mul\n      dup3\n      add\n      swap2\n      swap1\n      0x00\n      mstore\n      keccak256(0x00, 0x20)\n      swap1\n    tag_113:\n      dup2\n      0x00\n      swap1\n      sload\n      swap1\n      0x0100\n      exp\n      swap1\n      div\n      0xffffffffffffffffffffffffffffffffffffffff\n      and\n      0xffffffffffffffffffffffffffffffffffffffff\n      and\n      dup2\n      mstore\n      0x20\n      add\n      swap1\n      0x01\n      add\n      swap1\n      dup1\n      dup4\n      gt\n      tag_113\n      jumpi\n    tag_112:\n      pop\n      pop\n      pop\n      pop\n      pop\n      swap1\n      pop\n        /* \"backend/contracts/lottery.sol\":3963:4063  function getPlayers() public view returns (address payable[] memory) {... */\n      swap1\n      jump\t// out\n        /* \"backend/contracts/lottery.sol\":1393:2487  function enter(uint256 _ticketPrice) public payable {... */\n    tag_40:\n        /* \"backend/contracts/lottery.sol\":1474:1489  block.timestamp */\n      timestamp\n        /* \"backend/contracts/lottery.sol\":1459:1471  timeoutStamp */\n      sload(0x08)\n        /* \"backend/contracts/lottery.sol\":1459:1489  timeoutStamp > block.timestamp */\n      gt\n        /* \"backend/contracts/lottery.sol\":1455:1841  if (timeoutStamp > block.timestamp) {... */\n      iszero\n      tag_115\n      jumpi\n        /* \"backend/contracts/lottery.sol\":1505:1530  string memory secondsLeft */\n      0x00\n        /* \"backend/contracts/lottery.sol\":1533:1554  getTimoutDifference() */\n      tag_116\n        /* \"backend/contracts/lottery.sol\":1533:1552  getTimoutDifference */\n      tag_117\n        /* \"backend/contracts/lottery.sol\":1533:1554  getTimoutDifference() */\n      jump\t// in\n    tag_116:\n        /* \"backend/contracts/lottery.sol\":1505:1554  string memory secondsLeft = getTimoutDifference() */\n      swap1\n      pop\n        /* \"backend/contracts/lottery.sol\":1568:1585  string memory err */\n      0x00\n        /* \"backend/contracts/lottery.sol\":1729:1740  secondsLeft */\n      dup2\n        /* \"backend/contracts/lottery.sol\":1612:1758  abi.encodePacked(... */\n      add(0x20, mload(0x40))\n      tag_118\n      swap2\n      swap1\n      tag_119\n      jump\t// in\n    tag_118:\n      mload(0x40)\n      0x20\n      dup2\n      dup4\n      sub\n      sub\n      dup2\n      mstore\n      swap1\n      0x40\n      mstore\n        /* \"backend/contracts/lottery.sol\":1568:1772  string memory err = string(... */\n      swap1\n      pop\n        /* \"backend/contracts/lottery.sol\":1812:1824  timeoutStamp */\n      sload(0x08)\n        /* \"backend/contracts/lottery.sol\":1794:1809  block.timestamp */\n      timestamp\n        /* \"backend/contracts/lottery.sol\":1794:1824  block.timestamp > timeoutStamp */\n      gt\n        /* \"backend/contracts/lottery.sol\":1826:1829  err */\n      dup2\n        /* \"backend/contracts/lottery.sol\":1786:1830  require(block.timestamp > timeoutStamp, err) */\n      swap1\n      tag_120\n      jumpi\n      mload(0x40)\n      0x08c379a000000000000000000000000000000000000000000000000000000000\n      dup2\n      mstore\n      0x04\n      add\n      tag_121\n      swap2\n      swap1\n      tag_122\n      jump\t// in\n    tag_121:\n      mload(0x40)\n      dup1\n      swap2\n      sub\n      swap1\n      revert\n    tag_120:\n      pop\n        /* \"backend/contracts/lottery.sol\":1491:1841  {... */\n      pop\n      pop\n        /* \"backend/contracts/lottery.sol\":1455:1841  if (timeoutStamp > block.timestamp) {... */\n    tag_115:\n        /* \"backend/contracts/lottery.sol\":1887:1898  ticketPrice */\n      sload(0x03)\n        /* \"backend/contracts/lottery.sol\":1871:1883  _ticketPrice */\n      dup2\n        /* \"backend/contracts/lottery.sol\":1871:1898  _ticketPrice >= ticketPrice */\n      lt\n      iszero\n        /* \"backend/contracts/lottery.sol\":1850:1980  require(... */\n      tag_123\n      jumpi\n      mload(0x40)\n      0x08c379a000000000000000000000000000000000000000000000000000000000\n      dup2\n      mstore\n      0x04\n      add\n      tag_124\n      swap1\n      tag_125\n      jump\t// in\n    tag_124:\n      mload(0x40)\n      dup1\n      swap2\n      sub\n      swap1\n      revert\n    tag_123:\n        /* \"backend/contracts/lottery.sol\":2012:2016  this */\n      address\n        /* \"backend/contracts/lottery.sol\":2012:2033  this.hasPlayerEntered */\n      0xffffffffffffffffffffffffffffffffffffffff\n      and\n      0x680719bb\n        /* \"backend/contracts/lottery.sol\":2034:2044  msg.sender */\n      caller\n        /* \"backend/contracts/lottery.sol\":2012:2045  this.hasPlayerEntered(msg.sender) */\n      mload(0x40)\n      dup3\n      0xffffffff\n      and\n      0xe0\n      shl\n      dup2\n      mstore\n      0x04\n      add\n      tag_126\n      swap2\n      swap1\n      tag_127\n      jump\t// in\n    tag_126:\n      0x20\n      mload(0x40)\n      dup1\n      dup4\n      sub\n      dup2\n      dup7\n      gas\n      staticcall\n      iszero\n      dup1\n      iszero\n      tag_129\n      jumpi\n      returndatasize\n      0x00\n      dup1\n      returndatacopy\n      revert(0x00, returndatasize)\n    tag_129:\n      pop\n      pop\n      pop\n      pop\n      mload(0x40)\n      returndatasize\n      not(0x1f)\n      0x1f\n      dup3\n      add\n      and\n      dup3\n      add\n      dup1\n      0x40\n      mstore\n      pop\n      dup2\n      add\n      swap1\n      tag_130\n      swap2\n      swap1\n      tag_131\n      jump\t// in\n    tag_130:\n        /* \"backend/contracts/lottery.sol\":2011:2045  !this.hasPlayerEntered(msg.sender) */\n      iszero\n        /* \"backend/contracts/lottery.sol\":1990:2102  require(... */\n      tag_132\n      jumpi\n      mload(0x40)\n      0x08c379a000000000000000000000000000000000000000000000000000000000\n      dup2\n      mstore\n      0x04\n      add\n      tag_133\n      swap1\n      tag_134\n      jump\t// in\n    tag_133:\n      mload(0x40)\n      dup1\n      swap2\n      sub\n      swap1\n      revert\n    tag_132:\n        /* \"backend/contracts/lottery.sol\":2127:2144  LotteryState.Open */\n      0x00\n        /* \"backend/contracts/lottery.sol\":2112:2124  currentState */\n      0x09\n      0x00\n        /* \"backend/contracts/lottery.sol\":2112:2144  currentState = LotteryState.Open */\n      0x0100\n      exp\n      dup2\n      sload\n      dup2\n      0xff\n      mul\n      not\n      and\n      swap1\n      dup4\n      0x03\n      dup2\n      gt\n      iszero\n      tag_135\n      jumpi\n      tag_136\n      tag_62\n      jump\t// in\n    tag_136:\n    tag_135:\n      mul\n      or\n      swap1\n      sstore\n      pop\n        /* \"backend/contracts/lottery.sol\":2154:2161  players */\n      0x01\n        /* \"backend/contracts/lottery.sol\":2175:2185  msg.sender */\n      caller\n        /* \"backend/contracts/lottery.sol\":2154:2187  players.push(payable(msg.sender)) */\n      swap1\n      dup1\n      0x01\n      dup2\n      sload\n      add\n      dup1\n      dup3\n      sstore\n      dup1\n      swap2\n      pop\n      pop\n      0x01\n      swap1\n      sub\n      swap1\n      0x00\n      mstore\n      keccak256(0x00, 0x20)\n      add\n      0x00\n      swap1\n      swap2\n      swap1\n      swap2\n      swap1\n      swap2\n      0x0100\n      exp\n      dup2\n      sload\n      dup2\n      0xffffffffffffffffffffffffffffffffffffffff\n      mul\n      not\n      and\n      swap1\n      dup4\n      0xffffffffffffffffffffffffffffffffffffffff\n      and\n      mul\n      or\n      swap1\n      sstore\n      pop\n        /* \"backend/contracts/lottery.sol\":2197:2208  ticketCount */\n      0x05\n      0x00\n        /* \"backend/contracts/lottery.sol\":2197:2210  ticketCount++ */\n      dup2\n      sload\n      dup1\n      swap3\n      swap2\n      swap1\n      tag_138\n      swap1\n      tag_84\n      jump\t// in\n    tag_138:\n      swap2\n      swap1\n      pop\n      sstore\n      pop\n        /* \"backend/contracts/lottery.sol\":2242:2252  msg.sender */\n      caller\n        /* \"backend/contracts/lottery.sol\":2225:2253  NewPlayerEntered(msg.sender) */\n      0xffffffffffffffffffffffffffffffffffffffff\n      and\n      0xb99735857dcdc72249cabb2a63977805de8a83268ff5f84700cd9da7017130c5\n      mload(0x40)\n      mload(0x40)\n      dup1\n      swap2\n      sub\n      swap1\n      log2\n        /* \"backend/contracts/lottery.sol\":2283:2297  minimumPlayers */\n      sload(0x04)\n        /* \"backend/contracts/lottery.sol\":2268:2279  ticketCount */\n      sload(0x05)\n        /* \"backend/contracts/lottery.sol\":2268:2297  ticketCount >= minimumPlayers */\n      lt\n        /* \"backend/contracts/lottery.sol\":2264:2481  if (ticketCount >= minimumPlayers) {... */\n      tag_139\n      jumpi\n        /* \"backend/contracts/lottery.sol\":2328:2347  LotteryState.Closed */\n      0x01\n        /* \"backend/contracts/lottery.sol\":2313:2325  currentState */\n      0x09\n      0x00\n        /* \"backend/contracts/lottery.sol\":2313:2347  currentState = LotteryState.Closed */\n      0x0100\n      exp\n      dup2\n      sload\n      dup2\n      0xff\n      mul\n      not\n      and\n      swap1\n      dup4\n      0x03\n      dup2\n      gt\n      iszero\n      tag_140\n      jumpi\n      tag_141\n      tag_62\n      jump\t// in\n    tag_141:\n    tag_140:\n      mul\n      or\n      swap1\n      sstore\n      pop\n        /* \"backend/contracts/lottery.sol\":2366:2381  LotteryClosed() */\n      0xfc2b180437972a94a98d643b705025c6263c595cce057cc3d910384b8d1d210c\n      mload(0x40)\n      mload(0x40)\n      dup1\n      swap2\n      sub\n      swap1\n      log1\n        /* \"backend/contracts/lottery.sol\":2395:2407  pickWinner() */\n      tag_142\n        /* \"backend/contracts/lottery.sol\":2395:2405  pickWinner */\n      tag_24\n        /* \"backend/contracts/lottery.sol\":2395:2407  pickWinner() */\n      jump\t// in\n    tag_142:\n        /* \"backend/contracts/lottery.sol\":2454:2470  timeoutToRestart */\n      sload(0x07)\n        /* \"backend/contracts/lottery.sol\":2436:2451  block.timestamp */\n      timestamp\n        /* \"backend/contracts/lottery.sol\":2436:2470  block.timestamp + timeoutToRestart */\n      tag_143\n      swap2\n      swap1\n      tag_78\n      jump\t// in\n    tag_143:\n        /* \"backend/contracts/lottery.sol\":2421:2433  timeoutStamp */\n      0x08\n        /* \"backend/contracts/lottery.sol\":2421:2470  timeoutStamp = block.timestamp + timeoutToRestart */\n      dup2\n      swap1\n      sstore\n      pop\n        /* \"backend/contracts/lottery.sol\":2264:2481  if (ticketCount >= minimumPlayers) {... */\n    tag_139:\n        /* \"backend/contracts/lottery.sol\":1393:2487  function enter(uint256 _ticketPrice) public payable {... */\n      pop\n      jump\t// out\n        /* \"backend/contracts/lottery.sol\":4493:4865  function checkIfWinner() public view returns (LastWinners memory myPlayer) {... */\n    tag_43:\n        /* \"backend/contracts/lottery.sol\":4539:4566  LastWinners memory myPlayer */\n      tag_144\n      tag_145\n      jump\t// in\n    tag_144:\n        /* \"backend/contracts/lottery.sol\":4607:4608  0 */\n      0x00\n        /* \"backend/contracts/lottery.sol\":4586:4597  lastWinners */\n      0x0a\n        /* \"backend/contracts/lottery.sol\":4586:4604  lastWinners.length */\n      dup1\n      sload\n      swap1\n      pop\n        /* \"backend/contracts/lottery.sol\":4586:4608  lastWinners.length > 0 */\n      gt\n        /* \"backend/contracts/lottery.sol\":4578:4638  require(lastWinners.length > 0, \"There are no Winners yet.\") */\n      tag_147\n      jumpi\n      mload(0x40)\n      0x08c379a000000000000000000000000000000000000000000000000000000000\n      dup2\n      mstore\n      0x04\n      add\n      tag_148\n      swap1\n      tag_149\n      jump\t// in\n    tag_148:\n      mload(0x40)\n      dup1\n      swap2\n      sub\n      swap1\n      revert\n    tag_147:\n        /* \"backend/contracts/lottery.sol\":4653:4662  uint256 i */\n      0x00\n        /* \"backend/contracts/lottery.sol\":4648:4812  for (uint256 i = 0; i < lastWinners.length; i++) {... */\n    tag_150:\n        /* \"backend/contracts/lottery.sol\":4672:4683  lastWinners */\n      0x0a\n        /* \"backend/contracts/lottery.sol\":4672:4690  lastWinners.length */\n      dup1\n      sload\n      swap1\n      pop\n        /* \"backend/contracts/lottery.sol\":4668:4669  i */\n      dup2\n        /* \"backend/contracts/lottery.sol\":4668:4690  i < lastWinners.length */\n      lt\n        /* \"backend/contracts/lottery.sol\":4648:4812  for (uint256 i = 0; i < lastWinners.length; i++) {... */\n      iszero\n      tag_151\n      jumpi\n        /* \"backend/contracts/lottery.sol\":4736:4746  msg.sender */\n      caller\n        /* \"backend/contracts/lottery.sol\":4715:4746  lastWinners[i].id == msg.sender */\n      0xffffffffffffffffffffffffffffffffffffffff\n      and\n        /* \"backend/contracts/lottery.sol\":4715:4726  lastWinners */\n      0x0a\n        /* \"backend/contracts/lottery.sol\":4727:4728  i */\n      dup3\n        /* \"backend/contracts/lottery.sol\":4715:4729  lastWinners[i] */\n      dup2\n      sload\n      dup2\n      lt\n      tag_153\n      jumpi\n      tag_154\n      tag_81\n      jump\t// in\n    tag_154:\n    tag_153:\n      swap1\n      0x00\n      mstore\n      keccak256(0x00, 0x20)\n      add\n        /* \"backend/contracts/lottery.sol\":4715:4732  lastWinners[i].id */\n      0x00\n      add\n      0x00\n      swap1\n      sload\n      swap1\n      0x0100\n      exp\n      swap1\n      div\n      0xffffffffffffffffffffffffffffffffffffffff\n      and\n        /* \"backend/contracts/lottery.sol\":4715:4746  lastWinners[i].id == msg.sender */\n      0xffffffffffffffffffffffffffffffffffffffff\n      and\n      sub\n        /* \"backend/contracts/lottery.sol\":4711:4802  if (lastWinners[i].id == msg.sender) {... */\n      tag_156\n      jumpi\n        /* \"backend/contracts/lottery.sol\":4773:4784  lastWinners */\n      0x0a\n        /* \"backend/contracts/lottery.sol\":4785:4786  i */\n      dup2\n        /* \"backend/contracts/lottery.sol\":4773:4787  lastWinners[i] */\n      dup2\n      sload\n      dup2\n      lt\n      tag_157\n      jumpi\n      tag_158\n      tag_81\n      jump\t// in\n    tag_158:\n    tag_157:\n      swap1\n      0x00\n      mstore\n      keccak256(0x00, 0x20)\n      add\n        /* \"backend/contracts/lottery.sol\":4766:4787  return lastWinners[i] */\n      mload(0x40)\n      dup1\n      0x40\n      add\n      0x40\n      mstore\n      swap1\n      dup2\n      0x00\n      dup3\n      add\n      0x00\n      swap1\n      sload\n      swap1\n      0x0100\n      exp\n      swap1\n      div\n      0xffffffffffffffffffffffffffffffffffffffff\n      and\n      0xffffffffffffffffffffffffffffffffffffffff\n      and\n      0xffffffffffffffffffffffffffffffffffffffff\n      and\n      dup2\n      mstore\n      0x20\n      add\n      0x00\n      dup3\n      add\n      0x14\n      swap1\n      sload\n      swap1\n      0x0100\n      exp\n      swap1\n      div\n      0xff\n      and\n      iszero\n      iszero\n      iszero\n      iszero\n      dup2\n      mstore\n      pop\n      pop\n      swap2\n      pop\n      pop\n      jump(tag_146)\n        /* \"backend/contracts/lottery.sol\":4711:4802  if (lastWinners[i].id == msg.sender) {... */\n    tag_156:\n        /* \"backend/contracts/lottery.sol\":4692:4695  i++ */\n      dup1\n      dup1\n      tag_160\n      swap1\n      tag_84\n      jump\t// in\n    tag_160:\n      swap2\n      pop\n      pop\n        /* \"backend/contracts/lottery.sol\":4648:4812  for (uint256 i = 0; i < lastWinners.length; i++) {... */\n      jump(tag_150)\n    tag_151:\n      pop\n        /* \"backend/contracts/lottery.sol\":4828:4858  LastWinners(address(0), false) */\n      mload(0x40)\n      dup1\n      0x40\n      add\n      0x40\n      mstore\n      dup1\n        /* \"backend/contracts/lottery.sol\":4848:4849  0 */\n      0x00\n        /* \"backend/contracts/lottery.sol\":4828:4858  LastWinners(address(0), false) */\n      0xffffffffffffffffffffffffffffffffffffffff\n      and\n      dup2\n      mstore\n      0x20\n      add\n        /* \"backend/contracts/lottery.sol\":4852:4857  false */\n      0x00\n        /* \"backend/contracts/lottery.sol\":4828:4858  LastWinners(address(0), false) */\n      iszero\n      iszero\n      dup2\n      mstore\n      pop\n        /* \"backend/contracts/lottery.sol\":4821:4858  return LastWinners(address(0), false) */\n      swap1\n      pop\n        /* \"backend/contracts/lottery.sol\":4493:4865  function checkIfWinner() public view returns (LastWinners memory myPlayer) {... */\n    tag_146:\n      swap1\n      jump\t// out\n        /* \"backend/contracts/lottery.sol\":263:289  uint256 public ticketCount */\n    tag_48:\n      sload(0x05)\n      dup2\n      jump\t// out\n        /* \"backend/contracts/lottery.sol\":228:257  uint256 public minimumPlayers */\n    tag_52:\n      sload(0x04)\n      dup2\n      jump\t// out\n        /* \"backend/contracts/lottery.sol\":3378:3712  function random() private view returns (uint256) {... */\n    tag_74:\n        /* \"backend/contracts/lottery.sol\":3418:3425  uint256 */\n      0x00\n        /* \"backend/contracts/lottery.sol\":3554:3570  block.prevrandao */\n      prevrandao\n        /* \"backend/contracts/lottery.sol\":3596:3611  block.timestamp */\n      timestamp\n        /* \"backend/contracts/lottery.sol\":3637:3644  players */\n      0x01\n        /* \"backend/contracts/lottery.sol\":3637:3651  players.length */\n      dup1\n      sload\n      swap1\n      pop\n        /* \"backend/contracts/lottery.sol\":3512:3673  abi.encodePacked(... */\n      add(0x20, mload(0x40))\n      tag_162\n      swap4\n      swap3\n      swap2\n      swap1\n      tag_163\n      jump\t// in\n    tag_162:\n      mload(0x40)\n      0x20\n      dup2\n      dup4\n      sub\n      sub\n      dup2\n      mstore\n      swap1\n      0x40\n      mstore\n        /* \"backend/contracts/lottery.sol\":3481:3691  keccak256(... */\n      dup1\n      mload\n      swap1\n      0x20\n      add\n      keccak256\n        /* \"backend/contracts/lottery.sol\":3456:3705  uint256(... */\n      0x00\n      shr\n        /* \"backend/contracts/lottery.sol\":3437:3705  return... */\n      swap1\n      pop\n        /* \"backend/contracts/lottery.sol\":3378:3712  function random() private view returns (uint256) {... */\n      swap1\n      jump\t// out\n        /* \"backend/contracts/lottery.sol\":3718:3957  function getTimoutDifference()... */\n    tag_117:\n        /* \"backend/contracts/lottery.sol\":3795:3817  string memory timeLeft */\n      0x60\n        /* \"backend/contracts/lottery.sol\":3908:3923  block.timestamp */\n      timestamp\n        /* \"backend/contracts/lottery.sol\":3893:3905  timeoutStamp */\n      sload(0x08)\n        /* \"backend/contracts/lottery.sol\":3893:3923  timeoutStamp - block.timestamp */\n      tag_165\n      swap2\n      swap1\n      tag_72\n      jump\t// in\n    tag_165:\n        /* \"backend/contracts/lottery.sol\":3876:3936  abi.encodePacked(timeoutStamp - block.timestamp, \" seconds\") */\n      add(0x20, mload(0x40))\n      tag_166\n      swap2\n      swap1\n      tag_167\n      jump\t// in\n    tag_166:\n      mload(0x40)\n      0x20\n      dup2\n      dup4\n      sub\n      sub\n      dup2\n      mstore\n      swap1\n      0x40\n      mstore\n        /* \"backend/contracts/lottery.sol\":3833:3950  return... */\n      swap1\n      pop\n        /* \"backend/contracts/lottery.sol\":3718:3957  function getTimoutDifference()... */\n      swap1\n      jump\t// out\n    tag_101:\n      pop\n      dup1\n      sload\n      0x00\n      dup3\n      sstore\n      swap1\n      0x00\n      mstore\n      keccak256(0x00, 0x20)\n      swap1\n      dup2\n      add\n      swap1\n      tag_169\n      swap2\n      swap1\n      tag_170\n      jump\t// in\n    tag_169:\n      pop\n      jump\t// out\n    tag_145:\n      mload(0x40)\n      dup1\n      0x40\n      add\n      0x40\n      mstore\n      dup1\n      and(0xffffffffffffffffffffffffffffffffffffffff, 0x00)\n      dup2\n      mstore\n      0x20\n      add\n      iszero(iszero(0x00))\n      dup2\n      mstore\n      pop\n      swap1\n      jump\t// out\n    tag_170:\n    tag_171:\n      dup1\n      dup3\n      gt\n      iszero\n      tag_172\n      jumpi\n      0x00\n      dup2\n      0x00\n      swap1\n      sstore\n      pop\n      0x01\n      add\n      jump(tag_171)\n    tag_172:\n      pop\n      swap1\n      jump\t// out\n        /* \"#utility.yul\":7:84   */\n    tag_173:\n        /* \"#utility.yul\":44:51   */\n      0x00\n        /* \"#utility.yul\":73:78   */\n      dup2\n        /* \"#utility.yul\":62:78   */\n      swap1\n      pop\n        /* \"#utility.yul\":7:84   */\n      swap2\n      swap1\n      pop\n      jump\t// out\n        /* \"#utility.yul\":90:208   */\n    tag_174:\n        /* \"#utility.yul\":177:201   */\n      tag_234\n        /* \"#utility.yul\":195:200   */\n      dup2\n        /* \"#utility.yul\":177:201   */\n      tag_173\n      jump\t// in\n    tag_234:\n        /* \"#utility.yul\":172:175   */\n      dup3\n        /* \"#utility.yul\":165:202   */\n      mstore\n        /* \"#utility.yul\":90:208   */\n      pop\n      pop\n      jump\t// out\n        /* \"#utility.yul\":214:436   */\n    tag_16:\n        /* \"#utility.yul\":307:311   */\n      0x00\n        /* \"#utility.yul\":345:347   */\n      0x20\n        /* \"#utility.yul\":334:343   */\n      dup3\n        /* \"#utility.yul\":330:348   */\n      add\n        /* \"#utility.yul\":322:348   */\n      swap1\n      pop\n        /* \"#utility.yul\":358:429   */\n      tag_236\n        /* \"#utility.yul\":426:427   */\n      0x00\n        /* \"#utility.yul\":415:424   */\n      dup4\n        /* \"#utility.yul\":411:428   */\n      add\n        /* \"#utility.yul\":402:408   */\n      dup5\n        /* \"#utility.yul\":358:429   */\n      tag_174\n      jump\t// in\n    tag_236:\n        /* \"#utility.yul\":214:436   */\n      swap3\n      swap2\n      pop\n      pop\n      jump\t// out\n        /* \"#utility.yul\":442:622   */\n    tag_62:\n        /* \"#utility.yul\":490:567   */\n      0x4e487b7100000000000000000000000000000000000000000000000000000000\n        /* \"#utility.yul\":487:488   */\n      0x00\n        /* \"#utility.yul\":480:568   */\n      mstore\n        /* \"#utility.yul\":587:591   */\n      0x21\n        /* \"#utility.yul\":584:585   */\n      0x04\n        /* \"#utility.yul\":577:592   */\n      mstore\n        /* \"#utility.yul\":611:615   */\n      0x24\n        /* \"#utility.yul\":608:609   */\n      0x00\n        /* \"#utility.yul\":601:616   */\n      revert\n        /* \"#utility.yul\":628:748   */\n    tag_175:\n        /* \"#utility.yul\":716:717   */\n      0x04\n        /* \"#utility.yul\":709:714   */\n      dup2\n        /* \"#utility.yul\":706:718   */\n      lt\n        /* \"#utility.yul\":696:742   */\n      tag_239\n      jumpi\n        /* \"#utility.yul\":722:740   */\n      tag_240\n      tag_62\n      jump\t// in\n    tag_240:\n        /* \"#utility.yul\":696:742   */\n    tag_239:\n        /* \"#utility.yul\":628:748   */\n      pop\n      jump\t// out\n        /* \"#utility.yul\":754:895   */\n    tag_176:\n        /* \"#utility.yul\":806:813   */\n      0x00\n        /* \"#utility.yul\":835:840   */\n      dup2\n        /* \"#utility.yul\":824:840   */\n      swap1\n      pop\n        /* \"#utility.yul\":841:889   */\n      tag_242\n        /* \"#utility.yul\":883:888   */\n      dup3\n        /* \"#utility.yul\":841:889   */\n      tag_175\n      jump\t// in\n    tag_242:\n        /* \"#utility.yul\":754:895   */\n      swap2\n      swap1\n      pop\n      jump\t// out\n        /* \"#utility.yul\":901:1042   */\n    tag_177:\n        /* \"#utility.yul\":964:973   */\n      0x00\n        /* \"#utility.yul\":997:1036   */\n      tag_244\n        /* \"#utility.yul\":1030:1035   */\n      dup3\n        /* \"#utility.yul\":997:1036   */\n      tag_176\n      jump\t// in\n    tag_244:\n        /* \"#utility.yul\":984:1036   */\n      swap1\n      pop\n        /* \"#utility.yul\":901:1042   */\n      swap2\n      swap1\n      pop\n      jump\t// out\n        /* \"#utility.yul\":1048:1205   */\n    tag_178:\n        /* \"#utility.yul\":1148:1198   */\n      tag_246\n        /* \"#utility.yul\":1192:1197   */\n      dup2\n        /* \"#utility.yul\":1148:1198   */\n      tag_177\n      jump\t// in\n    tag_246:\n        /* \"#utility.yul\":1143:1146   */\n      dup3\n        /* \"#utility.yul\":1136:1199   */\n      mstore\n        /* \"#utility.yul\":1048:1205   */\n      pop\n      pop\n      jump\t// out\n        /* \"#utility.yul\":1211:1459   */\n    tag_21:\n        /* \"#utility.yul\":1317:1321   */\n      0x00\n        /* \"#utility.yul\":1355:1357   */\n      0x20\n        /* \"#utility.yul\":1344:1353   */\n      dup3\n        /* \"#utility.yul\":1340:1358   */\n      add\n        /* \"#utility.yul\":1332:1358   */\n      swap1\n      pop\n        /* \"#utility.yul\":1368:1452   */\n      tag_248\n        /* \"#utility.yul\":1449:1450   */\n      0x00\n        /* \"#utility.yul\":1438:1447   */\n      dup4\n        /* \"#utility.yul\":1434:1451   */\n      add\n        /* \"#utility.yul\":1425:1431   */\n      dup5\n        /* \"#utility.yul\":1368:1452   */\n      tag_178\n      jump\t// in\n    tag_248:\n        /* \"#utility.yul\":1211:1459   */\n      swap3\n      swap2\n      pop\n      pop\n      jump\t// out\n        /* \"#utility.yul\":1546:1663   */\n    tag_180:\n        /* \"#utility.yul\":1655:1656   */\n      0x00\n        /* \"#utility.yul\":1652:1653   */\n      dup1\n        /* \"#utility.yul\":1645:1657   */\n      revert\n        /* \"#utility.yul\":1792:1918   */\n    tag_182:\n        /* \"#utility.yul\":1829:1836   */\n      0x00\n        /* \"#utility.yul\":1869:1911   */\n      0xffffffffffffffffffffffffffffffffffffffff\n        /* \"#utility.yul\":1862:1867   */\n      dup3\n        /* \"#utility.yul\":1858:1912   */\n      and\n        /* \"#utility.yul\":1847:1912   */\n      swap1\n      pop\n        /* \"#utility.yul\":1792:1918   */\n      swap2\n      swap1\n      pop\n      jump\t// out\n        /* \"#utility.yul\":1924:2020   */\n    tag_183:\n        /* \"#utility.yul\":1961:1968   */\n      0x00\n        /* \"#utility.yul\":1990:2014   */\n      tag_254\n        /* \"#utility.yul\":2008:2013   */\n      dup3\n        /* \"#utility.yul\":1990:2014   */\n      tag_182\n      jump\t// in\n    tag_254:\n        /* \"#utility.yul\":1979:2014   */\n      swap1\n      pop\n        /* \"#utility.yul\":1924:2020   */\n      swap2\n      swap1\n      pop\n      jump\t// out\n        /* \"#utility.yul\":2026:2148   */\n    tag_184:\n        /* \"#utility.yul\":2099:2123   */\n      tag_256\n        /* \"#utility.yul\":2117:2122   */\n      dup2\n        /* \"#utility.yul\":2099:2123   */\n      tag_183\n      jump\t// in\n    tag_256:\n        /* \"#utility.yul\":2092:2097   */\n      dup2\n        /* \"#utility.yul\":2089:2124   */\n      eq\n        /* \"#utility.yul\":2079:2142   */\n      tag_257\n      jumpi\n        /* \"#utility.yul\":2138:2139   */\n      0x00\n        /* \"#utility.yul\":2135:2136   */\n      dup1\n        /* \"#utility.yul\":2128:2140   */\n      revert\n        /* \"#utility.yul\":2079:2142   */\n    tag_257:\n        /* \"#utility.yul\":2026:2148   */\n      pop\n      jump\t// out\n        /* \"#utility.yul\":2154:2293   */\n    tag_185:\n        /* \"#utility.yul\":2200:2205   */\n      0x00\n        /* \"#utility.yul\":2238:2244   */\n      dup2\n        /* \"#utility.yul\":2225:2245   */\n      calldataload\n        /* \"#utility.yul\":2216:2245   */\n      swap1\n      pop\n        /* \"#utility.yul\":2254:2287   */\n      tag_259\n        /* \"#utility.yul\":2281:2286   */\n      dup2\n        /* \"#utility.yul\":2254:2287   */\n      tag_184\n      jump\t// in\n    tag_259:\n        /* \"#utility.yul\":2154:2293   */\n      swap3\n      swap2\n      pop\n      pop\n      jump\t// out\n        /* \"#utility.yul\":2299:2628   */\n    tag_28:\n        /* \"#utility.yul\":2358:2364   */\n      0x00\n        /* \"#utility.yul\":2407:2409   */\n      0x20\n        /* \"#utility.yul\":2395:2404   */\n      dup3\n        /* \"#utility.yul\":2386:2393   */\n      dup5\n        /* \"#utility.yul\":2382:2405   */\n      sub\n        /* \"#utility.yul\":2378:2410   */\n      slt\n        /* \"#utility.yul\":2375:2494   */\n      iszero\n      tag_261\n      jumpi\n        /* \"#utility.yul\":2413:2492   */\n      tag_262\n      tag_180\n      jump\t// in\n    tag_262:\n        /* \"#utility.yul\":2375:2494   */\n    tag_261:\n        /* \"#utility.yul\":2533:2534   */\n      0x00\n        /* \"#utility.yul\":2558:2611   */\n      tag_263\n        /* \"#utility.yul\":2603:2610   */\n      dup5\n        /* \"#utility.yul\":2594:2600   */\n      dup3\n        /* \"#utility.yul\":2583:2592   */\n      dup6\n        /* \"#utility.yul\":2579:2601   */\n      add\n        /* \"#utility.yul\":2558:2611   */\n      tag_185\n      jump\t// in\n    tag_263:\n        /* \"#utility.yul\":2548:2611   */\n      swap2\n      pop\n        /* \"#utility.yul\":2504:2621   */\n      pop\n        /* \"#utility.yul\":2299:2628   */\n      swap3\n      swap2\n      pop\n      pop\n      jump\t// out\n        /* \"#utility.yul\":2634:2724   */\n    tag_186:\n        /* \"#utility.yul\":2668:2675   */\n      0x00\n        /* \"#utility.yul\":2711:2716   */\n      dup2\n        /* \"#utility.yul\":2704:2717   */\n      iszero\n        /* \"#utility.yul\":2697:2718   */\n      iszero\n        /* \"#utility.yul\":2686:2718   */\n      swap1\n      pop\n        /* \"#utility.yul\":2634:2724   */\n      swap2\n      swap1\n      pop\n      jump\t// out\n        /* \"#utility.yul\":2730:2839   */\n    tag_187:\n        /* \"#utility.yul\":2811:2832   */\n      tag_266\n        /* \"#utility.yul\":2826:2831   */\n      dup2\n        /* \"#utility.yul\":2811:2832   */\n      tag_186\n      jump\t// in\n    tag_266:\n        /* \"#utility.yul\":2806:2809   */\n      dup3\n        /* \"#utility.yul\":2799:2833   */\n      mstore\n        /* \"#utility.yul\":2730:2839   */\n      pop\n      pop\n      jump\t// out\n        /* \"#utility.yul\":2845:3055   */\n    tag_31:\n        /* \"#utility.yul\":2932:2936   */\n      0x00\n        /* \"#utility.yul\":2970:2972   */\n      0x20\n        /* \"#utility.yul\":2959:2968   */\n      dup3\n        /* \"#utility.yul\":2955:2973   */\n      add\n        /* \"#utility.yul\":2947:2973   */\n      swap1\n      pop\n        /* \"#utility.yul\":2983:3048   */\n      tag_268\n        /* \"#utility.yul\":3045:3046   */\n      0x00\n        /* \"#utility.yul\":3034:3043   */\n      dup4\n        /* \"#utility.yul\":3030:3047   */\n      add\n        /* \"#utility.yul\":3021:3027   */\n      dup5\n        /* \"#utility.yul\":2983:3048   */\n      tag_187\n      jump\t// in\n    tag_268:\n        /* \"#utility.yul\":2845:3055   */\n      swap3\n      swap2\n      pop\n      pop\n      jump\t// out\n        /* \"#utility.yul\":3061:3183   */\n    tag_188:\n        /* \"#utility.yul\":3136:3142   */\n      0x00\n        /* \"#utility.yul\":3170:3175   */\n      dup2\n        /* \"#utility.yul\":3164:3176   */\n      mload\n        /* \"#utility.yul\":3154:3176   */\n      swap1\n      pop\n        /* \"#utility.yul\":3061:3183   */\n      swap2\n      swap1\n      pop\n      jump\t// out\n        /* \"#utility.yul\":3189:3381   */\n    tag_189:\n        /* \"#utility.yul\":3296:3307   */\n      0x00\n        /* \"#utility.yul\":3330:3336   */\n      dup3\n        /* \"#utility.yul\":3325:3328   */\n      dup3\n        /* \"#utility.yul\":3318:3337   */\n      mstore\n        /* \"#utility.yul\":3370:3374   */\n      0x20\n        /* \"#utility.yul\":3365:3368   */\n      dup3\n        /* \"#utility.yul\":3361:3375   */\n      add\n        /* \"#utility.yul\":3346:3375   */\n      swap1\n      pop\n        /* \"#utility.yul\":3189:3381   */\n      swap3\n      swap2\n      pop\n      pop\n      jump\t// out\n        /* \"#utility.yul\":3387:3527   */\n    tag_190:\n        /* \"#utility.yul\":3462:3466   */\n      0x00\n        /* \"#utility.yul\":3485:3488   */\n      dup2\n        /* \"#utility.yul\":3477:3488   */\n      swap1\n      pop\n        /* \"#utility.yul\":3515:3519   */\n      0x20\n        /* \"#utility.yul\":3510:3513   */\n      dup3\n        /* \"#utility.yul\":3506:3520   */\n      add\n        /* \"#utility.yul\":3498:3520   */\n      swap1\n      pop\n        /* \"#utility.yul\":3387:3527   */\n      swap2\n      swap1\n      pop\n      jump\t// out\n        /* \"#utility.yul\":3533:3637   */\n    tag_191:\n        /* \"#utility.yul\":3578:3585   */\n      0x00\n        /* \"#utility.yul\":3607:3631   */\n      tag_273\n        /* \"#utility.yul\":3625:3630   */\n      dup3\n        /* \"#utility.yul\":3607:3631   */\n      tag_182\n      jump\t// in\n    tag_273:\n        /* \"#utility.yul\":3596:3631   */\n      swap1\n      pop\n        /* \"#utility.yul\":3533:3637   */\n      swap2\n      swap1\n      pop\n      jump\t// out\n        /* \"#utility.yul\":3643:3775   */\n    tag_192:\n        /* \"#utility.yul\":3736:3768   */\n      tag_275\n        /* \"#utility.yul\":3762:3767   */\n      dup2\n        /* \"#utility.yul\":3736:3768   */\n      tag_191\n      jump\t// in\n    tag_275:\n        /* \"#utility.yul\":3731:3734   */\n      dup3\n        /* \"#utility.yul\":3724:3769   */\n      mstore\n        /* \"#utility.yul\":3643:3775   */\n      pop\n      pop\n      jump\t// out\n        /* \"#utility.yul\":3781:3992   */\n    tag_193:\n        /* \"#utility.yul\":3866:3876   */\n      0x00\n        /* \"#utility.yul\":3887:3949   */\n      tag_277\n        /* \"#utility.yul\":3945:3948   */\n      dup4\n        /* \"#utility.yul\":3937:3943   */\n      dup4\n        /* \"#utility.yul\":3887:3949   */\n      tag_192\n      jump\t// in\n    tag_277:\n        /* \"#utility.yul\":3981:3985   */\n      0x20\n        /* \"#utility.yul\":3976:3979   */\n      dup4\n        /* \"#utility.yul\":3972:3986   */\n      add\n        /* \"#utility.yul\":3958:3986   */\n      swap1\n      pop\n        /* \"#utility.yul\":3781:3992   */\n      swap3\n      swap2\n      pop\n      pop\n      jump\t// out\n        /* \"#utility.yul\":3998:4119   */\n    tag_194:\n        /* \"#utility.yul\":4076:4080   */\n      0x00\n        /* \"#utility.yul\":4108:4112   */\n      0x20\n        /* \"#utility.yul\":4103:4106   */\n      dup3\n        /* \"#utility.yul\":4099:4113   */\n      add\n        /* \"#utility.yul\":4091:4113   */\n      swap1\n      pop\n        /* \"#utility.yul\":3998:4119   */\n      swap2\n      swap1\n      pop\n      jump\t// out\n        /* \"#utility.yul\":4171:4967   */\n    tag_195:\n        /* \"#utility.yul\":4306:4309   */\n      0x00\n        /* \"#utility.yul\":4335:4397   */\n      tag_280\n        /* \"#utility.yul\":4391:4396   */\n      dup3\n        /* \"#utility.yul\":4335:4397   */\n      tag_188\n      jump\t// in\n    tag_280:\n        /* \"#utility.yul\":4413:4507   */\n      tag_281\n        /* \"#utility.yul\":4500:4506   */\n      dup2\n        /* \"#utility.yul\":4495:4498   */\n      dup6\n        /* \"#utility.yul\":4413:4507   */\n      tag_189\n      jump\t// in\n    tag_281:\n        /* \"#utility.yul\":4406:4507   */\n      swap4\n      pop\n        /* \"#utility.yul\":4531:4595   */\n      tag_282\n        /* \"#utility.yul\":4589:4594   */\n      dup4\n        /* \"#utility.yul\":4531:4595   */\n      tag_190\n      jump\t// in\n    tag_282:\n        /* \"#utility.yul\":4618:4625   */\n      dup1\n        /* \"#utility.yul\":4649:4650   */\n      0x00\n        /* \"#utility.yul\":4634:4942   */\n    tag_283:\n        /* \"#utility.yul\":4659:4665   */\n      dup4\n        /* \"#utility.yul\":4656:4657   */\n      dup2\n        /* \"#utility.yul\":4653:4666   */\n      lt\n        /* \"#utility.yul\":4634:4942   */\n      iszero\n      tag_285\n      jumpi\n        /* \"#utility.yul\":4735:4741   */\n      dup2\n        /* \"#utility.yul\":4729:4742   */\n      mload\n        /* \"#utility.yul\":4762:4841   */\n      tag_286\n        /* \"#utility.yul\":4837:4840   */\n      dup9\n        /* \"#utility.yul\":4822:4835   */\n      dup3\n        /* \"#utility.yul\":4762:4841   */\n      tag_193\n      jump\t// in\n    tag_286:\n        /* \"#utility.yul\":4755:4841   */\n      swap8\n      pop\n        /* \"#utility.yul\":4864:4932   */\n      tag_287\n        /* \"#utility.yul\":4925:4931   */\n      dup4\n        /* \"#utility.yul\":4864:4932   */\n      tag_194\n      jump\t// in\n    tag_287:\n        /* \"#utility.yul\":4854:4932   */\n      swap3\n      pop\n        /* \"#utility.yul\":4694:4942   */\n      pop\n        /* \"#utility.yul\":4681:4682   */\n      0x01\n        /* \"#utility.yul\":4678:4679   */\n      dup2\n        /* \"#utility.yul\":4674:4683   */\n      add\n        /* \"#utility.yul\":4669:4683   */\n      swap1\n      pop\n        /* \"#utility.yul\":4634:4942   */\n      jump(tag_283)\n    tag_285:\n        /* \"#utility.yul\":4638:4652   */\n      pop\n        /* \"#utility.yul\":4958:4961   */\n      dup6\n        /* \"#utility.yul\":4951:4961   */\n      swap4\n      pop\n        /* \"#utility.yul\":4311:4967   */\n      pop\n      pop\n      pop\n        /* \"#utility.yul\":4171:4967   */\n      swap3\n      swap2\n      pop\n      pop\n      jump\t// out\n        /* \"#utility.yul\":4973:5378   */\n    tag_36:\n        /* \"#utility.yul\":5132:5136   */\n      0x00\n        /* \"#utility.yul\":5170:5172   */\n      0x20\n        /* \"#utility.yul\":5159:5168   */\n      dup3\n        /* \"#utility.yul\":5155:5173   */\n      add\n        /* \"#utility.yul\":5147:5173   */\n      swap1\n      pop\n        /* \"#utility.yul\":5219:5228   */\n      dup2\n        /* \"#utility.yul\":5213:5217   */\n      dup2\n        /* \"#utility.yul\":5209:5229   */\n      sub\n        /* \"#utility.yul\":5205:5206   */\n      0x00\n        /* \"#utility.yul\":5194:5203   */\n      dup4\n        /* \"#utility.yul\":5190:5207   */\n      add\n        /* \"#utility.yul\":5183:5230   */\n      mstore\n        /* \"#utility.yul\":5247:5371   */\n      tag_289\n        /* \"#utility.yul\":5366:5370   */\n      dup2\n        /* \"#utility.yul\":5357:5363   */\n      dup5\n        /* \"#utility.yul\":5247:5371   */\n      tag_195\n      jump\t// in\n    tag_289:\n        /* \"#utility.yul\":5239:5371   */\n      swap1\n      pop\n        /* \"#utility.yul\":4973:5378   */\n      swap3\n      swap2\n      pop\n      pop\n      jump\t// out\n        /* \"#utility.yul\":5384:5506   */\n    tag_196:\n        /* \"#utility.yul\":5457:5481   */\n      tag_291\n        /* \"#utility.yul\":5475:5480   */\n      dup2\n        /* \"#utility.yul\":5457:5481   */\n      tag_173\n      jump\t// in\n    tag_291:\n        /* \"#utility.yul\":5450:5455   */\n      dup2\n        /* \"#utility.yul\":5447:5482   */\n      eq\n        /* \"#utility.yul\":5437:5500   */\n      tag_292\n      jumpi\n        /* \"#utility.yul\":5496:5497   */\n      0x00\n        /* \"#utility.yul\":5493:5494   */\n      dup1\n        /* \"#utility.yul\":5486:5498   */\n      revert\n        /* \"#utility.yul\":5437:5500   */\n    tag_292:\n        /* \"#utility.yul\":5384:5506   */\n      pop\n      jump\t// out\n        /* \"#utility.yul\":5512:5651   */\n    tag_197:\n        /* \"#utility.yul\":5558:5563   */\n      0x00\n        /* \"#utility.yul\":5596:5602   */\n      dup2\n        /* \"#utility.yul\":5583:5603   */\n      calldataload\n        /* \"#utility.yul\":5574:5603   */\n      swap1\n      pop\n        /* \"#utility.yul\":5612:5645   */\n      tag_294\n        /* \"#utility.yul\":5639:5644   */\n      dup2\n        /* \"#utility.yul\":5612:5645   */\n      tag_196\n      jump\t// in\n    tag_294:\n        /* \"#utility.yul\":5512:5651   */\n      swap3\n      swap2\n      pop\n      pop\n      jump\t// out\n        /* \"#utility.yul\":5657:5986   */\n    tag_39:\n        /* \"#utility.yul\":5716:5722   */\n      0x00\n        /* \"#utility.yul\":5765:5767   */\n      0x20\n        /* \"#utility.yul\":5753:5762   */\n      dup3\n        /* \"#utility.yul\":5744:5751   */\n      dup5\n        /* \"#utility.yul\":5740:5763   */\n      sub\n        /* \"#utility.yul\":5736:5768   */\n      slt\n        /* \"#utility.yul\":5733:5852   */\n      iszero\n      tag_296\n      jumpi\n        /* \"#utility.yul\":5771:5850   */\n      tag_297\n      tag_180\n      jump\t// in\n    tag_297:\n        /* \"#utility.yul\":5733:5852   */\n    tag_296:\n        /* \"#utility.yul\":5891:5892   */\n      0x00\n        /* \"#utility.yul\":5916:5969   */\n      tag_298\n        /* \"#utility.yul\":5961:5968   */\n      dup5\n        /* \"#utility.yul\":5952:5958   */\n      dup3\n        /* \"#utility.yul\":5941:5950   */\n      dup6\n        /* \"#utility.yul\":5937:5959   */\n      add\n        /* \"#utility.yul\":5916:5969   */\n      tag_197\n      jump\t// in\n    tag_298:\n        /* \"#utility.yul\":5906:5969   */\n      swap2\n      pop\n        /* \"#utility.yul\":5862:5979   */\n      pop\n        /* \"#utility.yul\":5657:5986   */\n      swap3\n      swap2\n      pop\n      pop\n      jump\t// out\n        /* \"#utility.yul\":5992:6100   */\n    tag_198:\n        /* \"#utility.yul\":6069:6093   */\n      tag_300\n        /* \"#utility.yul\":6087:6092   */\n      dup2\n        /* \"#utility.yul\":6069:6093   */\n      tag_183\n      jump\t// in\n    tag_300:\n        /* \"#utility.yul\":6064:6067   */\n      dup3\n        /* \"#utility.yul\":6057:6094   */\n      mstore\n        /* \"#utility.yul\":5992:6100   */\n      pop\n      pop\n      jump\t// out\n        /* \"#utility.yul\":6106:6205   */\n    tag_199:\n        /* \"#utility.yul\":6177:6198   */\n      tag_302\n        /* \"#utility.yul\":6192:6197   */\n      dup2\n        /* \"#utility.yul\":6177:6198   */\n      tag_186\n      jump\t// in\n    tag_302:\n        /* \"#utility.yul\":6172:6175   */\n      dup3\n        /* \"#utility.yul\":6165:6199   */\n      mstore\n        /* \"#utility.yul\":6106:6205   */\n      pop\n      pop\n      jump\t// out\n        /* \"#utility.yul\":6275:6782   */\n    tag_200:\n        /* \"#utility.yul\":6426:6430   */\n      0x40\n        /* \"#utility.yul\":6421:6424   */\n      dup3\n        /* \"#utility.yul\":6417:6431   */\n      add\n        /* \"#utility.yul\":6511:6515   */\n      0x00\n        /* \"#utility.yul\":6504:6509   */\n      dup3\n        /* \"#utility.yul\":6500:6516   */\n      add\n        /* \"#utility.yul\":6494:6517   */\n      mload\n        /* \"#utility.yul\":6530:6593   */\n      tag_304\n        /* \"#utility.yul\":6587:6591   */\n      0x00\n        /* \"#utility.yul\":6582:6585   */\n      dup6\n        /* \"#utility.yul\":6578:6592   */\n      add\n        /* \"#utility.yul\":6564:6576   */\n      dup3\n        /* \"#utility.yul\":6530:6593   */\n      tag_198\n      jump\t// in\n    tag_304:\n        /* \"#utility.yul\":6441:6603   */\n      pop\n        /* \"#utility.yul\":6689:6693   */\n      0x20\n        /* \"#utility.yul\":6682:6687   */\n      dup3\n        /* \"#utility.yul\":6678:6694   */\n      add\n        /* \"#utility.yul\":6672:6695   */\n      mload\n        /* \"#utility.yul\":6708:6765   */\n      tag_305\n        /* \"#utility.yul\":6759:6763   */\n      0x20\n        /* \"#utility.yul\":6754:6757   */\n      dup6\n        /* \"#utility.yul\":6750:6764   */\n      add\n        /* \"#utility.yul\":6736:6748   */\n      dup3\n        /* \"#utility.yul\":6708:6765   */\n      tag_199\n      jump\t// in\n    tag_305:\n        /* \"#utility.yul\":6613:6775   */\n      pop\n        /* \"#utility.yul\":6395:6782   */\n      pop\n        /* \"#utility.yul\":6275:6782   */\n      pop\n      pop\n      jump\t// out\n        /* \"#utility.yul\":6788:7118   */\n    tag_45:\n        /* \"#utility.yul\":6935:6939   */\n      0x00\n        /* \"#utility.yul\":6973:6975   */\n      0x40\n        /* \"#utility.yul\":6962:6971   */\n      dup3\n        /* \"#utility.yul\":6958:6976   */\n      add\n        /* \"#utility.yul\":6950:6976   */\n      swap1\n      pop\n        /* \"#utility.yul\":6986:7111   */\n      tag_307\n        /* \"#utility.yul\":7108:7109   */\n      0x00\n        /* \"#utility.yul\":7097:7106   */\n      dup4\n        /* \"#utility.yul\":7093:7110   */\n      add\n        /* \"#utility.yul\":7084:7090   */\n      dup5\n        /* \"#utility.yul\":6986:7111   */\n      tag_200\n      jump\t// in\n    tag_307:\n        /* \"#utility.yul\":6788:7118   */\n      swap3\n      swap2\n      pop\n      pop\n      jump\t// out\n        /* \"#utility.yul\":7124:7293   */\n    tag_201:\n        /* \"#utility.yul\":7208:7219   */\n      0x00\n        /* \"#utility.yul\":7242:7248   */\n      dup3\n        /* \"#utility.yul\":7237:7240   */\n      dup3\n        /* \"#utility.yul\":7230:7249   */\n      mstore\n        /* \"#utility.yul\":7282:7286   */\n      0x20\n        /* \"#utility.yul\":7277:7280   */\n      dup3\n        /* \"#utility.yul\":7273:7287   */\n      add\n        /* \"#utility.yul\":7258:7287   */\n      swap1\n      pop\n        /* \"#utility.yul\":7124:7293   */\n      swap3\n      swap2\n      pop\n      pop\n      jump\t// out\n        /* \"#utility.yul\":7299:7526   */\n    tag_202:\n        /* \"#utility.yul\":7439:7473   */\n      0x4f6e6c7920746865206d616e616765722063616e2063616c6c20746869732066\n        /* \"#utility.yul\":7435:7436   */\n      0x00\n        /* \"#utility.yul\":7427:7433   */\n      dup3\n        /* \"#utility.yul\":7423:7437   */\n      add\n        /* \"#utility.yul\":7416:7474   */\n      mstore\n        /* \"#utility.yul\":7508:7518   */\n      0x756e6374696f6e2e000000000000000000000000000000000000000000000000\n        /* \"#utility.yul\":7503:7505   */\n      0x20\n        /* \"#utility.yul\":7495:7501   */\n      dup3\n        /* \"#utility.yul\":7491:7506   */\n      add\n        /* \"#utility.yul\":7484:7519   */\n      mstore\n        /* \"#utility.yul\":7299:7526   */\n      pop\n      jump\t// out\n        /* \"#utility.yul\":7532:7898   */\n    tag_203:\n        /* \"#utility.yul\":7674:7677   */\n      0x00\n        /* \"#utility.yul\":7695:7762   */\n      tag_311\n        /* \"#utility.yul\":7759:7761   */\n      0x28\n        /* \"#utility.yul\":7754:7757   */\n      dup4\n        /* \"#utility.yul\":7695:7762   */\n      tag_201\n      jump\t// in\n    tag_311:\n        /* \"#utility.yul\":7688:7762   */\n      swap2\n      pop\n        /* \"#utility.yul\":7771:7864   */\n      tag_312\n        /* \"#utility.yul\":7860:7863   */\n      dup3\n        /* \"#utility.yul\":7771:7864   */\n      tag_202\n      jump\t// in\n    tag_312:\n        /* \"#utility.yul\":7889:7891   */\n      0x40\n        /* \"#utility.yul\":7884:7887   */\n      dup3\n        /* \"#utility.yul\":7880:7892   */\n      add\n        /* \"#utility.yul\":7873:7892   */\n      swap1\n      pop\n        /* \"#utility.yul\":7532:7898   */\n      swap2\n      swap1\n      pop\n      jump\t// out\n        /* \"#utility.yul\":7904:8323   */\n    tag_58:\n        /* \"#utility.yul\":8070:8074   */\n      0x00\n        /* \"#utility.yul\":8108:8110   */\n      0x20\n        /* \"#utility.yul\":8097:8106   */\n      dup3\n        /* \"#utility.yul\":8093:8111   */\n      add\n        /* \"#utility.yul\":8085:8111   */\n      swap1\n      pop\n        /* \"#utility.yul\":8157:8166   */\n      dup2\n        /* \"#utility.yul\":8151:8155   */\n      dup2\n        /* \"#utility.yul\":8147:8167   */\n      sub\n        /* \"#utility.yul\":8143:8144   */\n      0x00\n        /* \"#utility.yul\":8132:8141   */\n      dup4\n        /* \"#utility.yul\":8128:8145   */\n      add\n        /* \"#utility.yul\":8121:8168   */\n      mstore\n        /* \"#utility.yul\":8185:8316   */\n      tag_314\n        /* \"#utility.yul\":8311:8315   */\n      dup2\n        /* \"#utility.yul\":8185:8316   */\n      tag_203\n      jump\t// in\n    tag_314:\n        /* \"#utility.yul\":8177:8316   */\n      swap1\n      pop\n        /* \"#utility.yul\":7904:8323   */\n      swap2\n      swap1\n      pop\n      jump\t// out\n        /* \"#utility.yul\":8329:8563   */\n    tag_204:\n        /* \"#utility.yul\":8469:8503   */\n      0x4c6f7474657279206d75737420626520636c6f736564206265666f7265207069\n        /* \"#utility.yul\":8465:8466   */\n      0x00\n        /* \"#utility.yul\":8457:8463   */\n      dup3\n        /* \"#utility.yul\":8453:8467   */\n      add\n        /* \"#utility.yul\":8446:8504   */\n      mstore\n        /* \"#utility.yul\":8538:8555   */\n      0x636b696e6720612077696e6e65722e0000000000000000000000000000000000\n        /* \"#utility.yul\":8533:8535   */\n      0x20\n        /* \"#utility.yul\":8525:8531   */\n      dup3\n        /* \"#utility.yul\":8521:8536   */\n      add\n        /* \"#utility.yul\":8514:8556   */\n      mstore\n        /* \"#utility.yul\":8329:8563   */\n      pop\n      jump\t// out\n        /* \"#utility.yul\":8569:8935   */\n    tag_205:\n        /* \"#utility.yul\":8711:8714   */\n      0x00\n        /* \"#utility.yul\":8732:8799   */\n      tag_317\n        /* \"#utility.yul\":8796:8798   */\n      0x2f\n        /* \"#utility.yul\":8791:8794   */\n      dup4\n        /* \"#utility.yul\":8732:8799   */\n      tag_201\n      jump\t// in\n    tag_317:\n        /* \"#utility.yul\":8725:8799   */\n      swap2\n      pop\n        /* \"#utility.yul\":8808:8901   */\n      tag_318\n        /* \"#utility.yul\":8897:8900   */\n      dup3\n        /* \"#utility.yul\":8808:8901   */\n      tag_204\n      jump\t// in\n    tag_318:\n        /* \"#utility.yul\":8926:8928   */\n      0x40\n        /* \"#utility.yul\":8921:8924   */\n      dup3\n        /* \"#utility.yul\":8917:8929   */\n      add\n        /* \"#utility.yul\":8910:8929   */\n      swap1\n      pop\n        /* \"#utility.yul\":8569:8935   */\n      swap2\n      swap1\n      pop\n      jump\t// out\n        /* \"#utility.yul\":8941:9360   */\n    tag_67:\n        /* \"#utility.yul\":9107:9111   */\n      0x00\n        /* \"#utility.yul\":9145:9147   */\n      0x20\n        /* \"#utility.yul\":9134:9143   */\n      dup3\n        /* \"#utility.yul\":9130:9148   */\n      add\n        /* \"#utility.yul\":9122:9148   */\n      swap1\n      pop\n        /* \"#utility.yul\":9194:9203   */\n      dup2\n        /* \"#utility.yul\":9188:9192   */\n      dup2\n        /* \"#utility.yul\":9184:9204   */\n      sub\n        /* \"#utility.yul\":9180:9181   */\n      0x00\n        /* \"#utility.yul\":9169:9178   */\n      dup4\n        /* \"#utility.yul\":9165:9182   */\n      add\n        /* \"#utility.yul\":9158:9205   */\n      mstore\n        /* \"#utility.yul\":9222:9353   */\n      tag_320\n        /* \"#utility.yul\":9348:9352   */\n      dup2\n        /* \"#utility.yul\":9222:9353   */\n      tag_205\n      jump\t// in\n    tag_320:\n        /* \"#utility.yul\":9214:9353   */\n      swap1\n      pop\n        /* \"#utility.yul\":8941:9360   */\n      swap2\n      swap1\n      pop\n      jump\t// out\n        /* \"#utility.yul\":9366:9591   */\n    tag_206:\n        /* \"#utility.yul\":9506:9540   */\n      0x4e6f206d6f726520706c617965727320746f207069636b20612077696e6e6572\n        /* \"#utility.yul\":9502:9503   */\n      0x00\n        /* \"#utility.yul\":9494:9500   */\n      dup3\n        /* \"#utility.yul\":9490:9504   */\n      add\n        /* \"#utility.yul\":9483:9541   */\n      mstore\n        /* \"#utility.yul\":9575:9583   */\n      0x2066726f6d2e0000000000000000000000000000000000000000000000000000\n        /* \"#utility.yul\":9570:9572   */\n      0x20\n        /* \"#utility.yul\":9562:9568   */\n      dup3\n        /* \"#utility.yul\":9558:9573   */\n      add\n        /* \"#utility.yul\":9551:9584   */\n      mstore\n        /* \"#utility.yul\":9366:9591   */\n      pop\n      jump\t// out\n        /* \"#utility.yul\":9597:9963   */\n    tag_207:\n        /* \"#utility.yul\":9739:9742   */\n      0x00\n        /* \"#utility.yul\":9760:9827   */\n      tag_323\n        /* \"#utility.yul\":9824:9826   */\n      0x26\n        /* \"#utility.yul\":9819:9822   */\n      dup4\n        /* \"#utility.yul\":9760:9827   */\n      tag_201\n      jump\t// in\n    tag_323:\n        /* \"#utility.yul\":9753:9827   */\n      swap2\n      pop\n        /* \"#utility.yul\":9836:9929   */\n      tag_324\n        /* \"#utility.yul\":9925:9928   */\n      dup3\n        /* \"#utility.yul\":9836:9929   */\n      tag_206\n      jump\t// in\n    tag_324:\n        /* \"#utility.yul\":9954:9956   */\n      0x40\n        /* \"#utility.yul\":9949:9952   */\n      dup3\n        /* \"#utility.yul\":9945:9957   */\n      add\n        /* \"#utility.yul\":9938:9957   */\n      swap1\n      pop\n        /* \"#utility.yul\":9597:9963   */\n      swap2\n      swap1\n      pop\n      jump\t// out\n        /* \"#utility.yul\":9969:10388   */\n    tag_70:\n        /* \"#utility.yul\":10135:10139   */\n      0x00\n        /* \"#utility.yul\":10173:10175   */\n      0x20\n        /* \"#utility.yul\":10162:10171   */\n      dup3\n        /* \"#utility.yul\":10158:10176   */\n      add\n        /* \"#utility.yul\":10150:10176   */\n      swap1\n      pop\n        /* \"#utility.yul\":10222:10231   */\n      dup2\n        /* \"#utility.yul\":10216:10220   */\n      dup2\n        /* \"#utility.yul\":10212:10232   */\n      sub\n        /* \"#utility.yul\":10208:10209   */\n      0x00\n        /* \"#utility.yul\":10197:10206   */\n      dup4\n        /* \"#utility.yul\":10193:10210   */\n      add\n        /* \"#utility.yul\":10186:10233   */\n      mstore\n        /* \"#utility.yul\":10250:10381   */\n      tag_326\n        /* \"#utility.yul\":10376:10380   */\n      dup2\n        /* \"#utility.yul\":10250:10381   */\n      tag_207\n      jump\t// in\n    tag_326:\n        /* \"#utility.yul\":10242:10381   */\n      swap1\n      pop\n        /* \"#utility.yul\":9969:10388   */\n      swap2\n      swap1\n      pop\n      jump\t// out\n        /* \"#utility.yul\":10394:10574   */\n    tag_208:\n        /* \"#utility.yul\":10442:10519   */\n      0x4e487b7100000000000000000000000000000000000000000000000000000000\n        /* \"#utility.yul\":10439:10440   */\n      0x00\n        /* \"#utility.yul\":10432:10520   */\n      mstore\n        /* \"#utility.yul\":10539:10543   */\n      0x11\n        /* \"#utility.yul\":10536:10537   */\n      0x04\n        /* \"#utility.yul\":10529:10544   */\n      mstore\n        /* \"#utility.yul\":10563:10567   */\n      0x24\n        /* \"#utility.yul\":10560:10561   */\n      0x00\n        /* \"#utility.yul\":10553:10568   */\n      revert\n        /* \"#utility.yul\":10580:10774   */\n    tag_72:\n        /* \"#utility.yul\":10620:10624   */\n      0x00\n        /* \"#utility.yul\":10640:10660   */\n      tag_329\n        /* \"#utility.yul\":10658:10659   */\n      dup3\n        /* \"#utility.yul\":10640:10660   */\n      tag_173\n      jump\t// in\n    tag_329:\n        /* \"#utility.yul\":10635:10660   */\n      swap2\n      pop\n        /* \"#utility.yul\":10674:10694   */\n      tag_330\n        /* \"#utility.yul\":10692:10693   */\n      dup4\n        /* \"#utility.yul\":10674:10694   */\n      tag_173\n      jump\t// in\n    tag_330:\n        /* \"#utility.yul\":10669:10694   */\n      swap3\n      pop\n        /* \"#utility.yul\":10718:10719   */\n      dup3\n        /* \"#utility.yul\":10715:10716   */\n      dup3\n        /* \"#utility.yul\":10711:10720   */\n      sub\n        /* \"#utility.yul\":10703:10720   */\n      swap1\n      pop\n        /* \"#utility.yul\":10742:10743   */\n      dup2\n        /* \"#utility.yul\":10736:10740   */\n      dup2\n        /* \"#utility.yul\":10733:10744   */\n      gt\n        /* \"#utility.yul\":10730:10767   */\n      iszero\n      tag_331\n      jumpi\n        /* \"#utility.yul\":10747:10765   */\n      tag_332\n      tag_208\n      jump\t// in\n    tag_332:\n        /* \"#utility.yul\":10730:10767   */\n    tag_331:\n        /* \"#utility.yul\":10580:10774   */\n      swap3\n      swap2\n      pop\n      pop\n      jump\t// out\n        /* \"#utility.yul\":10780:10960   */\n    tag_209:\n        /* \"#utility.yul\":10828:10905   */\n      0x4e487b7100000000000000000000000000000000000000000000000000000000\n        /* \"#utility.yul\":10825:10826   */\n      0x00\n        /* \"#utility.yul\":10818:10906   */\n      mstore\n        /* \"#utility.yul\":10925:10929   */\n      0x12\n        /* \"#utility.yul\":10922:10923   */\n      0x04\n        /* \"#utility.yul\":10915:10930   */\n      mstore\n        /* \"#utility.yul\":10949:10953   */\n      0x24\n        /* \"#utility.yul\":10946:10947   */\n      0x00\n        /* \"#utility.yul\":10939:10954   */\n      revert\n        /* \"#utility.yul\":10966:11142   */\n    tag_76:\n        /* \"#utility.yul\":10998:10999   */\n      0x00\n        /* \"#utility.yul\":11015:11035   */\n      tag_335\n        /* \"#utility.yul\":11033:11034   */\n      dup3\n        /* \"#utility.yul\":11015:11035   */\n      tag_173\n      jump\t// in\n    tag_335:\n        /* \"#utility.yul\":11010:11035   */\n      swap2\n      pop\n        /* \"#utility.yul\":11049:11069   */\n      tag_336\n        /* \"#utility.yul\":11067:11068   */\n      dup4\n        /* \"#utility.yul\":11049:11069   */\n      tag_173\n      jump\t// in\n    tag_336:\n        /* \"#utility.yul\":11044:11069   */\n      swap3\n      pop\n        /* \"#utility.yul\":11088:11089   */\n      dup3\n        /* \"#utility.yul\":11078:11113   */\n      tag_337\n      jumpi\n        /* \"#utility.yul\":11093:11111   */\n      tag_338\n      tag_209\n      jump\t// in\n    tag_338:\n        /* \"#utility.yul\":11078:11113   */\n    tag_337:\n        /* \"#utility.yul\":11134:11135   */\n      dup3\n        /* \"#utility.yul\":11131:11132   */\n      dup3\n        /* \"#utility.yul\":11127:11136   */\n      mod\n        /* \"#utility.yul\":11122:11136   */\n      swap1\n      pop\n        /* \"#utility.yul\":10966:11142   */\n      swap3\n      swap2\n      pop\n      pop\n      jump\t// out\n        /* \"#utility.yul\":11148:11339   */\n    tag_78:\n        /* \"#utility.yul\":11188:11191   */\n      0x00\n        /* \"#utility.yul\":11207:11227   */\n      tag_340\n        /* \"#utility.yul\":11225:11226   */\n      dup3\n        /* \"#utility.yul\":11207:11227   */\n      tag_173\n      jump\t// in\n    tag_340:\n        /* \"#utility.yul\":11202:11227   */\n      swap2\n      pop\n        /* \"#utility.yul\":11241:11261   */\n      tag_341\n        /* \"#utility.yul\":11259:11260   */\n      dup4\n        /* \"#utility.yul\":11241:11261   */\n      tag_173\n      jump\t// in\n    tag_341:\n        /* \"#utility.yul\":11236:11261   */\n      swap3\n      pop\n        /* \"#utility.yul\":11284:11285   */\n      dup3\n        /* \"#utility.yul\":11281:11282   */\n      dup3\n        /* \"#utility.yul\":11277:11286   */\n      add\n        /* \"#utility.yul\":11270:11286   */\n      swap1\n      pop\n        /* \"#utility.yul\":11305:11308   */\n      dup1\n        /* \"#utility.yul\":11302:11303   */\n      dup3\n        /* \"#utility.yul\":11299:11309   */\n      gt\n        /* \"#utility.yul\":11296:11332   */\n      iszero\n      tag_342\n      jumpi\n        /* \"#utility.yul\":11312:11330   */\n      tag_343\n      tag_208\n      jump\t// in\n    tag_343:\n        /* \"#utility.yul\":11296:11332   */\n    tag_342:\n        /* \"#utility.yul\":11148:11339   */\n      swap3\n      swap2\n      pop\n      pop\n      jump\t// out\n        /* \"#utility.yul\":11345:11525   */\n    tag_81:\n        /* \"#utility.yul\":11393:11470   */\n      0x4e487b7100000000000000000000000000000000000000000000000000000000\n        /* \"#utility.yul\":11390:11391   */\n      0x00\n        /* \"#utility.yul\":11383:11471   */\n      mstore\n        /* \"#utility.yul\":11490:11494   */\n      0x32\n        /* \"#utility.yul\":11487:11488   */\n      0x04\n        /* \"#utility.yul\":11480:11495   */\n      mstore\n        /* \"#utility.yul\":11514:11518   */\n      0x24\n        /* \"#utility.yul\":11511:11512   */\n      0x00\n        /* \"#utility.yul\":11504:11519   */\n      revert\n        /* \"#utility.yul\":11531:11764   */\n    tag_84:\n        /* \"#utility.yul\":11570:11573   */\n      0x00\n        /* \"#utility.yul\":11593:11617   */\n      tag_346\n        /* \"#utility.yul\":11611:11616   */\n      dup3\n        /* \"#utility.yul\":11593:11617   */\n      tag_173\n      jump\t// in\n    tag_346:\n        /* \"#utility.yul\":11584:11617   */\n      swap2\n      pop\n        /* \"#utility.yul\":11639:11705   */\n      0xffffffffffffffffffffffffffffffffffffffffffffffffffffffffffffffff\n        /* \"#utility.yul\":11632:11637   */\n      dup3\n        /* \"#utility.yul\":11629:11706   */\n      sub\n        /* \"#utility.yul\":11626:11729   */\n      tag_347\n      jumpi\n        /* \"#utility.yul\":11709:11727   */\n      tag_348\n      tag_208\n      jump\t// in\n    tag_348:\n        /* \"#utility.yul\":11626:11729   */\n    tag_347:\n        /* \"#utility.yul\":11756:11757   */\n      0x01\n        /* \"#utility.yul\":11749:11754   */\n      dup3\n        /* \"#utility.yul\":11745:11758   */\n      add\n        /* \"#utility.yul\":11738:11758   */\n      swap1\n      pop\n        /* \"#utility.yul\":11531:11764   */\n      swap2\n      swap1\n      pop\n      jump\t// out\n        /* \"#utility.yul\":11770:11918   */\n    tag_210:\n        /* \"#utility.yul\":11872:11883   */\n      0x00\n        /* \"#utility.yul\":11909:11912   */\n      dup2\n        /* \"#utility.yul\":11894:11912   */\n      swap1\n      pop\n        /* \"#utility.yul\":11770:11918   */\n      swap3\n      swap2\n      pop\n      pop\n      jump\t// out\n        /* \"#utility.yul\":11924:12166   */\n    tag_211:\n        /* \"#utility.yul\":12064:12098   */\n      0x4c6f7474657279206973206e6f742063757272656e746c79206f70656e20666f\n        /* \"#utility.yul\":12060:12061   */\n      0x00\n        /* \"#utility.yul\":12052:12058   */\n      dup3\n        /* \"#utility.yul\":12048:12062   */\n      add\n        /* \"#utility.yul\":12041:12099   */\n      mstore\n        /* \"#utility.yul\":12133:12158   */\n      0x7220656e74726965732e20506c65617365207761697420000000000000000000\n        /* \"#utility.yul\":12128:12130   */\n      0x20\n        /* \"#utility.yul\":12120:12126   */\n      dup3\n        /* \"#utility.yul\":12116:12131   */\n      add\n        /* \"#utility.yul\":12109:12159   */\n      mstore\n        /* \"#utility.yul\":11924:12166   */\n      pop\n      jump\t// out\n        /* \"#utility.yul\":12172:12574   */\n    tag_212:\n        /* \"#utility.yul\":12332:12335   */\n      0x00\n        /* \"#utility.yul\":12353:12438   */\n      tag_352\n        /* \"#utility.yul\":12435:12437   */\n      0x37\n        /* \"#utility.yul\":12430:12433   */\n      dup4\n        /* \"#utility.yul\":12353:12438   */\n      tag_210\n      jump\t// in\n    tag_352:\n        /* \"#utility.yul\":12346:12438   */\n      swap2\n      pop\n        /* \"#utility.yul\":12447:12540   */\n      tag_353\n        /* \"#utility.yul\":12536:12539   */\n      dup3\n        /* \"#utility.yul\":12447:12540   */\n      tag_211\n      jump\t// in\n    tag_353:\n        /* \"#utility.yul\":12565:12567   */\n      0x37\n        /* \"#utility.yul\":12560:12563   */\n      dup3\n        /* \"#utility.yul\":12556:12568   */\n      add\n        /* \"#utility.yul\":12549:12568   */\n      swap1\n      pop\n        /* \"#utility.yul\":12172:12574   */\n      swap2\n      swap1\n      pop\n      jump\t// out\n        /* \"#utility.yul\":12580:12679   */\n    tag_213:\n        /* \"#utility.yul\":12632:12638   */\n      0x00\n        /* \"#utility.yul\":12666:12671   */\n      dup2\n        /* \"#utility.yul\":12660:12672   */\n      mload\n        /* \"#utility.yul\":12650:12672   */\n      swap1\n      pop\n        /* \"#utility.yul\":12580:12679   */\n      swap2\n      swap1\n      pop\n      jump\t// out\n        /* \"#utility.yul\":12685:12931   */\n    tag_214:\n        /* \"#utility.yul\":12766:12767   */\n      0x00\n        /* \"#utility.yul\":12776:12889   */\n    tag_356:\n        /* \"#utility.yul\":12790:12796   */\n      dup4\n        /* \"#utility.yul\":12787:12788   */\n      dup2\n        /* \"#utility.yul\":12784:12797   */\n      lt\n        /* \"#utility.yul\":12776:12889   */\n      iszero\n      tag_358\n      jumpi\n        /* \"#utility.yul\":12875:12876   */\n      dup1\n        /* \"#utility.yul\":12870:12873   */\n      dup3\n        /* \"#utility.yul\":12866:12877   */\n      add\n        /* \"#utility.yul\":12860:12878   */\n      mload\n        /* \"#utility.yul\":12856:12857   */\n      dup2\n        /* \"#utility.yul\":12851:12854   */\n      dup5\n        /* \"#utility.yul\":12847:12858   */\n      add\n        /* \"#utility.yul\":12840:12879   */\n      mstore\n        /* \"#utility.yul\":12812:12814   */\n      0x20\n        /* \"#utility.yul\":12809:12810   */\n      dup2\n        /* \"#utility.yul\":12805:12815   */\n      add\n        /* \"#utility.yul\":12800:12815   */\n      swap1\n      pop\n        /* \"#utility.yul\":12776:12889   */\n      jump(tag_356)\n    tag_358:\n        /* \"#utility.yul\":12923:12924   */\n      0x00\n        /* \"#utility.yul\":12914:12920   */\n      dup5\n        /* \"#utility.yul\":12909:12912   */\n      dup5\n        /* \"#utility.yul\":12905:12921   */\n      add\n        /* \"#utility.yul\":12898:12925   */\n      mstore\n        /* \"#utility.yul\":12747:12931   */\n      pop\n        /* \"#utility.yul\":12685:12931   */\n      pop\n      pop\n      pop\n      jump\t// out\n        /* \"#utility.yul\":12937:13327   */\n    tag_215:\n        /* \"#utility.yul\":13043:13046   */\n      0x00\n        /* \"#utility.yul\":13071:13110   */\n      tag_360\n        /* \"#utility.yul\":13104:13109   */\n      dup3\n        /* \"#utility.yul\":13071:13110   */\n      tag_213\n      jump\t// in\n    tag_360:\n        /* \"#utility.yul\":13126:13215   */\n      tag_361\n        /* \"#utility.yul\":13208:13214   */\n      dup2\n        /* \"#utility.yul\":13203:13206   */\n      dup6\n        /* \"#utility.yul\":13126:13215   */\n      tag_210\n      jump\t// in\n    tag_361:\n        /* \"#utility.yul\":13119:13215   */\n      swap4\n      pop\n        /* \"#utility.yul\":13224:13289   */\n      tag_362\n        /* \"#utility.yul\":13282:13288   */\n      dup2\n        /* \"#utility.yul\":13277:13280   */\n      dup6\n        /* \"#utility.yul\":13270:13274   */\n      0x20\n        /* \"#utility.yul\":13263:13268   */\n      dup7\n        /* \"#utility.yul\":13259:13275   */\n      add\n        /* \"#utility.yul\":13224:13289   */\n      tag_214\n      jump\t// in\n    tag_362:\n        /* \"#utility.yul\":13314:13320   */\n      dup1\n        /* \"#utility.yul\":13309:13312   */\n      dup5\n        /* \"#utility.yul\":13305:13321   */\n      add\n        /* \"#utility.yul\":13298:13321   */\n      swap2\n      pop\n        /* \"#utility.yul\":13047:13327   */\n      pop\n        /* \"#utility.yul\":12937:13327   */\n      swap3\n      swap2\n      pop\n      pop\n      jump\t// out\n        /* \"#utility.yul\":13333:13874   */\n    tag_119:\n        /* \"#utility.yul\":13566:13569   */\n      0x00\n        /* \"#utility.yul\":13588:13736   */\n      tag_364\n        /* \"#utility.yul\":13732:13735   */\n      dup3\n        /* \"#utility.yul\":13588:13736   */\n      tag_212\n      jump\t// in\n    tag_364:\n        /* \"#utility.yul\":13581:13736   */\n      swap2\n      pop\n        /* \"#utility.yul\":13753:13848   */\n      tag_365\n        /* \"#utility.yul\":13844:13847   */\n      dup3\n        /* \"#utility.yul\":13835:13841   */\n      dup5\n        /* \"#utility.yul\":13753:13848   */\n      tag_215\n      jump\t// in\n    tag_365:\n        /* \"#utility.yul\":13746:13848   */\n      swap2\n      pop\n        /* \"#utility.yul\":13865:13868   */\n      dup2\n        /* \"#utility.yul\":13858:13868   */\n      swap1\n      pop\n        /* \"#utility.yul\":13333:13874   */\n      swap3\n      swap2\n      pop\n      pop\n      jump\t// out\n        /* \"#utility.yul\":13880:13982   */\n    tag_216:\n        /* \"#utility.yul\":13921:13927   */\n      0x00\n        /* \"#utility.yul\":13972:13974   */\n      0x1f\n        /* \"#utility.yul\":13968:13975   */\n      not\n        /* \"#utility.yul\":13963:13965   */\n      0x1f\n        /* \"#utility.yul\":13956:13961   */\n      dup4\n        /* \"#utility.yul\":13952:13966   */\n      add\n        /* \"#utility.yul\":13948:13976   */\n      and\n        /* \"#utility.yul\":13938:13976   */\n      swap1\n      pop\n        /* \"#utility.yul\":13880:13982   */\n      swap2\n      swap1\n      pop\n      jump\t// out\n        /* \"#utility.yul\":13988:14365   */\n    tag_217:\n        /* \"#utility.yul\":14076:14079   */\n      0x00\n        /* \"#utility.yul\":14104:14143   */\n      tag_368\n        /* \"#utility.yul\":14137:14142   */\n      dup3\n        /* \"#utility.yul\":14104:14143   */\n      tag_213\n      jump\t// in\n    tag_368:\n        /* \"#utility.yul\":14159:14230   */\n      tag_369\n        /* \"#utility.yul\":14223:14229   */\n      dup2\n        /* \"#utility.yul\":14218:14221   */\n      dup6\n        /* \"#utility.yul\":14159:14230   */\n      tag_201\n      jump\t// in\n    tag_369:\n        /* \"#utility.yul\":14152:14230   */\n      swap4\n      pop\n        /* \"#utility.yul\":14239:14304   */\n      tag_370\n        /* \"#utility.yul\":14297:14303   */\n      dup2\n        /* \"#utility.yul\":14292:14295   */\n      dup6\n        /* \"#utility.yul\":14285:14289   */\n      0x20\n        /* \"#utility.yul\":14278:14283   */\n      dup7\n        /* \"#utility.yul\":14274:14290   */\n      add\n        /* \"#utility.yul\":14239:14304   */\n      tag_214\n      jump\t// in\n    tag_370:\n        /* \"#utility.yul\":14329:14358   */\n      tag_371\n        /* \"#utility.yul\":14351:14357   */\n      dup2\n        /* \"#utility.yul\":14329:14358   */\n      tag_216\n      jump\t// in\n    tag_371:\n        /* \"#utility.yul\":14324:14327   */\n      dup5\n        /* \"#utility.yul\":14320:14359   */\n      add\n        /* \"#utility.yul\":14313:14359   */\n      swap2\n      pop\n        /* \"#utility.yul\":14080:14365   */\n      pop\n        /* \"#utility.yul\":13988:14365   */\n      swap3\n      swap2\n      pop\n      pop\n      jump\t// out\n        /* \"#utility.yul\":14371:14684   */\n    tag_122:\n        /* \"#utility.yul\":14484:14488   */\n      0x00\n        /* \"#utility.yul\":14522:14524   */\n      0x20\n        /* \"#utility.yul\":14511:14520   */\n      dup3\n        /* \"#utility.yul\":14507:14525   */\n      add\n        /* \"#utility.yul\":14499:14525   */\n      swap1\n      pop\n        /* \"#utility.yul\":14571:14580   */\n      dup2\n        /* \"#utility.yul\":14565:14569   */\n      dup2\n        /* \"#utility.yul\":14561:14581   */\n      sub\n        /* \"#utility.yul\":14557:14558   */\n      0x00\n        /* \"#utility.yul\":14546:14555   */\n      dup4\n        /* \"#utility.yul\":14542:14559   */\n      add\n        /* \"#utility.yul\":14535:14582   */\n      mstore\n        /* \"#utility.yul\":14599:14677   */\n      tag_373\n        /* \"#utility.yul\":14672:14676   */\n      dup2\n        /* \"#utility.yul\":14663:14669   */\n      dup5\n        /* \"#utility.yul\":14599:14677   */\n      tag_217\n      jump\t// in\n    tag_373:\n        /* \"#utility.yul\":14591:14677   */\n      swap1\n      pop\n        /* \"#utility.yul\":14371:14684   */\n      swap3\n      swap2\n      pop\n      pop\n      jump\t// out\n        /* \"#utility.yul\":14690:14933   */\n    tag_218:\n        /* \"#utility.yul\":14830:14864   */\n      0x5469636b6574207072696365206d75737420626520657175616c20746f207468\n        /* \"#utility.yul\":14826:14827   */\n      0x00\n        /* \"#utility.yul\":14818:14824   */\n      dup3\n        /* \"#utility.yul\":14814:14828   */\n      add\n        /* \"#utility.yul\":14807:14865   */\n      mstore\n        /* \"#utility.yul\":14899:14925   */\n      0x65207265717569726564207469636b65742070726963652e0000000000000000\n        /* \"#utility.yul\":14894:14896   */\n      0x20\n        /* \"#utility.yul\":14886:14892   */\n      dup3\n        /* \"#utility.yul\":14882:14897   */\n      add\n        /* \"#utility.yul\":14875:14926   */\n      mstore\n        /* \"#utility.yul\":14690:14933   */\n      pop\n      jump\t// out\n        /* \"#utility.yul\":14939:15305   */\n    tag_219:\n        /* \"#utility.yul\":15081:15084   */\n      0x00\n        /* \"#utility.yul\":15102:15169   */\n      tag_376\n        /* \"#utility.yul\":15166:15168   */\n      0x38\n        /* \"#utility.yul\":15161:15164   */\n      dup4\n        /* \"#utility.yul\":15102:15169   */\n      tag_201\n      jump\t// in\n    tag_376:\n        /* \"#utility.yul\":15095:15169   */\n      swap2\n      pop\n        /* \"#utility.yul\":15178:15271   */\n      tag_377\n        /* \"#utility.yul\":15267:15270   */\n      dup3\n        /* \"#utility.yul\":15178:15271   */\n      tag_218\n      jump\t// in\n    tag_377:\n        /* \"#utility.yul\":15296:15298   */\n      0x40\n        /* \"#utility.yul\":15291:15294   */\n      dup3\n        /* \"#utility.yul\":15287:15299   */\n      add\n        /* \"#utility.yul\":15280:15299   */\n      swap1\n      pop\n        /* \"#utility.yul\":14939:15305   */\n      swap2\n      swap1\n      pop\n      jump\t// out\n        /* \"#utility.yul\":15311:15730   */\n    tag_125:\n        /* \"#utility.yul\":15477:15481   */\n      0x00\n        /* \"#utility.yul\":15515:15517   */\n      0x20\n        /* \"#utility.yul\":15504:15513   */\n      dup3\n        /* \"#utility.yul\":15500:15518   */\n      add\n        /* \"#utility.yul\":15492:15518   */\n      swap1\n      pop\n        /* \"#utility.yul\":15564:15573   */\n      dup2\n        /* \"#utility.yul\":15558:15562   */\n      dup2\n        /* \"#utility.yul\":15554:15574   */\n      sub\n        /* \"#utility.yul\":15550:15551   */\n      0x00\n        /* \"#utility.yul\":15539:15548   */\n      dup4\n        /* \"#utility.yul\":15535:15552   */\n      add\n        /* \"#utility.yul\":15528:15575   */\n      mstore\n        /* \"#utility.yul\":15592:15723   */\n      tag_379\n        /* \"#utility.yul\":15718:15722   */\n      dup2\n        /* \"#utility.yul\":15592:15723   */\n      tag_219\n      jump\t// in\n    tag_379:\n        /* \"#utility.yul\":15584:15723   */\n      swap1\n      pop\n        /* \"#utility.yul\":15311:15730   */\n      swap2\n      swap1\n      pop\n      jump\t// out\n        /* \"#utility.yul\":15736:15854   */\n    tag_220:\n        /* \"#utility.yul\":15823:15847   */\n      tag_381\n        /* \"#utility.yul\":15841:15846   */\n      dup2\n        /* \"#utility.yul\":15823:15847   */\n      tag_183\n      jump\t// in\n    tag_381:\n        /* \"#utility.yul\":15818:15821   */\n      dup3\n        /* \"#utility.yul\":15811:15848   */\n      mstore\n        /* \"#utility.yul\":15736:15854   */\n      pop\n      pop\n      jump\t// out\n        /* \"#utility.yul\":15860:16082   */\n    tag_127:\n        /* \"#utility.yul\":15953:15957   */\n      0x00\n        /* \"#utility.yul\":15991:15993   */\n      0x20\n        /* \"#utility.yul\":15980:15989   */\n      dup3\n        /* \"#utility.yul\":15976:15994   */\n      add\n        /* \"#utility.yul\":15968:15994   */\n      swap1\n      pop\n        /* \"#utility.yul\":16004:16075   */\n      tag_383\n        /* \"#utility.yul\":16072:16073   */\n      0x00\n        /* \"#utility.yul\":16061:16070   */\n      dup4\n        /* \"#utility.yul\":16057:16074   */\n      add\n        /* \"#utility.yul\":16048:16054   */\n      dup5\n        /* \"#utility.yul\":16004:16075   */\n      tag_220\n      jump\t// in\n    tag_383:\n        /* \"#utility.yul\":15860:16082   */\n      swap3\n      swap2\n      pop\n      pop\n      jump\t// out\n        /* \"#utility.yul\":16088:16204   */\n    tag_221:\n        /* \"#utility.yul\":16158:16179   */\n      tag_385\n        /* \"#utility.yul\":16173:16178   */\n      dup2\n        /* \"#utility.yul\":16158:16179   */\n      tag_186\n      jump\t// in\n    tag_385:\n        /* \"#utility.yul\":16151:16156   */\n      dup2\n        /* \"#utility.yul\":16148:16180   */\n      eq\n        /* \"#utility.yul\":16138:16198   */\n      tag_386\n      jumpi\n        /* \"#utility.yul\":16194:16195   */\n      0x00\n        /* \"#utility.yul\":16191:16192   */\n      dup1\n        /* \"#utility.yul\":16184:16196   */\n      revert\n        /* \"#utility.yul\":16138:16198   */\n    tag_386:\n        /* \"#utility.yul\":16088:16204   */\n      pop\n      jump\t// out\n        /* \"#utility.yul\":16210:16347   */\n    tag_222:\n        /* \"#utility.yul\":16264:16269   */\n      0x00\n        /* \"#utility.yul\":16295:16301   */\n      dup2\n        /* \"#utility.yul\":16289:16302   */\n      mload\n        /* \"#utility.yul\":16280:16302   */\n      swap1\n      pop\n        /* \"#utility.yul\":16311:16341   */\n      tag_388\n        /* \"#utility.yul\":16335:16340   */\n      dup2\n        /* \"#utility.yul\":16311:16341   */\n      tag_221\n      jump\t// in\n    tag_388:\n        /* \"#utility.yul\":16210:16347   */\n      swap3\n      swap2\n      pop\n      pop\n      jump\t// out\n        /* \"#utility.yul\":16353:16698   */\n    tag_131:\n        /* \"#utility.yul\":16420:16426   */\n      0x00\n        /* \"#utility.yul\":16469:16471   */\n      0x20\n        /* \"#utility.yul\":16457:16466   */\n      dup3\n        /* \"#utility.yul\":16448:16455   */\n      dup5\n        /* \"#utility.yul\":16444:16467   */\n      sub\n        /* \"#utility.yul\":16440:16472   */\n      slt\n        /* \"#utility.yul\":16437:16556   */\n      iszero\n      tag_390\n      jumpi\n        /* \"#utility.yul\":16475:16554   */\n      tag_391\n      tag_180\n      jump\t// in\n    tag_391:\n        /* \"#utility.yul\":16437:16556   */\n    tag_390:\n        /* \"#utility.yul\":16595:16596   */\n      0x00\n        /* \"#utility.yul\":16620:16681   */\n      tag_392\n        /* \"#utility.yul\":16673:16680   */\n      dup5\n        /* \"#utility.yul\":16664:16670   */\n      dup3\n        /* \"#utility.yul\":16653:16662   */\n      dup6\n        /* \"#utility.yul\":16649:16671   */\n      add\n        /* \"#utility.yul\":16620:16681   */\n      tag_222\n      jump\t// in\n    tag_392:\n        /* \"#utility.yul\":16610:16681   */\n      swap2\n      pop\n        /* \"#utility.yul\":16566:16691   */\n      pop\n        /* \"#utility.yul\":16353:16698   */\n      swap3\n      swap2\n      pop\n      pop\n      jump\t// out\n        /* \"#utility.yul\":16704:16885   */\n    tag_223:\n        /* \"#utility.yul\":16844:16877   */\n      0x5468697320506c617965722068617320616c726561647920656e746572656400\n        /* \"#utility.yul\":16840:16841   */\n      0x00\n        /* \"#utility.yul\":16832:16838   */\n      dup3\n        /* \"#utility.yul\":16828:16842   */\n      add\n        /* \"#utility.yul\":16821:16878   */\n      mstore\n        /* \"#utility.yul\":16704:16885   */\n      pop\n      jump\t// out\n        /* \"#utility.yul\":16891:17257   */\n    tag_224:\n        /* \"#utility.yul\":17033:17036   */\n      0x00\n        /* \"#utility.yul\":17054:17121   */\n      tag_395\n        /* \"#utility.yul\":17118:17120   */\n      0x1f\n        /* \"#utility.yul\":17113:17116   */\n      dup4\n        /* \"#utility.yul\":17054:17121   */\n      tag_201\n      jump\t// in\n    tag_395:\n        /* \"#utility.yul\":17047:17121   */\n      swap2\n      pop\n        /* \"#utility.yul\":17130:17223   */\n      tag_396\n        /* \"#utility.yul\":17219:17222   */\n      dup3\n        /* \"#utility.yul\":17130:17223   */\n      tag_223\n      jump\t// in\n    tag_396:\n        /* \"#utility.yul\":17248:17250   */\n      0x20\n        /* \"#utility.yul\":17243:17246   */\n      dup3\n        /* \"#utility.yul\":17239:17251   */\n      add\n        /* \"#utility.yul\":17232:17251   */\n      swap1\n      pop\n        /* \"#utility.yul\":16891:17257   */\n      swap2\n      swap1\n      pop\n      jump\t// out\n        /* \"#utility.yul\":17263:17682   */\n    tag_134:\n        /* \"#utility.yul\":17429:17433   */\n      0x00\n        /* \"#utility.yul\":17467:17469   */\n      0x20\n        /* \"#utility.yul\":17456:17465   */\n      dup3\n        /* \"#utility.yul\":17452:17470   */\n      add\n        /* \"#utility.yul\":17444:17470   */\n      swap1\n      pop\n        /* \"#utility.yul\":17516:17525   */\n      dup2\n        /* \"#utility.yul\":17510:17514   */\n      dup2\n        /* \"#utility.yul\":17506:17526   */\n      sub\n        /* \"#utility.yul\":17502:17503   */\n      0x00\n        /* \"#utility.yul\":17491:17500   */\n      dup4\n        /* \"#utility.yul\":17487:17504   */\n      add\n        /* \"#utility.yul\":17480:17527   */\n      mstore\n        /* \"#utility.yul\":17544:17675   */\n      tag_398\n        /* \"#utility.yul\":17670:17674   */\n      dup2\n        /* \"#utility.yul\":17544:17675   */\n      tag_224\n      jump\t// in\n    tag_398:\n        /* \"#utility.yul\":17536:17675   */\n      swap1\n      pop\n        /* \"#utility.yul\":17263:17682   */\n      swap2\n      swap1\n      pop\n      jump\t// out\n        /* \"#utility.yul\":17688:17863   */\n    tag_225:\n        /* \"#utility.yul\":17828:17855   */\n      0x546865726520617265206e6f2057696e6e657273207965742e00000000000000\n        /* \"#utility.yul\":17824:17825   */\n      0x00\n        /* \"#utility.yul\":17816:17822   */\n      dup3\n        /* \"#utility.yul\":17812:17826   */\n      add\n        /* \"#utility.yul\":17805:17856   */\n      mstore\n        /* \"#utility.yul\":17688:17863   */\n      pop\n      jump\t// out\n        /* \"#utility.yul\":17869:18235   */\n    tag_226:\n        /* \"#utility.yul\":18011:18014   */\n      0x00\n        /* \"#utility.yul\":18032:18099   */\n      tag_401\n        /* \"#utility.yul\":18096:18098   */\n      0x19\n        /* \"#utility.yul\":18091:18094   */\n      dup4\n        /* \"#utility.yul\":18032:18099   */\n      tag_201\n      jump\t// in\n    tag_401:\n        /* \"#utility.yul\":18025:18099   */\n      swap2\n      pop\n        /* \"#utility.yul\":18108:18201   */\n      tag_402\n        /* \"#utility.yul\":18197:18200   */\n      dup3\n        /* \"#utility.yul\":18108:18201   */\n      tag_225\n      jump\t// in\n    tag_402:\n        /* \"#utility.yul\":18226:18228   */\n      0x20\n        /* \"#utility.yul\":18221:18224   */\n      dup3\n        /* \"#utility.yul\":18217:18229   */\n      add\n        /* \"#utility.yul\":18210:18229   */\n      swap1\n      pop\n        /* \"#utility.yul\":17869:18235   */\n      swap2\n      swap1\n      pop\n      jump\t// out\n        /* \"#utility.yul\":18241:18660   */\n    tag_149:\n        /* \"#utility.yul\":18407:18411   */\n      0x00\n        /* \"#utility.yul\":18445:18447   */\n      0x20\n        /* \"#utility.yul\":18434:18443   */\n      dup3\n        /* \"#utility.yul\":18430:18448   */\n      add\n        /* \"#utility.yul\":18422:18448   */\n      swap1\n      pop\n        /* \"#utility.yul\":18494:18503   */\n      dup2\n        /* \"#utility.yul\":18488:18492   */\n      dup2\n        /* \"#utility.yul\":18484:18504   */\n      sub\n        /* \"#utility.yul\":18480:18481   */\n      0x00\n        /* \"#utility.yul\":18469:18478   */\n      dup4\n        /* \"#utility.yul\":18465:18482   */\n      add\n        /* \"#utility.yul\":18458:18505   */\n      mstore\n        /* \"#utility.yul\":18522:18653   */\n      tag_404\n        /* \"#utility.yul\":18648:18652   */\n      dup2\n        /* \"#utility.yul\":18522:18653   */\n      tag_226\n      jump\t// in\n    tag_404:\n        /* \"#utility.yul\":18514:18653   */\n      swap1\n      pop\n        /* \"#utility.yul\":18241:18660   */\n      swap2\n      swap1\n      pop\n      jump\t// out\n        /* \"#utility.yul\":18666:18745   */\n    tag_227:\n        /* \"#utility.yul\":18705:18712   */\n      0x00\n        /* \"#utility.yul\":18734:18739   */\n      dup2\n        /* \"#utility.yul\":18723:18739   */\n      swap1\n      pop\n        /* \"#utility.yul\":18666:18745   */\n      swap2\n      swap1\n      pop\n      jump\t// out\n        /* \"#utility.yul\":18751:18908   */\n    tag_228:\n        /* \"#utility.yul\":18856:18901   */\n      tag_407\n        /* \"#utility.yul\":18876:18900   */\n      tag_408\n        /* \"#utility.yul\":18894:18899   */\n      dup3\n        /* \"#utility.yul\":18876:18900   */\n      tag_173\n      jump\t// in\n    tag_408:\n        /* \"#utility.yul\":18856:18901   */\n      tag_227\n      jump\t// in\n    tag_407:\n        /* \"#utility.yul\":18851:18854   */\n      dup3\n        /* \"#utility.yul\":18844:18902   */\n      mstore\n        /* \"#utility.yul\":18751:18908   */\n      pop\n      pop\n      jump\t// out\n        /* \"#utility.yul\":18914:19452   */\n    tag_163:\n        /* \"#utility.yul\":19082:19085   */\n      0x00\n        /* \"#utility.yul\":19097:19172   */\n      tag_410\n        /* \"#utility.yul\":19168:19171   */\n      dup3\n        /* \"#utility.yul\":19159:19165   */\n      dup7\n        /* \"#utility.yul\":19097:19172   */\n      tag_228\n      jump\t// in\n    tag_410:\n        /* \"#utility.yul\":19197:19199   */\n      0x20\n        /* \"#utility.yul\":19192:19195   */\n      dup3\n        /* \"#utility.yul\":19188:19200   */\n      add\n        /* \"#utility.yul\":19181:19200   */\n      swap2\n      pop\n        /* \"#utility.yul\":19210:19285   */\n      tag_411\n        /* \"#utility.yul\":19281:19284   */\n      dup3\n        /* \"#utility.yul\":19272:19278   */\n      dup6\n        /* \"#utility.yul\":19210:19285   */\n      tag_228\n      jump\t// in\n    tag_411:\n        /* \"#utility.yul\":19310:19312   */\n      0x20\n        /* \"#utility.yul\":19305:19308   */\n      dup3\n        /* \"#utility.yul\":19301:19313   */\n      add\n        /* \"#utility.yul\":19294:19313   */\n      swap2\n      pop\n        /* \"#utility.yul\":19323:19398   */\n      tag_412\n        /* \"#utility.yul\":19394:19397   */\n      dup3\n        /* \"#utility.yul\":19385:19391   */\n      dup5\n        /* \"#utility.yul\":19323:19398   */\n      tag_228\n      jump\t// in\n    tag_412:\n        /* \"#utility.yul\":19423:19425   */\n      0x20\n        /* \"#utility.yul\":19418:19421   */\n      dup3\n        /* \"#utility.yul\":19414:19426   */\n      add\n        /* \"#utility.yul\":19407:19426   */\n      swap2\n      pop\n        /* \"#utility.yul\":19443:19446   */\n      dup2\n        /* \"#utility.yul\":19436:19446   */\n      swap1\n      pop\n        /* \"#utility.yul\":18914:19452   */\n      swap5\n      swap4\n      pop\n      pop\n      pop\n      pop\n      jump\t// out\n        /* \"#utility.yul\":19458:19616   */\n    tag_229:\n        /* \"#utility.yul\":19598:19608   */\n      0x207365636f6e6473000000000000000000000000000000000000000000000000\n        /* \"#utility.yul\":19594:19595   */\n      0x00\n        /* \"#utility.yul\":19586:19592   */\n      dup3\n        /* \"#utility.yul\":19582:19596   */\n      add\n        /* \"#utility.yul\":19575:19609   */\n      mstore\n        /* \"#utility.yul\":19458:19616   */\n      pop\n      jump\t// out\n        /* \"#utility.yul\":19622:20022   */\n    tag_230:\n        /* \"#utility.yul\":19782:19785   */\n      0x00\n        /* \"#utility.yul\":19803:19887   */\n      tag_415\n        /* \"#utility.yul\":19885:19886   */\n      0x08\n        /* \"#utility.yul\":19880:19883   */\n      dup4\n        /* \"#utility.yul\":19803:19887   */\n      tag_210\n      jump\t// in\n    tag_415:\n        /* \"#utility.yul\":19796:19887   */\n      swap2\n      pop\n        /* \"#utility.yul\":19896:19989   */\n      tag_416\n        /* \"#utility.yul\":19985:19988   */\n      dup3\n        /* \"#utility.yul\":19896:19989   */\n      tag_229\n      jump\t// in\n    tag_416:\n        /* \"#utility.yul\":20014:20015   */\n      0x08\n        /* \"#utility.yul\":20009:20012   */\n      dup3\n        /* \"#utility.yul\":20005:20016   */\n      add\n        /* \"#utility.yul\":19998:20016   */\n      swap1\n      pop\n        /* \"#utility.yul\":19622:20022   */\n      swap2\n      swap1\n      pop\n      jump\t// out\n        /* \"#utility.yul\":20028:20550   */\n    tag_167:\n        /* \"#utility.yul\":20241:20244   */\n      0x00\n        /* \"#utility.yul\":20256:20331   */\n      tag_418\n        /* \"#utility.yul\":20327:20330   */\n      dup3\n        /* \"#utility.yul\":20318:20324   */\n      dup5\n        /* \"#utility.yul\":20256:20331   */\n      tag_228\n      jump\t// in\n    tag_418:\n        /* \"#utility.yul\":20356:20358   */\n      0x20\n        /* \"#utility.yul\":20351:20354   */\n      dup3\n        /* \"#utility.yul\":20347:20359   */\n      add\n        /* \"#utility.yul\":20340:20359   */\n      swap2\n      pop\n        /* \"#utility.yul\":20376:20524   */\n      tag_419\n        /* \"#utility.yul\":20520:20523   */\n      dup3\n        /* \"#utility.yul\":20376:20524   */\n      tag_230\n      jump\t// in\n    tag_419:\n        /* \"#utility.yul\":20369:20524   */\n      swap2\n      pop\n        /* \"#utility.yul\":20541:20544   */\n      dup2\n        /* \"#utility.yul\":20534:20544   */\n      swap1\n      pop\n        /* \"#utility.yul\":20028:20550   */\n      swap3\n      swap2\n      pop\n      pop\n      jump\t// out\n\n    auxdata: 0xa2646970667358221220a3c304f7dfa2c15c86965f663bb96a70cd2df2ef7611c0275e9a70179497126f64736f6c63430008120033\n}\n",
				"bytecode": {
					"linkReferences": {},
					"object": "60806040523480156200001157600080fd5b5060405162001b0f38038062001b0f833981810160405281019062000037919062000113565b336000806101000a81548173ffffffffffffffffffffffffffffffffffffffff021916908373ffffffffffffffffffffffffffffffffffffffff1602179055508260038190555081600481905550806007819055506000600960006101000a81548160ff02191690836003811115620000b557620000b46200016f565b5b0217905550600060058190555060006006819055505050506200019e565b600080fd5b6000819050919050565b620000ed81620000d8565b8114620000f957600080fd5b50565b6000815190506200010d81620000e2565b92915050565b6000806000606084860312156200012f576200012e620000d3565b5b60006200013f86828701620000fc565b93505060206200015286828701620000fc565b92505060406200016586828701620000fc565b9150509250925092565b7f4e487b7100000000000000000000000000000000000000000000000000000000600052602160045260246000fd5b61196180620001ae6000396000f3fe6080604052600436106100865760003560e01c80638b5b9ccc116100595780638b5b9ccc14610135578063a59f3e0c14610160578063b844007c1461017c578063cfbd900f146101a7578063e0764487146101d257610086565b80631209b1f61461008b578063378aa701146100b65780635d495aea146100e1578063680719bb146100f8575b600080fd5b34801561009757600080fd5b506100a06101fd565b6040516100ad9190610ea2565b60405180910390f35b3480156100c257600080fd5b506100cb610203565b6040516100d89190610f34565b60405180910390f35b3480156100ed57600080fd5b506100f661021a565b005b34801561010457600080fd5b5061011f600480360381019061011a9190610fb2565b6107b5565b60405161012c9190610ffa565b60405180910390f35b34801561014157600080fd5b5061014a610863565b60405161015791906110e5565b60405180910390f35b61017a60048036038101906101759190611133565b6108f1565b005b34801561018857600080fd5b50610191610be0565b60405161019e91906111ad565b60405180910390f35b3480156101b357600080fd5b506101bc610d9f565b6040516101c99190610ea2565b60405180910390f35b3480156101de57600080fd5b506101e7610da5565b6040516101f49190610ea2565b60405180910390f35b60035481565b6000600960009054906101000a900460ff16905090565b60008054906101000a900473ffffffffffffffffffffffffffffffffffffffff1673ffffffffffffffffffffffffffffffffffffffff163373ffffffffffffffffffffffffffffffffffffffff16146102a8576040517f08c379a000000000000000000000000000000000000000000000000000000000815260040161029f9061124b565b60405180910390fd5b600160038111156102bc576102bb610ebd565b5b600960009054906101000a900460ff1660038111156102de576102dd610ebd565b5b1461031e576040517f08c379a0000000000000000000000000000000000000000000000000000000008152600401610315906112dd565b60405180910390fd5b60055460065410610364576040517f08c379a000000000000000000000000000000000000000000000000000000000815260040161035b9061136f565b60405180910390fd5b600060065460055461037691906113be565b61037e610dab565b6103889190611421565b905060016006548261039a9190611452565b815481106103ab576103aa611486565b5b9060005260206000200160009054906101000a900473ffffffffffffffffffffffffffffffffffffffff16600260006101000a81548173ffffffffffffffffffffffffffffffffffffffff021916908373ffffffffffffffffffffffffffffffffffffffff16021790555060066000815480929190610429906114b5565b91905055506003600960006101000a81548160ff0219169083600381111561045457610453610ebd565b5b021790555060005b6001805490508110156106d557600260009054906101000a900473ffffffffffffffffffffffffffffffffffffffff1673ffffffffffffffffffffffffffffffffffffffff16600182815481106104b6576104b5611486565b5b9060005260206000200160009054906101000a900473ffffffffffffffffffffffffffffffffffffffff1673ffffffffffffffffffffffffffffffffffffffff16036105e157600a6040518060400160405280600260009054906101000a900473ffffffffffffffffffffffffffffffffffffffff1673ffffffffffffffffffffffffffffffffffffffff168152602001600115158152509080600181540180825580915050600190039060005260206000200160009091909190915060008201518160000160006101000a81548173ffffffffffffffffffffffffffffffffffffffff021916908373ffffffffffffffffffffffffffffffffffffffff16021790555060208201518160000160146101000a81548160ff02191690831515021790555050506106c2565b600a6040518060400160405280600260009054906101000a900473ffffffffffffffffffffffffffffffffffffffff1673ffffffffffffffffffffffffffffffffffffffff168152602001600015158152509080600181540180825580915050600190039060005260206000200160009091909190915060008201518160000160006101000a81548173ffffffffffffffffffffffffffffffffffffffff021916908373ffffffffffffffffffffffffffffffffffffffff16021790555060208201518160000160146101000a81548160ff02191690831515021790555050505b80806106cd906114b5565b91505061045c565b50600260009054906101000a900473ffffffffffffffffffffffffffffffffffffffff1673ffffffffffffffffffffffffffffffffffffffff167f5b690ec4a06fe979403046eaeea5b3ce38524683c3001f662c8b5a829632f7df60405160405180910390a2600260009054906101000a900473ffffffffffffffffffffffffffffffffffffffff1673ffffffffffffffffffffffffffffffffffffffff166108fc479081150290604051600060405180830381858888f193505050501580156107a3573d6000803e3d6000fd5b50600160006107b29190610e19565b50565b600080600090505b600180549050811015610858578273ffffffffffffffffffffffffffffffffffffffff16600182815481106107f5576107f4611486565b5b9060005260206000200160009054906101000a900473ffffffffffffffffffffffffffffffffffffffff1673ffffffffffffffffffffffffffffffffffffffff160361084557600191505061085e565b8080610850906114b5565b9150506107bd565b50600090505b919050565b606060018054806020026020016040519081016040528092919081815260200182805480156108e757602002820191906000526020600020905b8160009054906101000a900473ffffffffffffffffffffffffffffffffffffffff1673ffffffffffffffffffffffffffffffffffffffff168152602001906001019080831161089d575b5050505050905090565b426008541115610976576000610905610de5565b905060008160405160200161091a91906115e0565b604051602081830303815290604052905060085442118190610972576040517f08c379a0000000000000000000000000000000000000000000000000000000008152600401610969919061164c565b60405180910390fd5b5050505b6003548110156109bb576040517f08c379a00000000000000000000000000000000000000000000000000000000081526004016109b2906116e0565b60405180910390fd5b3073ffffffffffffffffffffffffffffffffffffffff1663680719bb336040518263ffffffff1660e01b81526004016109f4919061170f565b602060405180830381865afa158015610a11573d6000803e3d6000fd5b505050506040513d601f19601f82011682018060405250810190610a359190611756565b15610a75576040517f08c379a0000000000000000000000000000000000000000000000000000000008152600401610a6c906117cf565b60405180910390fd5b6000600960006101000a81548160ff02191690836003811115610a9b57610a9a610ebd565b5b02179055506001339080600181540180825580915050600190039060005260206000200160009091909190916101000a81548173ffffffffffffffffffffffffffffffffffffffff021916908373ffffffffffffffffffffffffffffffffffffffff16021790555060056000815480929190610b16906114b5565b91905055503373ffffffffffffffffffffffffffffffffffffffff167fb99735857dcdc72249cabb2a63977805de8a83268ff5f84700cd9da7017130c560405160405180910390a260045460055410610bdd576001600960006101000a81548160ff02191690836003811115610b8f57610b8e610ebd565b5b02179055507ffc2b180437972a94a98d643b705025c6263c595cce057cc3d910384b8d1d210c60405160405180910390a1610bc861021a565b60075442610bd69190611452565b6008819055505b50565b610be8610e3a565b6000600a8054905011610c30576040517f08c379a0000000000000000000000000000000000000000000000000000000008152600401610c279061183b565b60405180910390fd5b60005b600a80549050811015610d69573373ffffffffffffffffffffffffffffffffffffffff16600a8281548110610c6b57610c6a611486565b5b9060005260206000200160000160009054906101000a900473ffffffffffffffffffffffffffffffffffffffff1673ffffffffffffffffffffffffffffffffffffffff1603610d5657600a8181548110610cc857610cc7611486565b5b906000526020600020016040518060400160405290816000820160009054906101000a900473ffffffffffffffffffffffffffffffffffffffff1673ffffffffffffffffffffffffffffffffffffffff1673ffffffffffffffffffffffffffffffffffffffff1681526020016000820160149054906101000a900460ff161515151581525050915050610d9c565b8080610d61906114b5565b915050610c33565b506040518060400160405280600073ffffffffffffffffffffffffffffffffffffffff1681526020016000151581525090505b90565b60055481565b60045481565b60004442600180549050604051602001610dc79392919061187c565b6040516020818303038152906040528051906020012060001c905090565b606042600854610df591906113be565b604051602001610e059190611905565b604051602081830303815290604052905090565b5080546000825590600052602060002090810190610e379190610e6c565b50565b6040518060400160405280600073ffffffffffffffffffffffffffffffffffffffff1681526020016000151581525090565b5b80821115610e85576000816000905550600101610e6d565b5090565b6000819050919050565b610e9c81610e89565b82525050565b6000602082019050610eb76000830184610e93565b92915050565b7f4e487b7100000000000000000000000000000000000000000000000000000000600052602160045260246000fd5b60048110610efd57610efc610ebd565b5b50565b6000819050610f0e82610eec565b919050565b6000610f1e82610f00565b9050919050565b610f2e81610f13565b82525050565b6000602082019050610f496000830184610f25565b92915050565b600080fd5b600073ffffffffffffffffffffffffffffffffffffffff82169050919050565b6000610f7f82610f54565b9050919050565b610f8f81610f74565b8114610f9a57600080fd5b50565b600081359050610fac81610f86565b92915050565b600060208284031215610fc857610fc7610f4f565b5b6000610fd684828501610f9d565b91505092915050565b60008115159050919050565b610ff481610fdf565b82525050565b600060208201905061100f6000830184610feb565b92915050565b600081519050919050565b600082825260208201905092915050565b6000819050602082019050919050565b600061104c82610f54565b9050919050565b61105c81611041565b82525050565b600061106e8383611053565b60208301905092915050565b6000602082019050919050565b600061109282611015565b61109c8185611020565b93506110a783611031565b8060005b838110156110d85781516110bf8882611062565b97506110ca8361107a565b9250506001810190506110ab565b5085935050505092915050565b600060208201905081810360008301526110ff8184611087565b905092915050565b61111081610e89565b811461111b57600080fd5b50565b60008135905061112d81611107565b92915050565b60006020828403121561114957611148610f4f565b5b60006111578482850161111e565b91505092915050565b61116981610f74565b82525050565b61117881610fdf565b82525050565b6040820160008201516111946000850182611160565b5060208201516111a7602085018261116f565b50505050565b60006040820190506111c2600083018461117e565b92915050565b600082825260208201905092915050565b7f4f6e6c7920746865206d616e616765722063616e2063616c6c2074686973206660008201527f756e6374696f6e2e000000000000000000000000000000000000000000000000602082015250565b60006112356028836111c8565b9150611240826111d9565b604082019050919050565b6000602082019050818103600083015261126481611228565b9050919050565b7f4c6f7474657279206d75737420626520636c6f736564206265666f726520706960008201527f636b696e6720612077696e6e65722e0000000000000000000000000000000000602082015250565b60006112c7602f836111c8565b91506112d28261126b565b604082019050919050565b600060208201905081810360008301526112f6816112ba565b9050919050565b7f4e6f206d6f726520706c617965727320746f207069636b20612077696e6e657260008201527f2066726f6d2e0000000000000000000000000000000000000000000000000000602082015250565b60006113596026836111c8565b9150611364826112fd565b604082019050919050565b600060208201905081810360008301526113888161134c565b9050919050565b7f4e487b7100000000000000000000000000000000000000000000000000000000600052601160045260246000fd5b60006113c982610e89565b91506113d483610e89565b92508282039050818111156113ec576113eb61138f565b5b92915050565b7f4e487b7100000000000000000000000000000000000000000000000000000000600052601260045260246000fd5b600061142c82610e89565b915061143783610e89565b925082611447576114466113f2565b5b828206905092915050565b600061145d82610e89565b915061146883610e89565b92508282019050808211156114805761147f61138f565b5b92915050565b7f4e487b7100000000000000000000000000000000000000000000000000000000600052603260045260246000fd5b60006114c082610e89565b91507fffffffffffffffffffffffffffffffffffffffffffffffffffffffffffffffff82036114f2576114f161138f565b5b600182019050919050565b600081905092915050565b7f4c6f7474657279206973206e6f742063757272656e746c79206f70656e20666f60008201527f7220656e74726965732e20506c65617365207761697420000000000000000000602082015250565b60006115646037836114fd565b915061156f82611508565b603782019050919050565b600081519050919050565b60005b838110156115a3578082015181840152602081019050611588565b60008484015250505050565b60006115ba8261157a565b6115c481856114fd565b93506115d4818560208601611585565b80840191505092915050565b60006115eb82611557565b91506115f782846115af565b915081905092915050565b6000601f19601f8301169050919050565b600061161e8261157a565b61162881856111c8565b9350611638818560208601611585565b61164181611602565b840191505092915050565b600060208201905081810360008301526116668184611613565b905092915050565b7f5469636b6574207072696365206d75737420626520657175616c20746f20746860008201527f65207265717569726564207469636b65742070726963652e0000000000000000602082015250565b60006116ca6038836111c8565b91506116d58261166e565b604082019050919050565b600060208201905081810360008301526116f9816116bd565b9050919050565b61170981610f74565b82525050565b60006020820190506117246000830184611700565b92915050565b61173381610fdf565b811461173e57600080fd5b50565b6000815190506117508161172a565b92915050565b60006020828403121561176c5761176b610f4f565b5b600061177a84828501611741565b91505092915050565b7f5468697320506c617965722068617320616c726561647920656e746572656400600082015250565b60006117b9601f836111c8565b91506117c482611783565b602082019050919050565b600060208201905081810360008301526117e8816117ac565b9050919050565b7f546865726520617265206e6f2057696e6e657273207965742e00000000000000600082015250565b60006118256019836111c8565b9150611830826117ef565b602082019050919050565b6000602082019050818103600083015261185481611818565b9050919050565b6000819050919050565b61187661187182610e89565b61185b565b82525050565b60006118888286611865565b6020820191506118988285611865565b6020820191506118a88284611865565b602082019150819050949350505050565b7f207365636f6e6473000000000000000000000000000000000000000000000000600082015250565b60006118ef6008836114fd565b91506118fa826118b9565b600882019050919050565b60006119118284611865565b602082019150611920826118e2565b91508190509291505056fea2646970667358221220a3c304f7dfa2c15c86965f663bb96a70cd2df2ef7611c0275e9a70179497126f64736f6c63430008120033",
					"opcodes": "PUSH1 0x80 PUSH1 0x40 MSTORE CALLVALUE DUP1 ISZERO PUSH3 0x11 JUMPI PUSH1 0x0 DUP1 REVERT JUMPDEST POP PUSH1 0x40 MLOAD PUSH3 0x1B0F CODESIZE SUB DUP1 PUSH3 0x1B0F DUP4 CODECOPY DUP2 DUP2 ADD PUSH1 0x40 MSTORE DUP2 ADD SWAP1 PUSH3 0x37 SWAP2 SWAP1 PUSH3 0x113 JUMP JUMPDEST CALLER PUSH1 0x0 DUP1 PUSH2 0x100 EXP DUP2 SLOAD DUP2 PUSH20 0xFFFFFFFFFFFFFFFFFFFFFFFFFFFFFFFFFFFFFFFF MUL NOT AND SWAP1 DUP4 PUSH20 0xFFFFFFFFFFFFFFFFFFFFFFFFFFFFFFFFFFFFFFFF AND MUL OR SWAP1 SSTORE POP DUP3 PUSH1 0x3 DUP2 SWAP1 SSTORE POP DUP2 PUSH1 0x4 DUP2 SWAP1 SSTORE POP DUP1 PUSH1 0x7 DUP2 SWAP1 SSTORE POP PUSH1 0x0 PUSH1 0x9 PUSH1 0x0 PUSH2 0x100 EXP DUP2 SLOAD DUP2 PUSH1 0xFF MUL NOT AND SWAP1 DUP4 PUSH1 0x3 DUP2 GT ISZERO PUSH3 0xB5 JUMPI PUSH3 0xB4 PUSH3 0x16F JUMP JUMPDEST JUMPDEST MUL OR SWAP1 SSTORE POP PUSH1 0x0 PUSH1 0x5 DUP2 SWAP1 SSTORE POP PUSH1 0x0 PUSH1 0x6 DUP2 SWAP1 SSTORE POP POP POP POP PUSH3 0x19E JUMP JUMPDEST PUSH1 0x0 DUP1 REVERT JUMPDEST PUSH1 0x0 DUP2 SWAP1 POP SWAP2 SWAP1 POP JUMP JUMPDEST PUSH3 0xED DUP2 PUSH3 0xD8 JUMP JUMPDEST DUP2 EQ PUSH3 0xF9 JUMPI PUSH1 0x0 DUP1 REVERT JUMPDEST POP JUMP JUMPDEST PUSH1 0x0 DUP2 MLOAD SWAP1 POP PUSH3 0x10D DUP2 PUSH3 0xE2 JUMP JUMPDEST SWAP3 SWAP2 POP POP JUMP JUMPDEST PUSH1 0x0 DUP1 PUSH1 0x0 PUSH1 0x60 DUP5 DUP7 SUB SLT ISZERO PUSH3 0x12F JUMPI PUSH3 0x12E PUSH3 0xD3 JUMP JUMPDEST JUMPDEST PUSH1 0x0 PUSH3 0x13F DUP7 DUP3 DUP8 ADD PUSH3 0xFC JUMP JUMPDEST SWAP4 POP POP PUSH1 0x20 PUSH3 0x152 DUP7 DUP3 DUP8 ADD PUSH3 0xFC JUMP JUMPDEST SWAP3 POP POP PUSH1 0x40 PUSH3 0x165 DUP7 DUP3 DUP8 ADD PUSH3 0xFC JUMP JUMPDEST SWAP2 POP POP SWAP3 POP SWAP3 POP SWAP3 JUMP JUMPDEST PUSH32 0x4E487B7100000000000000000000000000000000000000000000000000000000 PUSH1 0x0 MSTORE PUSH1 0x21 PUSH1 0x4 MSTORE PUSH1 0x24 PUSH1 0x0 REVERT JUMPDEST PUSH2 0x1961 DUP1 PUSH3 0x1AE PUSH1 0x0 CODECOPY PUSH1 0x0 RETURN INVALID PUSH1 0x80 PUSH1 0x40 MSTORE PUSH1 0x4 CALLDATASIZE LT PUSH2 0x86 JUMPI PUSH1 0x0 CALLDATALOAD PUSH1 0xE0 SHR DUP1 PUSH4 0x8B5B9CCC GT PUSH2 0x59 JUMPI DUP1 PUSH4 0x8B5B9CCC EQ PUSH2 0x135 JUMPI DUP1 PUSH4 0xA59F3E0C EQ PUSH2 0x160 JUMPI DUP1 PUSH4 0xB844007C EQ PUSH2 0x17C JUMPI DUP1 PUSH4 0xCFBD900F EQ PUSH2 0x1A7 JUMPI DUP1 PUSH4 0xE0764487 EQ PUSH2 0x1D2 JUMPI PUSH2 0x86 JUMP JUMPDEST DUP1 PUSH4 0x1209B1F6 EQ PUSH2 0x8B JUMPI DUP1 PUSH4 0x378AA701 EQ PUSH2 0xB6 JUMPI DUP1 PUSH4 0x5D495AEA EQ PUSH2 0xE1 JUMPI DUP1 PUSH4 0x680719BB EQ PUSH2 0xF8 JUMPI JUMPDEST PUSH1 0x0 DUP1 REVERT JUMPDEST CALLVALUE DUP1 ISZERO PUSH2 0x97 JUMPI PUSH1 0x0 DUP1 REVERT JUMPDEST POP PUSH2 0xA0 PUSH2 0x1FD JUMP JUMPDEST PUSH1 0x40 MLOAD PUSH2 0xAD SWAP2 SWAP1 PUSH2 0xEA2 JUMP JUMPDEST PUSH1 0x40 MLOAD DUP1 SWAP2 SUB SWAP1 RETURN JUMPDEST CALLVALUE DUP1 ISZERO PUSH2 0xC2 JUMPI PUSH1 0x0 DUP1 REVERT JUMPDEST POP PUSH2 0xCB PUSH2 0x203 JUMP JUMPDEST PUSH1 0x40 MLOAD PUSH2 0xD8 SWAP2 SWAP1 PUSH2 0xF34 JUMP JUMPDEST PUSH1 0x40 MLOAD DUP1 SWAP2 SUB SWAP1 RETURN JUMPDEST CALLVALUE DUP1 ISZERO PUSH2 0xED JUMPI PUSH1 0x0 DUP1 REVERT JUMPDEST POP PUSH2 0xF6 PUSH2 0x21A JUMP JUMPDEST STOP JUMPDEST CALLVALUE DUP1 ISZERO PUSH2 0x104 JUMPI PUSH1 0x0 DUP1 REVERT JUMPDEST POP PUSH2 0x11F PUSH1 0x4 DUP1 CALLDATASIZE SUB DUP2 ADD SWAP1 PUSH2 0x11A SWAP2 SWAP1 PUSH2 0xFB2 JUMP JUMPDEST PUSH2 0x7B5 JUMP JUMPDEST PUSH1 0x40 MLOAD PUSH2 0x12C SWAP2 SWAP1 PUSH2 0xFFA JUMP JUMPDEST PUSH1 0x40 MLOAD DUP1 SWAP2 SUB SWAP1 RETURN JUMPDEST CALLVALUE DUP1 ISZERO PUSH2 0x141 JUMPI PUSH1 0x0 DUP1 REVERT JUMPDEST POP PUSH2 0x14A PUSH2 0x863 JUMP JUMPDEST PUSH1 0x40 MLOAD PUSH2 0x157 SWAP2 SWAP1 PUSH2 0x10E5 JUMP JUMPDEST PUSH1 0x40 MLOAD DUP1 SWAP2 SUB SWAP1 RETURN JUMPDEST PUSH2 0x17A PUSH1 0x4 DUP1 CALLDATASIZE SUB DUP2 ADD SWAP1 PUSH2 0x175 SWAP2 SWAP1 PUSH2 0x1133 JUMP JUMPDEST PUSH2 0x8F1 JUMP JUMPDEST STOP JUMPDEST CALLVALUE DUP1 ISZERO PUSH2 0x188 JUMPI PUSH1 0x0 DUP1 REVERT JUMPDEST POP PUSH2 0x191 PUSH2 0xBE0 JUMP JUMPDEST PUSH1 0x40 MLOAD PUSH2 0x19E SWAP2 SWAP1 PUSH2 0x11AD JUMP JUMPDEST PUSH1 0x40 MLOAD DUP1 SWAP2 SUB SWAP1 RETURN JUMPDEST CALLVALUE DUP1 ISZERO PUSH2 0x1B3 JUMPI PUSH1 0x0 DUP1 REVERT JUMPDEST POP PUSH2 0x1BC PUSH2 0xD9F JUMP JUMPDEST PUSH1 0x40 MLOAD PUSH2 0x1C9 SWAP2 SWAP1 PUSH2 0xEA2 JUMP JUMPDEST PUSH1 0x40 MLOAD DUP1 SWAP2 SUB SWAP1 RETURN JUMPDEST CALLVALUE DUP1 ISZERO PUSH2 0x1DE JUMPI PUSH1 0x0 DUP1 REVERT JUMPDEST POP PUSH2 0x1E7 PUSH2 0xDA5 JUMP JUMPDEST PUSH1 0x40 MLOAD PUSH2 0x1F4 SWAP2 SWAP1 PUSH2 0xEA2 JUMP JUMPDEST PUSH1 0x40 MLOAD DUP1 SWAP2 SUB SWAP1 RETURN JUMPDEST PUSH1 0x3 SLOAD DUP2 JUMP JUMPDEST PUSH1 0x0 PUSH1 0x9 PUSH1 0x0 SWAP1 SLOAD SWAP1 PUSH2 0x100 EXP SWAP1 DIV PUSH1 0xFF AND SWAP1 POP SWAP1 JUMP JUMPDEST PUSH1 0x0 DUP1 SLOAD SWAP1 PUSH2 0x100 EXP SWAP1 DIV PUSH20 0xFFFFFFFFFFFFFFFFFFFFFFFFFFFFFFFFFFFFFFFF AND PUSH20 0xFFFFFFFFFFFFFFFFFFFFFFFFFFFFFFFFFFFFFFFF AND CALLER PUSH20 0xFFFFFFFFFFFFFFFFFFFFFFFFFFFFFFFFFFFFFFFF AND EQ PUSH2 0x2A8 JUMPI PUSH1 0x40 MLOAD PUSH32 0x8C379A000000000000000000000000000000000000000000000000000000000 DUP2 MSTORE PUSH1 0x4 ADD PUSH2 0x29F SWAP1 PUSH2 0x124B JUMP JUMPDEST PUSH1 0x40 MLOAD DUP1 SWAP2 SUB SWAP1 REVERT JUMPDEST PUSH1 0x1 PUSH1 0x3 DUP2 GT ISZERO PUSH2 0x2BC JUMPI PUSH2 0x2BB PUSH2 0xEBD JUMP JUMPDEST JUMPDEST PUSH1 0x9 PUSH1 0x0 SWAP1 SLOAD SWAP1 PUSH2 0x100 EXP SWAP1 DIV PUSH1 0xFF AND PUSH1 0x3 DUP2 GT ISZERO PUSH2 0x2DE JUMPI PUSH2 0x2DD PUSH2 0xEBD JUMP JUMPDEST JUMPDEST EQ PUSH2 0x31E JUMPI PUSH1 0x40 MLOAD PUSH32 0x8C379A000000000000000000000000000000000000000000000000000000000 DUP2 MSTORE PUSH1 0x4 ADD PUSH2 0x315 SWAP1 PUSH2 0x12DD JUMP JUMPDEST PUSH1 0x40 MLOAD DUP1 SWAP2 SUB SWAP1 REVERT JUMPDEST PUSH1 0x5 SLOAD PUSH1 0x6 SLOAD LT PUSH2 0x364 JUMPI PUSH1 0x40 MLOAD PUSH32 0x8C379A000000000000000000000000000000000000000000000000000000000 DUP2 MSTORE PUSH1 0x4 ADD PUSH2 0x35B SWAP1 PUSH2 0x136F JUMP JUMPDEST PUSH1 0x40 MLOAD DUP1 SWAP2 SUB SWAP1 REVERT JUMPDEST PUSH1 0x0 PUSH1 0x6 SLOAD PUSH1 0x5 SLOAD PUSH2 0x376 SWAP2 SWAP1 PUSH2 0x13BE JUMP JUMPDEST PUSH2 0x37E PUSH2 0xDAB JUMP JUMPDEST PUSH2 0x388 SWAP2 SWAP1 PUSH2 0x1421 JUMP JUMPDEST SWAP1 POP PUSH1 0x1 PUSH1 0x6 SLOAD DUP3 PUSH2 0x39A SWAP2 SWAP1 PUSH2 0x1452 JUMP JUMPDEST DUP2 SLOAD DUP2 LT PUSH2 0x3AB JUMPI PUSH2 0x3AA PUSH2 0x1486 JUMP JUMPDEST JUMPDEST SWAP1 PUSH1 0x0 MSTORE PUSH1 0x20 PUSH1 0x0 KECCAK256 ADD PUSH1 0x0 SWAP1 SLOAD SWAP1 PUSH2 0x100 EXP SWAP1 DIV PUSH20 0xFFFFFFFFFFFFFFFFFFFFFFFFFFFFFFFFFFFFFFFF AND PUSH1 0x2 PUSH1 0x0 PUSH2 0x100 EXP DUP2 SLOAD DUP2 PUSH20 0xFFFFFFFFFFFFFFFFFFFFFFFFFFFFFFFFFFFFFFFF MUL NOT AND SWAP1 DUP4 PUSH20 0xFFFFFFFFFFFFFFFFFFFFFFFFFFFFFFFFFFFFFFFF AND MUL OR SWAP1 SSTORE POP PUSH1 0x6 PUSH1 0x0 DUP2 SLOAD DUP1 SWAP3 SWAP2 SWAP1 PUSH2 0x429 SWAP1 PUSH2 0x14B5 JUMP JUMPDEST SWAP2 SWAP1 POP SSTORE POP PUSH1 0x3 PUSH1 0x9 PUSH1 0x0 PUSH2 0x100 EXP DUP2 SLOAD DUP2 PUSH1 0xFF MUL NOT AND SWAP1 DUP4 PUSH1 0x3 DUP2 GT ISZERO PUSH2 0x454 JUMPI PUSH2 0x453 PUSH2 0xEBD JUMP JUMPDEST JUMPDEST MUL OR SWAP1 SSTORE POP PUSH1 0x0 JUMPDEST PUSH1 0x1 DUP1 SLOAD SWAP1 POP DUP2 LT ISZERO PUSH2 0x6D5 JUMPI PUSH1 0x2 PUSH1 0x0 SWAP1 SLOAD SWAP1 PUSH2 0x100 EXP SWAP1 DIV PUSH20 0xFFFFFFFFFFFFFFFFFFFFFFFFFFFFFFFFFFFFFFFF AND PUSH20 0xFFFFFFFFFFFFFFFFFFFFFFFFFFFFFFFFFFFFFFFF AND PUSH1 0x1 DUP3 DUP2 SLOAD DUP2 LT PUSH2 0x4B6 JUMPI PUSH2 0x4B5 PUSH2 0x1486 JUMP JUMPDEST JUMPDEST SWAP1 PUSH1 0x0 MSTORE PUSH1 0x20 PUSH1 0x0 KECCAK256 ADD PUSH1 0x0 SWAP1 SLOAD SWAP1 PUSH2 0x100 EXP SWAP1 DIV PUSH20 0xFFFFFFFFFFFFFFFFFFFFFFFFFFFFFFFFFFFFFFFF AND PUSH20 0xFFFFFFFFFFFFFFFFFFFFFFFFFFFFFFFFFFFFFFFF AND SUB PUSH2 0x5E1 JUMPI PUSH1 0xA PUSH1 0x40 MLOAD DUP1 PUSH1 0x40 ADD PUSH1 0x40 MSTORE DUP1 PUSH1 0x2 PUSH1 0x0 SWAP1 SLOAD SWAP1 PUSH2 0x100 EXP SWAP1 DIV PUSH20 0xFFFFFFFFFFFFFFFFFFFFFFFFFFFFFFFFFFFFFFFF AND PUSH20 0xFFFFFFFFFFFFFFFFFFFFFFFFFFFFFFFFFFFFFFFF AND DUP2 MSTORE PUSH1 0x20 ADD PUSH1 0x1 ISZERO ISZERO DUP2 MSTORE POP SWAP1 DUP1 PUSH1 0x1 DUP2 SLOAD ADD DUP1 DUP3 SSTORE DUP1 SWAP2 POP POP PUSH1 0x1 SWAP1 SUB SWAP1 PUSH1 0x0 MSTORE PUSH1 0x20 PUSH1 0x0 KECCAK256 ADD PUSH1 0x0 SWAP1 SWAP2 SWAP1 SWAP2 SWAP1 SWAP2 POP PUSH1 0x0 DUP3 ADD MLOAD DUP2 PUSH1 0x0 ADD PUSH1 0x0 PUSH2 0x100 EXP DUP2 SLOAD DUP2 PUSH20 0xFFFFFFFFFFFFFFFFFFFFFFFFFFFFFFFFFFFFFFFF MUL NOT AND SWAP1 DUP4 PUSH20 0xFFFFFFFFFFFFFFFFFFFFFFFFFFFFFFFFFFFFFFFF AND MUL OR SWAP1 SSTORE POP PUSH1 0x20 DUP3 ADD MLOAD DUP2 PUSH1 0x0 ADD PUSH1 0x14 PUSH2 0x100 EXP DUP2 SLOAD DUP2 PUSH1 0xFF MUL NOT AND SWAP1 DUP4 ISZERO ISZERO MUL OR SWAP1 SSTORE POP POP POP PUSH2 0x6C2 JUMP JUMPDEST PUSH1 0xA PUSH1 0x40 MLOAD DUP1 PUSH1 0x40 ADD PUSH1 0x40 MSTORE DUP1 PUSH1 0x2 PUSH1 0x0 SWAP1 SLOAD SWAP1 PUSH2 0x100 EXP SWAP1 DIV PUSH20 0xFFFFFFFFFFFFFFFFFFFFFFFFFFFFFFFFFFFFFFFF AND PUSH20 0xFFFFFFFFFFFFFFFFFFFFFFFFFFFFFFFFFFFFFFFF AND DUP2 MSTORE PUSH1 0x20 ADD PUSH1 0x0 ISZERO ISZERO DUP2 MSTORE POP SWAP1 DUP1 PUSH1 0x1 DUP2 SLOAD ADD DUP1 DUP3 SSTORE DUP1 SWAP2 POP POP PUSH1 0x1 SWAP1 SUB SWAP1 PUSH1 0x0 MSTORE PUSH1 0x20 PUSH1 0x0 KECCAK256 ADD PUSH1 0x0 SWAP1 SWAP2 SWAP1 SWAP2 SWAP1 SWAP2 POP PUSH1 0x0 DUP3 ADD MLOAD DUP2 PUSH1 0x0 ADD PUSH1 0x0 PUSH2 0x100 EXP DUP2 SLOAD DUP2 PUSH20 0xFFFFFFFFFFFFFFFFFFFFFFFFFFFFFFFFFFFFFFFF MUL NOT AND SWAP1 DUP4 PUSH20 0xFFFFFFFFFFFFFFFFFFFFFFFFFFFFFFFFFFFFFFFF AND MUL OR SWAP1 SSTORE POP PUSH1 0x20 DUP3 ADD MLOAD DUP2 PUSH1 0x0 ADD PUSH1 0x14 PUSH2 0x100 EXP DUP2 SLOAD DUP2 PUSH1 0xFF MUL NOT AND SWAP1 DUP4 ISZERO ISZERO MUL OR SWAP1 SSTORE POP POP POP JUMPDEST DUP1 DUP1 PUSH2 0x6CD SWAP1 PUSH2 0x14B5 JUMP JUMPDEST SWAP2 POP POP PUSH2 0x45C JUMP JUMPDEST POP PUSH1 0x2 PUSH1 0x0 SWAP1 SLOAD SWAP1 PUSH2 0x100 EXP SWAP1 DIV PUSH20 0xFFFFFFFFFFFFFFFFFFFFFFFFFFFFFFFFFFFFFFFF AND PUSH20 0xFFFFFFFFFFFFFFFFFFFFFFFFFFFFFFFFFFFFFFFF AND PUSH32 0x5B690EC4A06FE979403046EAEEA5B3CE38524683C3001F662C8B5A829632F7DF PUSH1 0x40 MLOAD PUSH1 0x40 MLOAD DUP1 SWAP2 SUB SWAP1 LOG2 PUSH1 0x2 PUSH1 0x0 SWAP1 SLOAD SWAP1 PUSH2 0x100 EXP SWAP1 DIV PUSH20 0xFFFFFFFFFFFFFFFFFFFFFFFFFFFFFFFFFFFFFFFF AND PUSH20 0xFFFFFFFFFFFFFFFFFFFFFFFFFFFFFFFFFFFFFFFF AND PUSH2 0x8FC SELFBALANCE SWAP1 DUP2 ISZERO MUL SWAP1 PUSH1 0x40 MLOAD PUSH1 0x0 PUSH1 0x40 MLOAD DUP1 DUP4 SUB DUP2 DUP6 DUP9 DUP9 CALL SWAP4 POP POP POP POP ISZERO DUP1 ISZERO PUSH2 0x7A3 JUMPI RETURNDATASIZE PUSH1 0x0 DUP1 RETURNDATACOPY RETURNDATASIZE PUSH1 0x0 REVERT JUMPDEST POP PUSH1 0x1 PUSH1 0x0 PUSH2 0x7B2 SWAP2 SWAP1 PUSH2 0xE19 JUMP JUMPDEST POP JUMP JUMPDEST PUSH1 0x0 DUP1 PUSH1 0x0 SWAP1 POP JUMPDEST PUSH1 0x1 DUP1 SLOAD SWAP1 POP DUP2 LT ISZERO PUSH2 0x858 JUMPI DUP3 PUSH20 0xFFFFFFFFFFFFFFFFFFFFFFFFFFFFFFFFFFFFFFFF AND PUSH1 0x1 DUP3 DUP2 SLOAD DUP2 LT PUSH2 0x7F5 JUMPI PUSH2 0x7F4 PUSH2 0x1486 JUMP JUMPDEST JUMPDEST SWAP1 PUSH1 0x0 MSTORE PUSH1 0x20 PUSH1 0x0 KECCAK256 ADD PUSH1 0x0 SWAP1 SLOAD SWAP1 PUSH2 0x100 EXP SWAP1 DIV PUSH20 0xFFFFFFFFFFFFFFFFFFFFFFFFFFFFFFFFFFFFFFFF AND PUSH20 0xFFFFFFFFFFFFFFFFFFFFFFFFFFFFFFFFFFFFFFFF AND SUB PUSH2 0x845 JUMPI PUSH1 0x1 SWAP2 POP POP PUSH2 0x85E JUMP JUMPDEST DUP1 DUP1 PUSH2 0x850 SWAP1 PUSH2 0x14B5 JUMP JUMPDEST SWAP2 POP POP PUSH2 0x7BD JUMP JUMPDEST POP PUSH1 0x0 SWAP1 POP JUMPDEST SWAP2 SWAP1 POP JUMP JUMPDEST PUSH1 0x60 PUSH1 0x1 DUP1 SLOAD DUP1 PUSH1 0x20 MUL PUSH1 0x20 ADD PUSH1 0x40 MLOAD SWAP1 DUP2 ADD PUSH1 0x40 MSTORE DUP1 SWAP3 SWAP2 SWAP1 DUP2 DUP2 MSTORE PUSH1 0x20 ADD DUP3 DUP1 SLOAD DUP1 ISZERO PUSH2 0x8E7 JUMPI PUSH1 0x20 MUL DUP3 ADD SWAP2 SWAP1 PUSH1 0x0 MSTORE PUSH1 0x20 PUSH1 0x0 KECCAK256 SWAP1 JUMPDEST DUP2 PUSH1 0x0 SWAP1 SLOAD SWAP1 PUSH2 0x100 EXP SWAP1 DIV PUSH20 0xFFFFFFFFFFFFFFFFFFFFFFFFFFFFFFFFFFFFFFFF AND PUSH20 0xFFFFFFFFFFFFFFFFFFFFFFFFFFFFFFFFFFFFFFFF AND DUP2 MSTORE PUSH1 0x20 ADD SWAP1 PUSH1 0x1 ADD SWAP1 DUP1 DUP4 GT PUSH2 0x89D JUMPI JUMPDEST POP POP POP POP POP SWAP1 POP SWAP1 JUMP JUMPDEST TIMESTAMP PUSH1 0x8 SLOAD GT ISZERO PUSH2 0x976 JUMPI PUSH1 0x0 PUSH2 0x905 PUSH2 0xDE5 JUMP JUMPDEST SWAP1 POP PUSH1 0x0 DUP2 PUSH1 0x40 MLOAD PUSH1 0x20 ADD PUSH2 0x91A SWAP2 SWAP1 PUSH2 0x15E0 JUMP JUMPDEST PUSH1 0x40 MLOAD PUSH1 0x20 DUP2 DUP4 SUB SUB DUP2 MSTORE SWAP1 PUSH1 0x40 MSTORE SWAP1 POP PUSH1 0x8 SLOAD TIMESTAMP GT DUP2 SWAP1 PUSH2 0x972 JUMPI PUSH1 0x40 MLOAD PUSH32 0x8C379A000000000000000000000000000000000000000000000000000000000 DUP2 MSTORE PUSH1 0x4 ADD PUSH2 0x969 SWAP2 SWAP1 PUSH2 0x164C JUMP JUMPDEST PUSH1 0x40 MLOAD DUP1 SWAP2 SUB SWAP1 REVERT JUMPDEST POP POP POP JUMPDEST PUSH1 0x3 SLOAD DUP2 LT ISZERO PUSH2 0x9BB JUMPI PUSH1 0x40 MLOAD PUSH32 0x8C379A000000000000000000000000000000000000000000000000000000000 DUP2 MSTORE PUSH1 0x4 ADD PUSH2 0x9B2 SWAP1 PUSH2 0x16E0 JUMP JUMPDEST PUSH1 0x40 MLOAD DUP1 SWAP2 SUB SWAP1 REVERT JUMPDEST ADDRESS PUSH20 0xFFFFFFFFFFFFFFFFFFFFFFFFFFFFFFFFFFFFFFFF AND PUSH4 0x680719BB CALLER PUSH1 0x40 MLOAD DUP3 PUSH4 0xFFFFFFFF AND PUSH1 0xE0 SHL DUP2 MSTORE PUSH1 0x4 ADD PUSH2 0x9F4 SWAP2 SWAP1 PUSH2 0x170F JUMP JUMPDEST PUSH1 0x20 PUSH1 0x40 MLOAD DUP1 DUP4 SUB DUP2 DUP7 GAS STATICCALL ISZERO DUP1 ISZERO PUSH2 0xA11 JUMPI RETURNDATASIZE PUSH1 0x0 DUP1 RETURNDATACOPY RETURNDATASIZE PUSH1 0x0 REVERT JUMPDEST POP POP POP POP PUSH1 0x40 MLOAD RETURNDATASIZE PUSH1 0x1F NOT PUSH1 0x1F DUP3 ADD AND DUP3 ADD DUP1 PUSH1 0x40 MSTORE POP DUP2 ADD SWAP1 PUSH2 0xA35 SWAP2 SWAP1 PUSH2 0x1756 JUMP JUMPDEST ISZERO PUSH2 0xA75 JUMPI PUSH1 0x40 MLOAD PUSH32 0x8C379A000000000000000000000000000000000000000000000000000000000 DUP2 MSTORE PUSH1 0x4 ADD PUSH2 0xA6C SWAP1 PUSH2 0x17CF JUMP JUMPDEST PUSH1 0x40 MLOAD DUP1 SWAP2 SUB SWAP1 REVERT JUMPDEST PUSH1 0x0 PUSH1 0x9 PUSH1 0x0 PUSH2 0x100 EXP DUP2 SLOAD DUP2 PUSH1 0xFF MUL NOT AND SWAP1 DUP4 PUSH1 0x3 DUP2 GT ISZERO PUSH2 0xA9B JUMPI PUSH2 0xA9A PUSH2 0xEBD JUMP JUMPDEST JUMPDEST MUL OR SWAP1 SSTORE POP PUSH1 0x1 CALLER SWAP1 DUP1 PUSH1 0x1 DUP2 SLOAD ADD DUP1 DUP3 SSTORE DUP1 SWAP2 POP POP PUSH1 0x1 SWAP1 SUB SWAP1 PUSH1 0x0 MSTORE PUSH1 0x20 PUSH1 0x0 KECCAK256 ADD PUSH1 0x0 SWAP1 SWAP2 SWAP1 SWAP2 SWAP1 SWAP2 PUSH2 0x100 EXP DUP2 SLOAD DUP2 PUSH20 0xFFFFFFFFFFFFFFFFFFFFFFFFFFFFFFFFFFFFFFFF MUL NOT AND SWAP1 DUP4 PUSH20 0xFFFFFFFFFFFFFFFFFFFFFFFFFFFFFFFFFFFFFFFF AND MUL OR SWAP1 SSTORE POP PUSH1 0x5 PUSH1 0x0 DUP2 SLOAD DUP1 SWAP3 SWAP2 SWAP1 PUSH2 0xB16 SWAP1 PUSH2 0x14B5 JUMP JUMPDEST SWAP2 SWAP1 POP SSTORE POP CALLER PUSH20 0xFFFFFFFFFFFFFFFFFFFFFFFFFFFFFFFFFFFFFFFF AND PUSH32 0xB99735857DCDC72249CABB2A63977805DE8A83268FF5F84700CD9DA7017130C5 PUSH1 0x40 MLOAD PUSH1 0x40 MLOAD DUP1 SWAP2 SUB SWAP1 LOG2 PUSH1 0x4 SLOAD PUSH1 0x5 SLOAD LT PUSH2 0xBDD JUMPI PUSH1 0x1 PUSH1 0x9 PUSH1 0x0 PUSH2 0x100 EXP DUP2 SLOAD DUP2 PUSH1 0xFF MUL NOT AND SWAP1 DUP4 PUSH1 0x3 DUP2 GT ISZERO PUSH2 0xB8F JUMPI PUSH2 0xB8E PUSH2 0xEBD JUMP JUMPDEST JUMPDEST MUL OR SWAP1 SSTORE POP PUSH32 0xFC2B180437972A94A98D643B705025C6263C595CCE057CC3D910384B8D1D210C PUSH1 0x40 MLOAD PUSH1 0x40 MLOAD DUP1 SWAP2 SUB SWAP1 LOG1 PUSH2 0xBC8 PUSH2 0x21A JUMP JUMPDEST PUSH1 0x7 SLOAD TIMESTAMP PUSH2 0xBD6 SWAP2 SWAP1 PUSH2 0x1452 JUMP JUMPDEST PUSH1 0x8 DUP2 SWAP1 SSTORE POP JUMPDEST POP JUMP JUMPDEST PUSH2 0xBE8 PUSH2 0xE3A JUMP JUMPDEST PUSH1 0x0 PUSH1 0xA DUP1 SLOAD SWAP1 POP GT PUSH2 0xC30 JUMPI PUSH1 0x40 MLOAD PUSH32 0x8C379A000000000000000000000000000000000000000000000000000000000 DUP2 MSTORE PUSH1 0x4 ADD PUSH2 0xC27 SWAP1 PUSH2 0x183B JUMP JUMPDEST PUSH1 0x40 MLOAD DUP1 SWAP2 SUB SWAP1 REVERT JUMPDEST PUSH1 0x0 JUMPDEST PUSH1 0xA DUP1 SLOAD SWAP1 POP DUP2 LT ISZERO PUSH2 0xD69 JUMPI CALLER PUSH20 0xFFFFFFFFFFFFFFFFFFFFFFFFFFFFFFFFFFFFFFFF AND PUSH1 0xA DUP3 DUP2 SLOAD DUP2 LT PUSH2 0xC6B JUMPI PUSH2 0xC6A PUSH2 0x1486 JUMP JUMPDEST JUMPDEST SWAP1 PUSH1 0x0 MSTORE PUSH1 0x20 PUSH1 0x0 KECCAK256 ADD PUSH1 0x0 ADD PUSH1 0x0 SWAP1 SLOAD SWAP1 PUSH2 0x100 EXP SWAP1 DIV PUSH20 0xFFFFFFFFFFFFFFFFFFFFFFFFFFFFFFFFFFFFFFFF AND PUSH20 0xFFFFFFFFFFFFFFFFFFFFFFFFFFFFFFFFFFFFFFFF AND SUB PUSH2 0xD56 JUMPI PUSH1 0xA DUP2 DUP2 SLOAD DUP2 LT PUSH2 0xCC8 JUMPI PUSH2 0xCC7 PUSH2 0x1486 JUMP JUMPDEST JUMPDEST SWAP1 PUSH1 0x0 MSTORE PUSH1 0x20 PUSH1 0x0 KECCAK256 ADD PUSH1 0x40 MLOAD DUP1 PUSH1 0x40 ADD PUSH1 0x40 MSTORE SWAP1 DUP2 PUSH1 0x0 DUP3 ADD PUSH1 0x0 SWAP1 SLOAD SWAP1 PUSH2 0x100 EXP SWAP1 DIV PUSH20 0xFFFFFFFFFFFFFFFFFFFFFFFFFFFFFFFFFFFFFFFF AND PUSH20 0xFFFFFFFFFFFFFFFFFFFFFFFFFFFFFFFFFFFFFFFF AND PUSH20 0xFFFFFFFFFFFFFFFFFFFFFFFFFFFFFFFFFFFFFFFF AND DUP2 MSTORE PUSH1 0x20 ADD PUSH1 0x0 DUP3 ADD PUSH1 0x14 SWAP1 SLOAD SWAP1 PUSH2 0x100 EXP SWAP1 DIV PUSH1 0xFF AND ISZERO ISZERO ISZERO ISZERO DUP2 MSTORE POP POP SWAP2 POP POP PUSH2 0xD9C JUMP JUMPDEST DUP1 DUP1 PUSH2 0xD61 SWAP1 PUSH2 0x14B5 JUMP JUMPDEST SWAP2 POP POP PUSH2 0xC33 JUMP JUMPDEST POP PUSH1 0x40 MLOAD DUP1 PUSH1 0x40 ADD PUSH1 0x40 MSTORE DUP1 PUSH1 0x0 PUSH20 0xFFFFFFFFFFFFFFFFFFFFFFFFFFFFFFFFFFFFFFFF AND DUP2 MSTORE PUSH1 0x20 ADD PUSH1 0x0 ISZERO ISZERO DUP2 MSTORE POP SWAP1 POP JUMPDEST SWAP1 JUMP JUMPDEST PUSH1 0x5 SLOAD DUP2 JUMP JUMPDEST PUSH1 0x4 SLOAD DUP2 JUMP JUMPDEST PUSH1 0x0 PREVRANDAO TIMESTAMP PUSH1 0x1 DUP1 SLOAD SWAP1 POP PUSH1 0x40 MLOAD PUSH1 0x20 ADD PUSH2 0xDC7 SWAP4 SWAP3 SWAP2 SWAP1 PUSH2 0x187C JUMP JUMPDEST PUSH1 0x40 MLOAD PUSH1 0x20 DUP2 DUP4 SUB SUB DUP2 MSTORE SWAP1 PUSH1 0x40 MSTORE DUP1 MLOAD SWAP1 PUSH1 0x20 ADD KECCAK256 PUSH1 0x0 SHR SWAP1 POP SWAP1 JUMP JUMPDEST PUSH1 0x60 TIMESTAMP PUSH1 0x8 SLOAD PUSH2 0xDF5 SWAP2 SWAP1 PUSH2 0x13BE JUMP JUMPDEST PUSH1 0x40 MLOAD PUSH1 0x20 ADD PUSH2 0xE05 SWAP2 SWAP1 PUSH2 0x1905 JUMP JUMPDEST PUSH1 0x40 MLOAD PUSH1 0x20 DUP2 DUP4 SUB SUB DUP2 MSTORE SWAP1 PUSH1 0x40 MSTORE SWAP1 POP SWAP1 JUMP JUMPDEST POP DUP1 SLOAD PUSH1 0x0 DUP3 SSTORE SWAP1 PUSH1 0x0 MSTORE PUSH1 0x20 PUSH1 0x0 KECCAK256 SWAP1 DUP2 ADD SWAP1 PUSH2 0xE37 SWAP2 SWAP1 PUSH2 0xE6C JUMP JUMPDEST POP JUMP JUMPDEST PUSH1 0x40 MLOAD DUP1 PUSH1 0x40 ADD PUSH1 0x40 MSTORE DUP1 PUSH1 0x0 PUSH20 0xFFFFFFFFFFFFFFFFFFFFFFFFFFFFFFFFFFFFFFFF AND DUP2 MSTORE PUSH1 0x20 ADD PUSH1 0x0 ISZERO ISZERO DUP2 MSTORE POP SWAP1 JUMP JUMPDEST JUMPDEST DUP1 DUP3 GT ISZERO PUSH2 0xE85 JUMPI PUSH1 0x0 DUP2 PUSH1 0x0 SWAP1 SSTORE POP PUSH1 0x1 ADD PUSH2 0xE6D JUMP JUMPDEST POP SWAP1 JUMP JUMPDEST PUSH1 0x0 DUP2 SWAP1 POP SWAP2 SWAP1 POP JUMP JUMPDEST PUSH2 0xE9C DUP2 PUSH2 0xE89 JUMP JUMPDEST DUP3 MSTORE POP POP JUMP JUMPDEST PUSH1 0x0 PUSH1 0x20 DUP3 ADD SWAP1 POP PUSH2 0xEB7 PUSH1 0x0 DUP4 ADD DUP5 PUSH2 0xE93 JUMP JUMPDEST SWAP3 SWAP2 POP POP JUMP JUMPDEST PUSH32 0x4E487B7100000000000000000000000000000000000000000000000000000000 PUSH1 0x0 MSTORE PUSH1 0x21 PUSH1 0x4 MSTORE PUSH1 0x24 PUSH1 0x0 REVERT JUMPDEST PUSH1 0x4 DUP2 LT PUSH2 0xEFD JUMPI PUSH2 0xEFC PUSH2 0xEBD JUMP JUMPDEST JUMPDEST POP JUMP JUMPDEST PUSH1 0x0 DUP2 SWAP1 POP PUSH2 0xF0E DUP3 PUSH2 0xEEC JUMP JUMPDEST SWAP2 SWAP1 POP JUMP JUMPDEST PUSH1 0x0 PUSH2 0xF1E DUP3 PUSH2 0xF00 JUMP JUMPDEST SWAP1 POP SWAP2 SWAP1 POP JUMP JUMPDEST PUSH2 0xF2E DUP2 PUSH2 0xF13 JUMP JUMPDEST DUP3 MSTORE POP POP JUMP JUMPDEST PUSH1 0x0 PUSH1 0x20 DUP3 ADD SWAP1 POP PUSH2 0xF49 PUSH1 0x0 DUP4 ADD DUP5 PUSH2 0xF25 JUMP JUMPDEST SWAP3 SWAP2 POP POP JUMP JUMPDEST PUSH1 0x0 DUP1 REVERT JUMPDEST PUSH1 0x0 PUSH20 0xFFFFFFFFFFFFFFFFFFFFFFFFFFFFFFFFFFFFFFFF DUP3 AND SWAP1 POP SWAP2 SWAP1 POP JUMP JUMPDEST PUSH1 0x0 PUSH2 0xF7F DUP3 PUSH2 0xF54 JUMP JUMPDEST SWAP1 POP SWAP2 SWAP1 POP JUMP JUMPDEST PUSH2 0xF8F DUP2 PUSH2 0xF74 JUMP JUMPDEST DUP2 EQ PUSH2 0xF9A JUMPI PUSH1 0x0 DUP1 REVERT JUMPDEST POP JUMP JUMPDEST PUSH1 0x0 DUP2 CALLDATALOAD SWAP1 POP PUSH2 0xFAC DUP2 PUSH2 0xF86 JUMP JUMPDEST SWAP3 SWAP2 POP POP JUMP JUMPDEST PUSH1 0x0 PUSH1 0x20 DUP3 DUP5 SUB SLT ISZERO PUSH2 0xFC8 JUMPI PUSH2 0xFC7 PUSH2 0xF4F JUMP JUMPDEST JUMPDEST PUSH1 0x0 PUSH2 0xFD6 DUP5 DUP3 DUP6 ADD PUSH2 0xF9D JUMP JUMPDEST SWAP2 POP POP SWAP3 SWAP2 POP POP JUMP JUMPDEST PUSH1 0x0 DUP2 ISZERO ISZERO SWAP1 POP SWAP2 SWAP1 POP JUMP JUMPDEST PUSH2 0xFF4 DUP2 PUSH2 0xFDF JUMP JUMPDEST DUP3 MSTORE POP POP JUMP JUMPDEST PUSH1 0x0 PUSH1 0x20 DUP3 ADD SWAP1 POP PUSH2 0x100F PUSH1 0x0 DUP4 ADD DUP5 PUSH2 0xFEB JUMP JUMPDEST SWAP3 SWAP2 POP POP JUMP JUMPDEST PUSH1 0x0 DUP2 MLOAD SWAP1 POP SWAP2 SWAP1 POP JUMP JUMPDEST PUSH1 0x0 DUP3 DUP3 MSTORE PUSH1 0x20 DUP3 ADD SWAP1 POP SWAP3 SWAP2 POP POP JUMP JUMPDEST PUSH1 0x0 DUP2 SWAP1 POP PUSH1 0x20 DUP3 ADD SWAP1 POP SWAP2 SWAP1 POP JUMP JUMPDEST PUSH1 0x0 PUSH2 0x104C DUP3 PUSH2 0xF54 JUMP JUMPDEST SWAP1 POP SWAP2 SWAP1 POP JUMP JUMPDEST PUSH2 0x105C DUP2 PUSH2 0x1041 JUMP JUMPDEST DUP3 MSTORE POP POP JUMP JUMPDEST PUSH1 0x0 PUSH2 0x106E DUP4 DUP4 PUSH2 0x1053 JUMP JUMPDEST PUSH1 0x20 DUP4 ADD SWAP1 POP SWAP3 SWAP2 POP POP JUMP JUMPDEST PUSH1 0x0 PUSH1 0x20 DUP3 ADD SWAP1 POP SWAP2 SWAP1 POP JUMP JUMPDEST PUSH1 0x0 PUSH2 0x1092 DUP3 PUSH2 0x1015 JUMP JUMPDEST PUSH2 0x109C DUP2 DUP6 PUSH2 0x1020 JUMP JUMPDEST SWAP4 POP PUSH2 0x10A7 DUP4 PUSH2 0x1031 JUMP JUMPDEST DUP1 PUSH1 0x0 JUMPDEST DUP4 DUP2 LT ISZERO PUSH2 0x10D8 JUMPI DUP2 MLOAD PUSH2 0x10BF DUP9 DUP3 PUSH2 0x1062 JUMP JUMPDEST SWAP8 POP PUSH2 0x10CA DUP4 PUSH2 0x107A JUMP JUMPDEST SWAP3 POP POP PUSH1 0x1 DUP2 ADD SWAP1 POP PUSH2 0x10AB JUMP JUMPDEST POP DUP6 SWAP4 POP POP POP POP SWAP3 SWAP2 POP POP JUMP JUMPDEST PUSH1 0x0 PUSH1 0x20 DUP3 ADD SWAP1 POP DUP2 DUP2 SUB PUSH1 0x0 DUP4 ADD MSTORE PUSH2 0x10FF DUP2 DUP5 PUSH2 0x1087 JUMP JUMPDEST SWAP1 POP SWAP3 SWAP2 POP POP JUMP JUMPDEST PUSH2 0x1110 DUP2 PUSH2 0xE89 JUMP JUMPDEST DUP2 EQ PUSH2 0x111B JUMPI PUSH1 0x0 DUP1 REVERT JUMPDEST POP JUMP JUMPDEST PUSH1 0x0 DUP2 CALLDATALOAD SWAP1 POP PUSH2 0x112D DUP2 PUSH2 0x1107 JUMP JUMPDEST SWAP3 SWAP2 POP POP JUMP JUMPDEST PUSH1 0x0 PUSH1 0x20 DUP3 DUP5 SUB SLT ISZERO PUSH2 0x1149 JUMPI PUSH2 0x1148 PUSH2 0xF4F JUMP JUMPDEST JUMPDEST PUSH1 0x0 PUSH2 0x1157 DUP5 DUP3 DUP6 ADD PUSH2 0x111E JUMP JUMPDEST SWAP2 POP POP SWAP3 SWAP2 POP POP JUMP JUMPDEST PUSH2 0x1169 DUP2 PUSH2 0xF74 JUMP JUMPDEST DUP3 MSTORE POP POP JUMP JUMPDEST PUSH2 0x1178 DUP2 PUSH2 0xFDF JUMP JUMPDEST DUP3 MSTORE POP POP JUMP JUMPDEST PUSH1 0x40 DUP3 ADD PUSH1 0x0 DUP3 ADD MLOAD PUSH2 0x1194 PUSH1 0x0 DUP6 ADD DUP3 PUSH2 0x1160 JUMP JUMPDEST POP PUSH1 0x20 DUP3 ADD MLOAD PUSH2 0x11A7 PUSH1 0x20 DUP6 ADD DUP3 PUSH2 0x116F JUMP JUMPDEST POP POP POP POP JUMP JUMPDEST PUSH1 0x0 PUSH1 0x40 DUP3 ADD SWAP1 POP PUSH2 0x11C2 PUSH1 0x0 DUP4 ADD DUP5 PUSH2 0x117E JUMP JUMPDEST SWAP3 SWAP2 POP POP JUMP JUMPDEST PUSH1 0x0 DUP3 DUP3 MSTORE PUSH1 0x20 DUP3 ADD SWAP1 POP SWAP3 SWAP2 POP POP JUMP JUMPDEST PUSH32 0x4F6E6C7920746865206D616E616765722063616E2063616C6C20746869732066 PUSH1 0x0 DUP3 ADD MSTORE PUSH32 0x756E6374696F6E2E000000000000000000000000000000000000000000000000 PUSH1 0x20 DUP3 ADD MSTORE POP JUMP JUMPDEST PUSH1 0x0 PUSH2 0x1235 PUSH1 0x28 DUP4 PUSH2 0x11C8 JUMP JUMPDEST SWAP2 POP PUSH2 0x1240 DUP3 PUSH2 0x11D9 JUMP JUMPDEST PUSH1 0x40 DUP3 ADD SWAP1 POP SWAP2 SWAP1 POP JUMP JUMPDEST PUSH1 0x0 PUSH1 0x20 DUP3 ADD SWAP1 POP DUP2 DUP2 SUB PUSH1 0x0 DUP4 ADD MSTORE PUSH2 0x1264 DUP2 PUSH2 0x1228 JUMP JUMPDEST SWAP1 POP SWAP2 SWAP1 POP JUMP JUMPDEST PUSH32 0x4C6F7474657279206D75737420626520636C6F736564206265666F7265207069 PUSH1 0x0 DUP3 ADD MSTORE PUSH32 0x636B696E6720612077696E6E65722E0000000000000000000000000000000000 PUSH1 0x20 DUP3 ADD MSTORE POP JUMP JUMPDEST PUSH1 0x0 PUSH2 0x12C7 PUSH1 0x2F DUP4 PUSH2 0x11C8 JUMP JUMPDEST SWAP2 POP PUSH2 0x12D2 DUP3 PUSH2 0x126B JUMP JUMPDEST PUSH1 0x40 DUP3 ADD SWAP1 POP SWAP2 SWAP1 POP JUMP JUMPDEST PUSH1 0x0 PUSH1 0x20 DUP3 ADD SWAP1 POP DUP2 DUP2 SUB PUSH1 0x0 DUP4 ADD MSTORE PUSH2 0x12F6 DUP2 PUSH2 0x12BA JUMP JUMPDEST SWAP1 POP SWAP2 SWAP1 POP JUMP JUMPDEST PUSH32 0x4E6F206D6F726520706C617965727320746F207069636B20612077696E6E6572 PUSH1 0x0 DUP3 ADD MSTORE PUSH32 0x2066726F6D2E0000000000000000000000000000000000000000000000000000 PUSH1 0x20 DUP3 ADD MSTORE POP JUMP JUMPDEST PUSH1 0x0 PUSH2 0x1359 PUSH1 0x26 DUP4 PUSH2 0x11C8 JUMP JUMPDEST SWAP2 POP PUSH2 0x1364 DUP3 PUSH2 0x12FD JUMP JUMPDEST PUSH1 0x40 DUP3 ADD SWAP1 POP SWAP2 SWAP1 POP JUMP JUMPDEST PUSH1 0x0 PUSH1 0x20 DUP3 ADD SWAP1 POP DUP2 DUP2 SUB PUSH1 0x0 DUP4 ADD MSTORE PUSH2 0x1388 DUP2 PUSH2 0x134C JUMP JUMPDEST SWAP1 POP SWAP2 SWAP1 POP JUMP JUMPDEST PUSH32 0x4E487B7100000000000000000000000000000000000000000000000000000000 PUSH1 0x0 MSTORE PUSH1 0x11 PUSH1 0x4 MSTORE PUSH1 0x24 PUSH1 0x0 REVERT JUMPDEST PUSH1 0x0 PUSH2 0x13C9 DUP3 PUSH2 0xE89 JUMP JUMPDEST SWAP2 POP PUSH2 0x13D4 DUP4 PUSH2 0xE89 JUMP JUMPDEST SWAP3 POP DUP3 DUP3 SUB SWAP1 POP DUP2 DUP2 GT ISZERO PUSH2 0x13EC JUMPI PUSH2 0x13EB PUSH2 0x138F JUMP JUMPDEST JUMPDEST SWAP3 SWAP2 POP POP JUMP JUMPDEST PUSH32 0x4E487B7100000000000000000000000000000000000000000000000000000000 PUSH1 0x0 MSTORE PUSH1 0x12 PUSH1 0x4 MSTORE PUSH1 0x24 PUSH1 0x0 REVERT JUMPDEST PUSH1 0x0 PUSH2 0x142C DUP3 PUSH2 0xE89 JUMP JUMPDEST SWAP2 POP PUSH2 0x1437 DUP4 PUSH2 0xE89 JUMP JUMPDEST SWAP3 POP DUP3 PUSH2 0x1447 JUMPI PUSH2 0x1446 PUSH2 0x13F2 JUMP JUMPDEST JUMPDEST DUP3 DUP3 MOD SWAP1 POP SWAP3 SWAP2 POP POP JUMP JUMPDEST PUSH1 0x0 PUSH2 0x145D DUP3 PUSH2 0xE89 JUMP JUMPDEST SWAP2 POP PUSH2 0x1468 DUP4 PUSH2 0xE89 JUMP JUMPDEST SWAP3 POP DUP3 DUP3 ADD SWAP1 POP DUP1 DUP3 GT ISZERO PUSH2 0x1480 JUMPI PUSH2 0x147F PUSH2 0x138F JUMP JUMPDEST JUMPDEST SWAP3 SWAP2 POP POP JUMP JUMPDEST PUSH32 0x4E487B7100000000000000000000000000000000000000000000000000000000 PUSH1 0x0 MSTORE PUSH1 0x32 PUSH1 0x4 MSTORE PUSH1 0x24 PUSH1 0x0 REVERT JUMPDEST PUSH1 0x0 PUSH2 0x14C0 DUP3 PUSH2 0xE89 JUMP JUMPDEST SWAP2 POP PUSH32 0xFFFFFFFFFFFFFFFFFFFFFFFFFFFFFFFFFFFFFFFFFFFFFFFFFFFFFFFFFFFFFFFF DUP3 SUB PUSH2 0x14F2 JUMPI PUSH2 0x14F1 PUSH2 0x138F JUMP JUMPDEST JUMPDEST PUSH1 0x1 DUP3 ADD SWAP1 POP SWAP2 SWAP1 POP JUMP JUMPDEST PUSH1 0x0 DUP2 SWAP1 POP SWAP3 SWAP2 POP POP JUMP JUMPDEST PUSH32 0x4C6F7474657279206973206E6F742063757272656E746C79206F70656E20666F PUSH1 0x0 DUP3 ADD MSTORE PUSH32 0x7220656E74726965732E20506C65617365207761697420000000000000000000 PUSH1 0x20 DUP3 ADD MSTORE POP JUMP JUMPDEST PUSH1 0x0 PUSH2 0x1564 PUSH1 0x37 DUP4 PUSH2 0x14FD JUMP JUMPDEST SWAP2 POP PUSH2 0x156F DUP3 PUSH2 0x1508 JUMP JUMPDEST PUSH1 0x37 DUP3 ADD SWAP1 POP SWAP2 SWAP1 POP JUMP JUMPDEST PUSH1 0x0 DUP2 MLOAD SWAP1 POP SWAP2 SWAP1 POP JUMP JUMPDEST PUSH1 0x0 JUMPDEST DUP4 DUP2 LT ISZERO PUSH2 0x15A3 JUMPI DUP1 DUP3 ADD MLOAD DUP2 DUP5 ADD MSTORE PUSH1 0x20 DUP2 ADD SWAP1 POP PUSH2 0x1588 JUMP JUMPDEST PUSH1 0x0 DUP5 DUP5 ADD MSTORE POP POP POP POP JUMP JUMPDEST PUSH1 0x0 PUSH2 0x15BA DUP3 PUSH2 0x157A JUMP JUMPDEST PUSH2 0x15C4 DUP2 DUP6 PUSH2 0x14FD JUMP JUMPDEST SWAP4 POP PUSH2 0x15D4 DUP2 DUP6 PUSH1 0x20 DUP7 ADD PUSH2 0x1585 JUMP JUMPDEST DUP1 DUP5 ADD SWAP2 POP POP SWAP3 SWAP2 POP POP JUMP JUMPDEST PUSH1 0x0 PUSH2 0x15EB DUP3 PUSH2 0x1557 JUMP JUMPDEST SWAP2 POP PUSH2 0x15F7 DUP3 DUP5 PUSH2 0x15AF JUMP JUMPDEST SWAP2 POP DUP2 SWAP1 POP SWAP3 SWAP2 POP POP JUMP JUMPDEST PUSH1 0x0 PUSH1 0x1F NOT PUSH1 0x1F DUP4 ADD AND SWAP1 POP SWAP2 SWAP1 POP JUMP JUMPDEST PUSH1 0x0 PUSH2 0x161E DUP3 PUSH2 0x157A JUMP JUMPDEST PUSH2 0x1628 DUP2 DUP6 PUSH2 0x11C8 JUMP JUMPDEST SWAP4 POP PUSH2 0x1638 DUP2 DUP6 PUSH1 0x20 DUP7 ADD PUSH2 0x1585 JUMP JUMPDEST PUSH2 0x1641 DUP2 PUSH2 0x1602 JUMP JUMPDEST DUP5 ADD SWAP2 POP POP SWAP3 SWAP2 POP POP JUMP JUMPDEST PUSH1 0x0 PUSH1 0x20 DUP3 ADD SWAP1 POP DUP2 DUP2 SUB PUSH1 0x0 DUP4 ADD MSTORE PUSH2 0x1666 DUP2 DUP5 PUSH2 0x1613 JUMP JUMPDEST SWAP1 POP SWAP3 SWAP2 POP POP JUMP JUMPDEST PUSH32 0x5469636B6574207072696365206D75737420626520657175616C20746F207468 PUSH1 0x0 DUP3 ADD MSTORE PUSH32 0x65207265717569726564207469636B65742070726963652E0000000000000000 PUSH1 0x20 DUP3 ADD MSTORE POP JUMP JUMPDEST PUSH1 0x0 PUSH2 0x16CA PUSH1 0x38 DUP4 PUSH2 0x11C8 JUMP JUMPDEST SWAP2 POP PUSH2 0x16D5 DUP3 PUSH2 0x166E JUMP JUMPDEST PUSH1 0x40 DUP3 ADD SWAP1 POP SWAP2 SWAP1 POP JUMP JUMPDEST PUSH1 0x0 PUSH1 0x20 DUP3 ADD SWAP1 POP DUP2 DUP2 SUB PUSH1 0x0 DUP4 ADD MSTORE PUSH2 0x16F9 DUP2 PUSH2 0x16BD JUMP JUMPDEST SWAP1 POP SWAP2 SWAP1 POP JUMP JUMPDEST PUSH2 0x1709 DUP2 PUSH2 0xF74 JUMP JUMPDEST DUP3 MSTORE POP POP JUMP JUMPDEST PUSH1 0x0 PUSH1 0x20 DUP3 ADD SWAP1 POP PUSH2 0x1724 PUSH1 0x0 DUP4 ADD DUP5 PUSH2 0x1700 JUMP JUMPDEST SWAP3 SWAP2 POP POP JUMP JUMPDEST PUSH2 0x1733 DUP2 PUSH2 0xFDF JUMP JUMPDEST DUP2 EQ PUSH2 0x173E JUMPI PUSH1 0x0 DUP1 REVERT JUMPDEST POP JUMP JUMPDEST PUSH1 0x0 DUP2 MLOAD SWAP1 POP PUSH2 0x1750 DUP2 PUSH2 0x172A JUMP JUMPDEST SWAP3 SWAP2 POP POP JUMP JUMPDEST PUSH1 0x0 PUSH1 0x20 DUP3 DUP5 SUB SLT ISZERO PUSH2 0x176C JUMPI PUSH2 0x176B PUSH2 0xF4F JUMP JUMPDEST JUMPDEST PUSH1 0x0 PUSH2 0x177A DUP5 DUP3 DUP6 ADD PUSH2 0x1741 JUMP JUMPDEST SWAP2 POP POP SWAP3 SWAP2 POP POP JUMP JUMPDEST PUSH32 0x5468697320506C617965722068617320616C726561647920656E746572656400 PUSH1 0x0 DUP3 ADD MSTORE POP JUMP JUMPDEST PUSH1 0x0 PUSH2 0x17B9 PUSH1 0x1F DUP4 PUSH2 0x11C8 JUMP JUMPDEST SWAP2 POP PUSH2 0x17C4 DUP3 PUSH2 0x1783 JUMP JUMPDEST PUSH1 0x20 DUP3 ADD SWAP1 POP SWAP2 SWAP1 POP JUMP JUMPDEST PUSH1 0x0 PUSH1 0x20 DUP3 ADD SWAP1 POP DUP2 DUP2 SUB PUSH1 0x0 DUP4 ADD MSTORE PUSH2 0x17E8 DUP2 PUSH2 0x17AC JUMP JUMPDEST SWAP1 POP SWAP2 SWAP1 POP JUMP JUMPDEST PUSH32 0x546865726520617265206E6F2057696E6E657273207965742E00000000000000 PUSH1 0x0 DUP3 ADD MSTORE POP JUMP JUMPDEST PUSH1 0x0 PUSH2 0x1825 PUSH1 0x19 DUP4 PUSH2 0x11C8 JUMP JUMPDEST SWAP2 POP PUSH2 0x1830 DUP3 PUSH2 0x17EF JUMP JUMPDEST PUSH1 0x20 DUP3 ADD SWAP1 POP SWAP2 SWAP1 POP JUMP JUMPDEST PUSH1 0x0 PUSH1 0x20 DUP3 ADD SWAP1 POP DUP2 DUP2 SUB PUSH1 0x0 DUP4 ADD MSTORE PUSH2 0x1854 DUP2 PUSH2 0x1818 JUMP JUMPDEST SWAP1 POP SWAP2 SWAP1 POP JUMP JUMPDEST PUSH1 0x0 DUP2 SWAP1 POP SWAP2 SWAP1 POP JUMP JUMPDEST PUSH2 0x1876 PUSH2 0x1871 DUP3 PUSH2 0xE89 JUMP JUMPDEST PUSH2 0x185B JUMP JUMPDEST DUP3 MSTORE POP POP JUMP JUMPDEST PUSH1 0x0 PUSH2 0x1888 DUP3 DUP7 PUSH2 0x1865 JUMP JUMPDEST PUSH1 0x20 DUP3 ADD SWAP2 POP PUSH2 0x1898 DUP3 DUP6 PUSH2 0x1865 JUMP JUMPDEST PUSH1 0x20 DUP3 ADD SWAP2 POP PUSH2 0x18A8 DUP3 DUP5 PUSH2 0x1865 JUMP JUMPDEST PUSH1 0x20 DUP3 ADD SWAP2 POP DUP2 SWAP1 POP SWAP5 SWAP4 POP POP POP POP JUMP JUMPDEST PUSH32 0x207365636F6E6473000000000000000000000000000000000000000000000000 PUSH1 0x0 DUP3 ADD MSTORE POP JUMP JUMPDEST PUSH1 0x0 PUSH2 0x18EF PUSH1 0x8 DUP4 PUSH2 0x14FD JUMP JUMPDEST SWAP2 POP PUSH2 0x18FA DUP3 PUSH2 0x18B9 JUMP JUMPDEST PUSH1 0x8 DUP3 ADD SWAP1 POP SWAP2 SWAP1 POP JUMP JUMPDEST PUSH1 0x0 PUSH2 0x1911 DUP3 DUP5 PUSH2 0x1865 JUMP JUMPDEST PUSH1 0x20 DUP3 ADD SWAP2 POP PUSH2 0x1920 DUP3 PUSH2 0x18E2 JUMP JUMPDEST SWAP2 POP DUP2 SWAP1 POP SWAP3 SWAP2 POP POP JUMP INVALID LOG2 PUSH5 0x6970667358 0x22 SLT KECCAK256 LOG3 0xC3 DIV 0xF7 0xDF LOG2 0xC1 0x5C DUP7 SWAP7 0x5F PUSH7 0x3BB96A70CD2DF2 0xEF PUSH23 0x11C0275E9A70179497126F64736F6C6343000812003300 "
				},
				"gasEstimates": {
					"creation": {
						"codeDepositCost": "1299400",
						"executionCost": "infinite",
						"totalCost": "infinite"
					},
					"external": {
						"checkIfWinner()": "infinite",
						"enter(uint256)": "infinite",
						"getCurrentState()": "2591",
						"getPlayers()": "infinite",
						"hasPlayerEntered(address)": "infinite",
						"minimumPlayers()": "2517",
						"pickWinner()": "infinite",
						"ticketCount()": "2495",
						"ticketPrice()": "2430"
					},
					"internal": {
						"getTimoutDifference()": "infinite",
						"random()": "infinite"
					}
				},
				"methodIdentifiers": {
					"checkIfWinner()": "b844007c",
					"enter(uint256)": "a59f3e0c",
					"getCurrentState()": "378aa701",
					"getPlayers()": "8b5b9ccc",
					"hasPlayerEntered(address)": "680719bb",
					"minimumPlayers()": "e0764487",
					"pickWinner()": "5d495aea",
					"ticketCount()": "cfbd900f",
					"ticketPrice()": "1209b1f6"
				}
			},
			"storageLayout": {
				"storage": [
					{
						"astId": 3,
						"contract": "backend/contracts/lottery.sol:Lottery",
						"label": "manager",
						"offset": 0,
						"slot": "0",
						"type": "t_address"
					},
					{
						"astId": 6,
						"contract": "backend/contracts/lottery.sol:Lottery",
						"label": "players",
						"offset": 0,
						"slot": "1",
						"type": "t_array(t_address_payable)dyn_storage"
					},
					{
						"astId": 8,
						"contract": "backend/contracts/lottery.sol:Lottery",
						"label": "winner",
						"offset": 0,
						"slot": "2",
						"type": "t_address_payable"
					},
					{
						"astId": 10,
						"contract": "backend/contracts/lottery.sol:Lottery",
						"label": "ticketPrice",
						"offset": 0,
						"slot": "3",
						"type": "t_uint256"
					},
					{
						"astId": 12,
						"contract": "backend/contracts/lottery.sol:Lottery",
						"label": "minimumPlayers",
						"offset": 0,
						"slot": "4",
						"type": "t_uint256"
					},
					{
						"astId": 14,
						"contract": "backend/contracts/lottery.sol:Lottery",
						"label": "ticketCount",
						"offset": 0,
						"slot": "5",
						"type": "t_uint256"
					},
					{
						"astId": 16,
						"contract": "backend/contracts/lottery.sol:Lottery",
						"label": "ticketIndex",
						"offset": 0,
						"slot": "6",
						"type": "t_uint256"
					},
					{
						"astId": 18,
						"contract": "backend/contracts/lottery.sol:Lottery",
						"label": "timeoutToRestart",
						"offset": 0,
						"slot": "7",
						"type": "t_uint256"
					},
					{
						"astId": 20,
						"contract": "backend/contracts/lottery.sol:Lottery",
						"label": "timeoutStamp",
						"offset": 0,
						"slot": "8",
						"type": "t_uint256"
					},
					{
						"astId": 28,
						"contract": "backend/contracts/lottery.sol:Lottery",
						"label": "currentState",
						"offset": 0,
						"slot": "9",
						"type": "t_enum(LotteryState)25"
					},
					{
						"astId": 56,
						"contract": "backend/contracts/lottery.sol:Lottery",
						"label": "lastWinners",
						"offset": 0,
						"slot": "10",
						"type": "t_array(t_struct(LastWinners)52_storage)dyn_storage"
					}
				],
				"types": {
					"t_address": {
						"encoding": "inplace",
						"label": "address",
						"numberOfBytes": "20"
					},
					"t_address_payable": {
						"encoding": "inplace",
						"label": "address payable",
						"numberOfBytes": "20"
					},
					"t_array(t_address_payable)dyn_storage": {
						"base": "t_address_payable",
						"encoding": "dynamic_array",
						"label": "address payable[]",
						"numberOfBytes": "32"
					},
					"t_array(t_struct(LastWinners)52_storage)dyn_storage": {
						"base": "t_struct(LastWinners)52_storage",
						"encoding": "dynamic_array",
						"label": "struct Lottery.LastWinners[]",
						"numberOfBytes": "32"
					},
					"t_bool": {
						"encoding": "inplace",
						"label": "bool",
						"numberOfBytes": "1"
					},
					"t_enum(LotteryState)25": {
						"encoding": "inplace",
						"label": "enum Lottery.LotteryState",
						"numberOfBytes": "1"
					},
					"t_struct(LastWinners)52_storage": {
						"encoding": "inplace",
						"label": "struct Lottery.LastWinners",
						"members": [
							{
								"astId": 49,
								"contract": "backend/contracts/lottery.sol:Lottery",
								"label": "id",
								"offset": 0,
								"slot": "0",
								"type": "t_address"
							},
							{
								"astId": 51,
								"contract": "backend/contracts/lottery.sol:Lottery",
								"label": "isWinner",
								"offset": 20,
								"slot": "0",
								"type": "t_bool"
							}
						],
						"numberOfBytes": "32"
					},
					"t_uint256": {
						"encoding": "inplace",
						"label": "uint256",
						"numberOfBytes": "32"
					}
				}
			},
			"userdoc": {
				"kind": "user",
				"methods": {},
				"version": 1
			}
		}
	}
}